{
  "_format": "hh-sol-artifact-1",
  "contractName": "Pool",
  "sourceName": "contracts/Pool.sol",
  "abi": [
    {
      "inputs": [
        {
          "internalType": "address",
          "name": "_depos_address",
          "type": "address"
        },
        {
          "internalType": "address",
          "name": "_oracle_address",
          "type": "address"
        },
        {
          "internalType": "address",
          "name": "_asset_manager_address",
          "type": "address"
        },
        {
          "internalType": "address",
          "name": "_amo_manager_address",
          "type": "address"
        },
        {
          "internalType": "address",
          "name": "_insurance_vault_address",
          "type": "address"
        }
      ],
      "stateMutability": "nonpayable",
      "type": "constructor"
    },
    {
      "anonymous": false,
      "inputs": [
        {
          "indexed": true,
          "internalType": "address",
          "name": "assets",
          "type": "address"
        },
        {
          "indexed": true,
          "internalType": "address",
          "name": "user",
          "type": "address"
        },
        {
          "indexed": false,
          "internalType": "uint256",
          "name": "amount",
          "type": "uint256"
        }
      ],
      "name": "Deposit",
      "type": "event"
    },
    {
      "anonymous": false,
      "inputs": [
        {
          "indexed": true,
          "internalType": "address",
          "name": "previousOwner",
          "type": "address"
        },
        {
          "indexed": true,
          "internalType": "address",
          "name": "newOwner",
          "type": "address"
        }
      ],
      "name": "OwnershipTransferred",
      "type": "event"
    },
    {
      "anonymous": false,
      "inputs": [
        {
          "indexed": false,
          "internalType": "uint256",
          "name": "Amount",
          "type": "uint256"
        },
        {
          "indexed": false,
          "internalType": "address",
          "name": "From",
          "type": "address"
        },
        {
          "indexed": false,
          "internalType": "address",
          "name": "Token",
          "type": "address"
        }
      ],
      "name": "TransferIn",
      "type": "event"
    },
    {
      "anonymous": false,
      "inputs": [
        {
          "indexed": false,
          "internalType": "uint256",
          "name": "Amount",
          "type": "uint256"
        },
        {
          "indexed": false,
          "internalType": "address",
          "name": "To",
          "type": "address"
        },
        {
          "indexed": false,
          "internalType": "address",
          "name": "Token",
          "type": "address"
        }
      ],
      "name": "TransferOut",
      "type": "event"
    },
    {
      "anonymous": false,
      "inputs": [
        {
          "indexed": true,
          "internalType": "address",
          "name": "assets",
          "type": "address"
        },
        {
          "indexed": true,
          "internalType": "address",
          "name": "user",
          "type": "address"
        },
        {
          "indexed": false,
          "internalType": "uint256",
          "name": "amount",
          "type": "uint256"
        }
      ],
      "name": "Withdraw",
      "type": "event"
    },
    {
      "inputs": [
        {
          "internalType": "uint256",
          "name": "_tokenId",
          "type": "uint256"
        }
      ],
      "name": "AmountToCompensateUser",
      "outputs": [
        {
          "internalType": "uint256",
          "name": "amount_to_compensate",
          "type": "uint256"
        }
      ],
      "stateMutability": "view",
      "type": "function"
    },
    {
      "inputs": [
        {
          "internalType": "address",
          "name": "asset_address",
          "type": "address"
        }
      ],
      "name": "AssetTotalDepositAmount",
      "outputs": [
        {
          "internalType": "uint256",
          "name": "",
          "type": "uint256"
        }
      ],
      "stateMutability": "view",
      "type": "function"
    },
    {
      "inputs": [
        {
          "internalType": "address",
          "name": "asset_address",
          "type": "address"
        }
      ],
      "name": "AssetTotalProfit",
      "outputs": [
        {
          "internalType": "uint256",
          "name": "",
          "type": "uint256"
        }
      ],
      "stateMutability": "view",
      "type": "function"
    },
    {
      "inputs": [],
      "name": "GetGammaFactor",
      "outputs": [
        {
          "internalType": "uint256",
          "name": "",
          "type": "uint256"
        }
      ],
      "stateMutability": "view",
      "type": "function"
    },
    {
      "inputs": [
        {
          "internalType": "address",
          "name": "asset_address",
          "type": "address"
        },
        {
          "internalType": "uint256",
          "name": "asset_amount",
          "type": "uint256"
        }
      ],
      "name": "GiveAMOAsset",
      "outputs": [],
      "stateMutability": "nonpayable",
      "type": "function"
    },
    {
      "inputs": [],
      "name": "amo_manager_address",
      "outputs": [
        {
          "internalType": "address",
          "name": "",
          "type": "address"
        }
      ],
      "stateMutability": "view",
      "type": "function"
    },
    {
      "inputs": [
        {
          "internalType": "address",
          "name": "",
          "type": "address"
        }
      ],
      "name": "asset_compensate_twap_period",
      "outputs": [
        {
          "internalType": "uint256",
          "name": "",
          "type": "uint256"
        }
      ],
      "stateMutability": "view",
      "type": "function"
    },
    {
      "inputs": [
        {
          "internalType": "address",
          "name": "",
          "type": "address"
        }
      ],
      "name": "asset_compensate_weight",
      "outputs": [
        {
          "internalType": "uint256",
          "name": "",
          "type": "uint256"
        }
      ],
      "stateMutability": "view",
      "type": "function"
    },
    {
      "inputs": [],
      "name": "asset_manager_address",
      "outputs": [
        {
          "internalType": "address",
          "name": "",
          "type": "address"
        }
      ],
      "stateMutability": "view",
      "type": "function"
    },
    {
      "inputs": [
        {
          "internalType": "address",
          "name": "",
          "type": "address"
        }
      ],
      "name": "asset_max_compensate_threshold",
      "outputs": [
        {
          "internalType": "uint256",
          "name": "",
          "type": "uint256"
        }
      ],
      "stateMutability": "view",
      "type": "function"
    },
    {
      "inputs": [
        {
          "internalType": "address",
          "name": "",
          "type": "address"
        }
      ],
      "name": "asset_min_compensate_threshold",
      "outputs": [
        {
          "internalType": "uint256",
          "name": "",
          "type": "uint256"
        }
      ],
      "stateMutability": "view",
      "type": "function"
    },
    {
      "inputs": [],
      "name": "dTicket",
      "outputs": [
        {
          "internalType": "contract DTicket",
          "name": "",
          "type": "address"
        }
      ],
      "stateMutability": "view",
      "type": "function"
    },
    {
      "inputs": [],
      "name": "depos_address",
      "outputs": [
        {
          "internalType": "address",
          "name": "",
          "type": "address"
        }
      ],
      "stateMutability": "view",
      "type": "function"
    },
    {
      "inputs": [
        {
          "internalType": "address",
          "name": "asset",
          "type": "address"
        }
      ],
      "name": "getUserTimeDeposit",
      "outputs": [
        {
          "components": [
            {
              "internalType": "address",
              "name": "user",
              "type": "address"
            },
            {
              "internalType": "address",
              "name": "asset",
              "type": "address"
            },
            {
              "internalType": "uint256",
              "name": "id",
              "type": "uint256"
            },
            {
              "internalType": "uint256",
              "name": "time",
              "type": "uint256"
            },
            {
              "internalType": "uint256",
              "name": "amount",
              "type": "uint256"
            },
            {
              "internalType": "uint256",
              "name": "price",
              "type": "uint256"
            },
            {
              "internalType": "bool",
              "name": "isWithdraw",
              "type": "bool"
            }
          ],
          "internalType": "struct Pool.TimeDeposit[]",
          "name": "",
          "type": "tuple[]"
        }
      ],
      "stateMutability": "view",
      "type": "function"
    },
    {
      "inputs": [],
      "name": "insurance_vault_address",
      "outputs": [
        {
          "internalType": "address",
          "name": "",
          "type": "address"
        }
      ],
      "stateMutability": "view",
      "type": "function"
    },
    {
      "inputs": [],
      "name": "insurance_vault_compensate_ratio",
      "outputs": [
        {
          "internalType": "uint256",
          "name": "",
          "type": "uint256"
        }
      ],
      "stateMutability": "view",
      "type": "function"
    },
    {
      "inputs": [],
      "name": "oracle_address",
      "outputs": [
        {
          "internalType": "address",
          "name": "",
          "type": "address"
        }
      ],
      "stateMutability": "view",
      "type": "function"
    },
    {
      "inputs": [],
      "name": "owner",
      "outputs": [
        {
          "internalType": "address",
          "name": "",
          "type": "address"
        }
      ],
      "stateMutability": "view",
      "type": "function"
    },
    {
      "inputs": [
        {
          "internalType": "address",
          "name": "asset",
          "type": "address"
        },
        {
          "internalType": "uint256",
          "name": "assetAmount",
          "type": "uint256"
        }
      ],
      "name": "recordTransferProfitFromAMO",
      "outputs": [],
      "stateMutability": "nonpayable",
      "type": "function"
    },
    {
      "inputs": [],
      "name": "renounceOwnership",
      "outputs": [],
      "stateMutability": "nonpayable",
      "type": "function"
    },
    {
      "inputs": [
        {
          "internalType": "address",
          "name": "new_amo_manager",
          "type": "address"
        }
      ],
      "name": "setAMOManagerAddress",
      "outputs": [],
      "stateMutability": "nonpayable",
      "type": "function"
    },
    {
      "inputs": [
        {
          "internalType": "address",
          "name": "new_asset_manager",
          "type": "address"
        }
      ],
      "name": "setAssetManagerAddress",
      "outputs": [],
      "stateMutability": "nonpayable",
      "type": "function"
    },
    {
      "inputs": [
        {
          "internalType": "address",
          "name": "asset_address",
          "type": "address"
        },
        {
          "internalType": "uint256",
          "name": "max_threshold",
          "type": "uint256"
        },
        {
          "internalType": "uint256",
          "name": "min_threshold",
          "type": "uint256"
        },
        {
          "internalType": "uint256",
          "name": "twap_period",
          "type": "uint256"
        },
        {
          "internalType": "uint256",
          "name": "compensate_weight",
          "type": "uint256"
        }
      ],
      "name": "setCompensateParameters",
      "outputs": [],
      "stateMutability": "nonpayable",
      "type": "function"
    },
    {
      "inputs": [
        {
          "internalType": "address",
          "name": "new_depos",
          "type": "address"
        }
      ],
      "name": "setDeposAddress",
      "outputs": [],
      "stateMutability": "nonpayable",
      "type": "function"
    },
    {
      "inputs": [
        {
          "internalType": "address",
          "name": "new_insurance_vault",
          "type": "address"
        }
      ],
      "name": "setInsuranceVaultAddress",
      "outputs": [],
      "stateMutability": "nonpayable",
      "type": "function"
    },
    {
      "inputs": [
        {
          "internalType": "address",
          "name": "new_oracle",
          "type": "address"
        }
      ],
      "name": "setOracleAddress",
      "outputs": [],
      "stateMutability": "nonpayable",
      "type": "function"
    },
    {
      "inputs": [
        {
          "internalType": "address",
          "name": "asset",
          "type": "address"
        },
        {
          "internalType": "uint256",
          "name": "amount",
          "type": "uint256"
        },
        {
          "internalType": "uint256",
          "name": "time",
          "type": "uint256"
        }
      ],
      "name": "timeDeposit",
      "outputs": [],
      "stateMutability": "nonpayable",
      "type": "function"
    },
    {
      "inputs": [
        {
          "internalType": "uint256",
          "name": "_tokenId",
          "type": "uint256"
        }
      ],
      "name": "timeWithdraw",
      "outputs": [],
      "stateMutability": "nonpayable",
      "type": "function"
    },
    {
      "inputs": [],
      "name": "total_max_compensation",
      "outputs": [
        {
          "internalType": "uint256",
          "name": "",
          "type": "uint256"
        }
      ],
      "stateMutability": "view",
      "type": "function"
    },
    {
      "inputs": [
        {
          "internalType": "address",
          "name": "newOwner",
          "type": "address"
        }
      ],
      "name": "transferOwnership",
      "outputs": [],
      "stateMutability": "nonpayable",
      "type": "function"
    },
    {
      "inputs": [
        {
          "internalType": "uint256",
          "name": "_tokenId",
          "type": "uint256"
        },
        {
          "internalType": "address",
          "name": "newOwner",
          "type": "address"
        }
      ],
      "name": "transferTicketOwner",
      "outputs": [],
      "stateMutability": "nonpayable",
      "type": "function"
    }
  ],
  "bytecode": "0x60806040523480156200001157600080fd5b506040516200413638038062004136833981016040819052620000349162000237565b6200003f33620001bc565b6001600160a01b038516158015906200006057506001600160a01b03841615155b80156200007557506001600160a01b03831615155b80156200008a57506001600160a01b03821615155b80156200009f57506001600160a01b03811615155b620000f05760405162461bcd60e51b815260206004820152601560248201527f5a65726f20616464726573732064657465637465640000000000000000000000604482015260640160405180910390fd5b600380546001600160a01b03199081166001600160a01b0388811691909117909255600680548216878416179055600280548216868416179055600180548216858416179055600480549091169183169190911790556000601255620c3500600e55604051309062000162906200020c565b6001600160a01b039091168152602001604051809103906000f0801580156200018f573d6000803e3d6000fd5b50600580546001600160a01b0319166001600160a01b039290921691909117905550620002a79350505050565b600080546001600160a01b038381166001600160a01b0319831681178455604051919092169283917f8be0079c531659141344cd1fd0a4f28419497f9722a3daafe3b4186f6b6457e09190a35050565b611802806200293483390190565b80516001600160a01b03811681146200023257600080fd5b919050565b600080600080600060a086880312156200025057600080fd5b6200025b866200021a565b94506200026b602087016200021a565b93506200027b604087016200021a565b92506200028b606087016200021a565b91506200029b608087016200021a565b90509295509295909350565b61267d80620002b76000396000f3fe608060405234801561001057600080fd5b50600436106101e55760003560e01c80638da5cb5b1161010f578063aea29867116100a2578063d0bf8f3e11610071578063d0bf8f3e1461042d578063e3bf44b914610440578063f2fde38b14610453578063f4f20c9b1461046657600080fd5b8063aea29867146103d1578063bcbbc735146103f1578063c038fc3914610411578063c136d9111461042457600080fd5b80639fef0710116100de5780639fef071014610390578063a498c8bb146103a3578063a8a8bbcd146103b6578063ab905dd9146103c957600080fd5b80638da5cb5b1461034357806393ff36bb146103545780639708b76b1461035d5780639f24d6fb1461037d57600080fd5b80634c69c00f116101875780637cd5b158116101565780637cd5b158146102f75780637e0c17921461030a578063873fc9961461031d5780638b6da6251461033057600080fd5b80634c69c00f146102b65780634d665629146102c957806362ced98b146102dc578063715018a6146102ef57600080fd5b8063190d7da3116101c3578063190d7da3146102525780632d79a6a41461027d5780634287357b146102905780634ab49c50146102a357600080fd5b80630840abee146101ea5780630b5bb0b01461021d5780630e36299e14610232575b600080fd5b61020a6101f83660046121ba565b600a6020526000908152604090205481565b6040519081526020015b60405180910390f35b61023061022b3660046122bb565b610479565b005b61020a6102403660046121ba565b600c6020526000908152604090205481565b600254610265906001600160a01b031681565b6040516001600160a01b039091168152602001610214565b61023061028b3660046121ba565b61085b565b61020a61029e3660046121ba565b6108cd565b6102306102b1366004612220565b61098c565b6102306102c43660046121ba565b610ce4565b61020a6102d73660046122bb565b610d56565b6102306102ea3660046121f4565b611047565b6102306110cc565b600554610265906001600160a01b031681565b600654610265906001600160a01b031681565b61023061032b3660046122ed565b611102565b600154610265906001600160a01b031681565b6000546001600160a01b0316610265565b61020a60125481565b61020a61036b3660046121ba565b600b6020526000908152604090205481565b600354610265906001600160a01b031681565b600454610265906001600160a01b031681565b6102306103b1366004612255565b611374565b6102306103c43660046121f4565b6114d0565b61020a6115df565b6103e46103df3660046121ba565b6116b2565b6040516102149190612340565b61020a6103ff3660046121ba565b600d6020526000908152604090205481565b61023061041f3660046121ba565b611899565b61020a600e5481565b61020a61043b3660046121ba565b61190b565b61023061044e3660046121ba565b6119ca565b6102306104613660046121ba565b611a3c565b6102306104743660046121ba565b611ad7565b6005546040516331a9108f60e11b8152600481018390526001600160a01b0390911690636352211e9060240160206040518083038186803b1580156104bd57600080fd5b505afa1580156104d1573d6000803e3d6000fd5b505050506040513d601f19601f820116820180604052508101906104f591906121d7565b6001600160a01b0316336001600160a01b0316146105525760405162461bcd60e51b81526020600482015260156024820152742a34329027232a1034b9903737ba103cb7bab9399760591b60448201526064015b60405180910390fd5b60008181526007602052604090206006015460ff16156105b45760405162461bcd60e51b815260206004820152601b60248201527f596f75206861766520616c72656164792077697468647261776e2e00000000006044820152606401610549565b600081815260076020526040808220600181015460049182015492516370a0823160e01b815230928101929092526001600160a01b0316929083906370a082319060240160206040518083038186803b15801561061057600080fd5b505afa158015610624573d6000803e3d6000fd5b505050506040513d601f19601f8201168201806040525081019061064891906122d4565b600085815260076020526040812060030154919250904211156106a1576001600160a01b038416600090815260106020908152604080832054600f909252909120546106949085612589565b61069e9190612479565b90505b60006106ad8285612461565b905080831015610732576001546001600160a01b031663ac54b6af866106d386856125a8565b6040516001600160e01b031960e085901b1681526001600160a01b0390921660048301526024820152604401600060405180830381600087803b15801561071957600080fd5b505af115801561072d573d6000803e3d6000fd5b505050505b61073c8582611b49565b6001600160a01b038516600090815260106020526040812080548692906107649084906125a8565b90915550506001600160a01b0385166000908152600f6020526040812080548492906107919084906125a8565b90915550506000868152600760205260408120600601805460ff191660011790556107bb87610d56565b90506107c73382611c38565b60008781526011602052604081205460128054919290916107e99084906125a8565b9091555050600554604051633477cc1b60e21b8152336004820152602481018990526001600160a01b039091169063d1df306c90604401600060405180830381600087803b15801561083a57600080fd5b505af115801561084e573d6000803e3d6000fd5b5050505050505050505050565b6000546001600160a01b031633146108855760405162461bcd60e51b8152600401610549906123ff565b6001600160a01b0381166108ab5760405162461bcd60e51b8152600401610549906123d0565b600480546001600160a01b0319166001600160a01b0392909216919091179055565b60025460405163d44da15f60e01b81526001600160a01b038084166004830152600092849291169063d44da15f9060240160206040518083038186803b15801561091657600080fd5b505afa15801561092a573d6000803e3d6000fd5b505050506040513d601f19601f8201168201806040525081019061094e9190612299565b151560011461096f5760405162461bcd60e51b815260040161054990612434565b50506001600160a01b031660009081526010602052604090205490565b6109968383611ca7565b600554600854604051630f38ca0d60e31b815233600482015260248101919091526001600160a01b03909116906379c6506890604401600060405180830381600087803b1580156109e657600080fd5b505af11580156109fa573d6000803e3d6000fd5b5050600654604051630df1821560e31b81526001600160a01b038781166004830152610e106024830152600094509091169150636f8c10a89060440160206040518083038186803b158015610a4e57600080fd5b505afa158015610a62573d6000803e3d6000fd5b505050506040513d601f19601f82011682018060405250810190610a8691906122d4565b90506040518060e00160405280336001600160a01b03168152602001856001600160a01b0316815260200160085481526020018342610ac59190612461565b81526020808201869052604080830185905260006060938401819052600854815260078352819020845181546001600160a01b03199081166001600160a01b0392831617835586850151600184018054909216908316179055858301516002830155938501516003820155608085015160048083019190915560a0860151600583015560c0909501516006909101805460ff1916911515919091179055805163313ce56760e01b81529051620f4240949389169363313ce567938382019390929190829003018186803b158015610b9b57600080fd5b505afa158015610baf573d6000803e3d6000fd5b505050506040513d601f19601f82011682018060405250810190610bd3919061231d565b610bde90600a6124de565b6001600160a01b0386166000908152600a602052604090205483908690610c0890620f42406125a8565b610c129190612589565b610c1c9190612589565b610c269190612479565b610c309190612479565b600880546000908152601160205260408082209390935590548152908120546012805491929091610c62908490612461565b90915550506001600160a01b03841660009081526010602052604081208054859290610c8f908490612461565b90915550506001600160a01b03841660009081526009602090815260408083203384528252822060088054825460018181018555938652939094209092019290925554610cdb91612461565b60085550505050565b6000546001600160a01b03163314610d0e5760405162461bcd60e51b8152600401610549906123ff565b6001600160a01b038116610d345760405162461bcd60e51b8152600401610549906123d0565b600680546001600160a01b0319166001600160a01b0392909216919091179055565b6000600854821115610da05760405162461bcd60e51b8152602060048201526013602482015272746f6b656e494420756e617661696c61626c6560681b6044820152606401610549565b6000828152600760209081526040808320600581015460018201546004928301546006546001600160a01b03928316808952600c909752858820549551630df1821560e31b81529485018790526024850195909552919591939192911690636f8c10a89060440160206040518083038186803b158015610e1f57600080fd5b505afa158015610e33573d6000803e3d6000fd5b505050506040513d601f19601f82011682018060405250810190610e5791906122d4565b90506000836001600160a01b031663313ce5676040518163ffffffff1660e01b815260040160206040518083038186803b158015610e9457600080fd5b505afa158015610ea8573d6000803e3d6000fd5b505050506040513d601f19601f82011682018060405250810190610ecc919061231d565b6001600160a01b0385166000908152600b6020526040902054909150610ef3908690612589565b610f00620f424084612589565b10610f0e576000955061101c565b6001600160a01b0384166000908152600a6020526040902054610f32908690612589565b610f3f620f424084612589565b11610fb457610f4f81600a6124de565b6001600160a01b0385166000908152600a6020908152604080832054600b90925290912054620f4240918891610f8591906125a8565b610f8f9087612589565b610f999190612589565b610fa39190612479565b610fad9190612479565b955061101c565b610fbf81600a6124de565b620f4240610fcd8482612589565b6001600160a01b0387166000908152600b6020526040902054610ff1908990612589565b610ffb91906125a8565b6110059086612589565b61100f9190612479565b6110199190612479565b95505b620f42406110286115df565b6110329088612589565b61103c9190612479565b979650505050505050565b6001546001600160a01b0316331461109b5760405162461bcd60e51b81526020600482015260176024820152762cb7ba9030b932903737ba1030b6b79036b0b730b3b2b960491b6044820152606401610549565b6001600160a01b0382166000908152600f6020526040812080548392906110c3908490612461565b90915550505050565b6000546001600160a01b031633146110f65760405162461bcd60e51b8152600401610549906123ff565b6111006000611d8d565b565b6005546001600160a01b031633146111525760405162461bcd60e51b8152602060048201526013602482015272165bdd48185c99481b9bdd0811151a58dad95d606a1b6044820152606401610549565b600082815260076020908152604080832080546001909101546001600160a01b03908116855260098452828520911680855290835281842080548351818602810186019094528084529194939091908301828280156111d057602002820191906000526020600020905b8154815260200190600101908083116111bc575b5050505050905060005b815181101561131b57848282815181106111f6576111f6612606565b602002602001015114156113095760008581526007602090815260408083206001908101546001600160a01b03908116855260098452828520908816855290925290912083519091611247916125a8565b8154811061125757611257612606565b6000918252602080832090910154878352600782526040808420600101546001600160a01b03908116855260098452818520908816855290925291208054839081106112a5576112a5612606565b6000918252602080832090910192909255868152600782526040808220600101546001600160a01b039081168352600984528183209087168352909252208054806112f2576112f26125f0565b600190038181906000526020600020016000905590555b80611313816125bf565b9150506111da565b505050600082815260076020908152604080832080546001600160a01b0319166001600160a01b039586169081178255600191820154909516845260098352818420948452938252822080549384018155825290200155565b60025460405163d44da15f60e01b81526001600160a01b0380881660048301528792169063d44da15f9060240160206040518083038186803b1580156113b957600080fd5b505afa1580156113cd573d6000803e3d6000fd5b505050506040513d601f19601f820116820180604052508101906113f19190612299565b15156001146114125760405162461bcd60e51b815260040161054990612434565b6000546001600160a01b0316331461143c5760405162461bcd60e51b8152600401610549906123ff565b84841015801561144f5750620f42408411155b6114905760405162461bcd60e51b8152602060048201526012602482015271496e76616c696420706172616d657465727360701b6044820152606401610549565b506001600160a01b039094166000908152600a6020908152604080832095909555600b815284822093909355600c835283812091909155600d9091522055565b60025460405163d44da15f60e01b81526001600160a01b0380851660048301528492169063d44da15f9060240160206040518083038186803b15801561151557600080fd5b505afa158015611529573d6000803e3d6000fd5b505050506040513d601f19601f8201168201806040525081019061154d9190612299565b151560011461156e5760405162461bcd60e51b815260040161054990612434565b6001546001600160a01b031633146115c25760405162461bcd60e51b81526020600482015260176024820152762cb7ba9030b932903737ba1030b6b79036b0b730b3b2b960491b6044820152606401610549565b6001546115da9084906001600160a01b031684611ddd565b505050565b6000601254600014156115f25750600090565b6000600460009054906101000a90046001600160a01b03166001600160a01b0316630dbf67426040518163ffffffff1660e01b815260040160206040518083038186803b15801561164257600080fd5b505afa158015611656573d6000803e3d6000fd5b505050506040513d601f19601f8201168201806040525081019061167a91906122d4565b90506000601254600e548361168f9190612589565b6116999190612479565b9050620f42408111156116ac5750620f42405b92915050565b6001600160a01b0381166000908152600960209081526040808320338452825280832080548251818502810185019093528083526060949383018282801561171957602002820191906000526020600020905b815481526020019060010190808311611705575b505050505090506000815167ffffffffffffffff81111561173c5761173c61261c565b6040519080825280602002602001820160405280156117c157816020015b6117ae6040518060e0016040528060006001600160a01b0316815260200160006001600160a01b03168152602001600081526020016000815260200160008152602001600081526020016000151581525090565b81526020019060019003908161175a5790505b50905060005b825181101561189157600760008483815181106117e6576117e6612606565b6020908102919091018101518252818101929092526040908101600020815160e08101835281546001600160a01b039081168252600183015416938101939093526002810154918301919091526003810154606083015260048101546080830152600581015460a08301526006015460ff16151560c0820152825183908390811061187357611873612606565b60200260200101819052508080611889906125bf565b9150506117c7565b509392505050565b6000546001600160a01b031633146118c35760405162461bcd60e51b8152600401610549906123ff565b6001600160a01b0381166118e95760405162461bcd60e51b8152600401610549906123d0565b600180546001600160a01b0319166001600160a01b0392909216919091179055565b60025460405163d44da15f60e01b81526001600160a01b038084166004830152600092849291169063d44da15f9060240160206040518083038186803b15801561195457600080fd5b505afa158015611968573d6000803e3d6000fd5b505050506040513d601f19601f8201168201806040525081019061198c9190612299565b15156001146119ad5760405162461bcd60e51b815260040161054990612434565b50506001600160a01b03166000908152600f602052604090205490565b6000546001600160a01b031633146119f45760405162461bcd60e51b8152600401610549906123ff565b6001600160a01b038116611a1a5760405162461bcd60e51b8152600401610549906123d0565b600280546001600160a01b0319166001600160a01b0392909216919091179055565b6000546001600160a01b03163314611a665760405162461bcd60e51b8152600401610549906123ff565b6001600160a01b038116611acb5760405162461bcd60e51b815260206004820152602660248201527f4f776e61626c653a206e6577206f776e657220697320746865207a65726f206160448201526564647265737360d01b6064820152608401610549565b611ad481611d8d565b50565b6000546001600160a01b03163314611b015760405162461bcd60e51b8152600401610549906123ff565b6001600160a01b038116611b275760405162461bcd60e51b8152600401610549906123d0565b600380546001600160a01b0319166001600160a01b0392909216919091179055565b60025460405163d44da15f60e01b81526001600160a01b0380851660048301528492169063d44da15f9060240160206040518083038186803b158015611b8e57600080fd5b505afa158015611ba2573d6000803e3d6000fd5b505050506040513d601f19601f82011682018060405250810190611bc69190612299565b1515600114611be75760405162461bcd60e51b815260040161054990612434565b611bf2833384611ddd565b60405182815233906001600160a01b038516907f9b1bfa7fa9ee420a16e124f794c35ac9f90472acc99140eb2f6447c714cad8eb906020015b60405180910390a3505050565b6004805460405163052c5e1f60e51b81526001600160a01b038581169382019390935260248101849052911690819063a58bc3e090604401600060405180830381600087803b158015611c8a57600080fd5b505af1158015611c9e573d6000803e3d6000fd5b50505050505050565b60025460405163d44da15f60e01b81526001600160a01b0380851660048301528492169063d44da15f9060240160206040518083038186803b158015611cec57600080fd5b505afa158015611d00573d6000803e3d6000fd5b505050506040513d601f19601f82011682018060405250810190611d249190612299565b1515600114611d455760405162461bcd60e51b815260040161054990612434565b611d50833384611f22565b60405182815233906001600160a01b038516907f5548c837ab068cf56a2c2479df0882a4922fd203edb7517321831d95078c5f6290602001611c2b565b600080546001600160a01b038381166001600160a01b0319831681178455604051919092169283917f8be0079c531659141344cd1fd0a4f28419497f9722a3daafe3b4186f6b6457e09190a35050565b6000611de98430612136565b604080518481526001600160a01b03868116602083015287168183015290519192507fe4d818e6f992efbd60db553f3edce819a199baec79a784b95c89bc8ee86f2584919081900360600190a160405163a9059cbb60e01b81526001600160a01b0384811660048301526024820184905285169063a9059cbb90604401602060405180830381600087803b158015611e8057600080fd5b505af1158015611e94573d6000803e3d6000fd5b505050506040513d601f19601f82011682018060405250810190611eb89190612299565b508082611ec58630612136565b611ecf9190612461565b14611f1c5760405162461bcd60e51b815260206004820152601d60248201527f7265636976652077726f6e6720616d6f756e74206f6620746f6b656e730000006044820152606401610549565b50505050565b604051636eb1769f60e11b81526001600160a01b038084166004830152306024830152849184918491829185169063dd62ed3e9060440160206040518083038186803b158015611f7157600080fd5b505afa158015611f85573d6000803e3d6000fd5b505050506040513d601f19601f82011682018060405250810190611fa991906122d4565b1015611fe65760405162461bcd60e51b815260206004820152600c60248201526b6e6f20616c6c6f77616e636560a01b6044820152606401610549565b60008411611ff357600080fd5b6000611fff8730612136565b6040516323b872dd60e01b81526001600160a01b03888116600483015230602483015260448201889052919250908816906323b872dd90606401602060405180830381600087803b15801561205357600080fd5b505af1158015612067573d6000803e3d6000fd5b505050506040513d601f19601f8201168201806040525081019061208b9190612299565b50604080518681526001600160a01b03888116602083015289168183015290517f1fecf4702e692891a7c2f0d328779b085efb5edd094fa5558bd5cd147a1679229181900360600190a16120df8730612136565b6120e98683612461565b14611c9e5760405162461bcd60e51b815260206004820152601d60248201527f7265636976652077726f6e6720616d6f756e74206f6620746f6b656e730000006044820152606401610549565b6040516370a0823160e01b81526001600160a01b038281166004830152600091908416906370a082319060240160206040518083038186803b15801561217b57600080fd5b505afa15801561218f573d6000803e3d6000fd5b505050506040513d601f19601f820116820180604052508101906121b391906122d4565b9392505050565b6000602082840312156121cc57600080fd5b81356121b381612632565b6000602082840312156121e957600080fd5b81516121b381612632565b6000806040838503121561220757600080fd5b823561221281612632565b946020939093013593505050565b60008060006060848603121561223557600080fd5b833561224081612632565b95602085013595506040909401359392505050565b600080600080600060a0868803121561226d57600080fd5b853561227881612632565b97602087013597506040870135966060810135965060800135945092505050565b6000602082840312156122ab57600080fd5b815180151581146121b357600080fd5b6000602082840312156122cd57600080fd5b5035919050565b6000602082840312156122e657600080fd5b5051919050565b6000806040838503121561230057600080fd5b82359150602083013561231281612632565b809150509250929050565b60006020828403121561232f57600080fd5b815160ff811681146121b357600080fd5b602080825282518282018190526000919060409081850190868401855b828110156123c357815180516001600160a01b0390811686528782015116878601528581015186860152606080820151908601526080808201519086015260a0808201519086015260c09081015115159085015260e0909301929085019060010161235d565b5091979650505050505050565b60208082526015908201527416995c9bc81859191c995cdcc819195d1958dd1959605a1b604082015260600190565b6020808252818101527f4f776e61626c653a2063616c6c6572206973206e6f7420746865206f776e6572604082015260600190565b6020808252601390820152724173736574206e6f7420617661696c61626c6560681b604082015260600190565b60008219821115612474576124746125da565b500190565b60008261249657634e487b7160e01b600052601260045260246000fd5b500490565b600181815b808511156124d65781600019048211156124bc576124bc6125da565b808516156124c957918102915b93841c93908002906124a0565b509250929050565b60006121b360ff8416836000826124f7575060016116ac565b81612504575060006116ac565b816001811461251a576002811461252457612540565b60019150506116ac565b60ff841115612535576125356125da565b50506001821b6116ac565b5060208310610133831016604e8410600b8410161715612563575081810a6116ac565b61256d838361249b565b8060001904821115612581576125816125da565b029392505050565b60008160001904831182151516156125a3576125a36125da565b500290565b6000828210156125ba576125ba6125da565b500390565b60006000198214156125d3576125d36125da565b5060010190565b634e487b7160e01b600052601160045260246000fd5b634e487b7160e01b600052603160045260246000fd5b634e487b7160e01b600052603260045260246000fd5b634e487b7160e01b600052604160045260246000fd5b6001600160a01b0381168114611ad457600080fdfea2646970667358221220be4b56f8810f75bbc0cef346356294fd8ef115ed6369f5ea73b8235c1dd1cdf264736f6c6343000806003360806040523480156200001157600080fd5b50604051620018023803806200180283398101604081905262000034916200016b565b604080518082018252600b81526a11151a58dad95d0b53919560aa1b60208083019182528351808501909452600684526511150b53919560d21b9084015281519192916200008591600091620000c5565b5080516200009b906001906020840190620000c5565b5050600680546001600160a01b0319166001600160a01b03939093169290921790915550620001da565b828054620000d3906200019d565b90600052602060002090601f016020900481019282620000f7576000855562000142565b82601f106200011257805160ff191683800117855562000142565b8280016001018555821562000142579182015b828111156200014257825182559160200191906001019062000125565b506200015092915062000154565b5090565b5b8082111562000150576000815560010162000155565b6000602082840312156200017e57600080fd5b81516001600160a01b03811681146200019657600080fd5b9392505050565b600181811c90821680620001b257607f821691505b60208210811415620001d457634e487b7160e01b600052602260045260246000fd5b50919050565b61161880620001ea6000396000f3fe608060405234801561001057600080fd5b50600436106101005760003560e01c806379c6506811610097578063b88d4fde11610066578063b88d4fde1461021d578063c87b56dd14610230578063d1df306c14610243578063e985e9c51461025657600080fd5b806379c65068146101dc57806395d89b41146101ef578063a22cb465146101f7578063a9059cbb1461020a57600080fd5b806323b872dd116100d357806323b872dd1461018257806342842e0e146101955780636352211e146101a857806370a08231146101bb57600080fd5b806301ffc9a71461010557806306fdde031461012d578063081812fc14610142578063095ea7b31461016d575b600080fd5b6101186101133660046112f7565b610292565b60405190151581526020015b60405180910390f35b6101356102e4565b60405161012491906113e2565b610155610150366004611331565b610376565b6040516001600160a01b039091168152602001610124565b61018061017b3660046112cd565b610410565b005b610180610190366004611179565b610526565b6101806101a3366004611179565b610557565b6101556101b6366004611331565b610572565b6101ce6101c936600461112b565b6105e9565b604051908152602001610124565b6101806101ea3660046112cd565b610670565b6101356106c4565b610180610205366004611291565b6106d3565b6101806102183660046112cd565b6106de565b61018061022b3660046111b5565b610753565b61013561023e366004611331565b61078b565b6101806102513660046112cd565b610873565b610118610264366004611146565b6001600160a01b03918216600090815260056020908152604080832093909416825291909152205460ff1690565b60006001600160e01b031982166380ac58cd60e01b14806102c357506001600160e01b03198216635b5e139f60e01b145b806102de57506301ffc9a760e01b6001600160e01b03198316145b92915050565b6060600080546102f390611507565b80601f016020809104026020016040519081016040528092919081815260200182805461031f90611507565b801561036c5780601f106103415761010080835404028352916020019161036c565b820191906000526020600020905b81548152906001019060200180831161034f57829003601f168201915b5050505050905090565b6000818152600260205260408120546001600160a01b03166103f45760405162461bcd60e51b815260206004820152602c60248201527f4552433732313a20617070726f76656420717565727920666f72206e6f6e657860448201526b34b9ba32b73a103a37b5b2b760a11b60648201526084015b60405180910390fd5b506000908152600460205260409020546001600160a01b031690565b600061041b82610572565b9050806001600160a01b0316836001600160a01b031614156104895760405162461bcd60e51b815260206004820152602160248201527f4552433732313a20617070726f76616c20746f2063757272656e74206f776e656044820152603960f91b60648201526084016103eb565b336001600160a01b03821614806104a557506104a58133610264565b6105175760405162461bcd60e51b815260206004820152603860248201527f4552433732313a20617070726f76652063616c6c6572206973206e6f74206f7760448201527f6e6572206e6f7220617070726f76656420666f7220616c6c000000000000000060648201526084016103eb565b6105218383610924565b505050565b6105303382610992565b61054c5760405162461bcd60e51b81526004016103eb90611447565b610521838383610a89565b61052183838360405180602001604052806000815250610753565b6000818152600260205260408120546001600160a01b0316806102de5760405162461bcd60e51b815260206004820152602960248201527f4552433732313a206f776e657220717565727920666f72206e6f6e657869737460448201526832b73a103a37b5b2b760b91b60648201526084016103eb565b60006001600160a01b0382166106545760405162461bcd60e51b815260206004820152602a60248201527f4552433732313a2062616c616e636520717565727920666f7220746865207a65604482015269726f206164647265737360b01b60648201526084016103eb565b506001600160a01b031660009081526003602052604090205490565b6006546001600160a01b031633146106b65760405162461bcd60e51b81526020600482015260096024820152681bdb9b1e48141bdbdb60ba1b60448201526064016103eb565b6106c08282610c25565b5050565b6060600180546102f390611507565b6106c0338383610d67565b6106e9338383610a89565b60065460405163439fe4cb60e11b8152600481018390526001600160a01b0384811660248301529091169063873fc99690604401600060405180830381600087803b15801561073757600080fd5b505af115801561074b573d6000803e3d6000fd5b505050505050565b61075d3383610992565b6107795760405162461bcd60e51b81526004016103eb90611447565b61078584848484610e36565b50505050565b6000818152600260205260409020546060906001600160a01b031661080a5760405162461bcd60e51b815260206004820152602f60248201527f4552433732314d657461646174613a2055524920717565727920666f72206e6f60448201526e3732bc34b9ba32b73a103a37b5b2b760891b60648201526084016103eb565b600061082160408051602081019091526000815290565b90506000815111610841576040518060200160405280600081525061086c565b8061084b84610e69565b60405160200161085c929190611376565b6040516020818303038152906040525b9392505050565b6006546001600160a01b031633146108b95760405162461bcd60e51b81526020600482015260096024820152681bdb9b1e48141bdbdb60ba1b60448201526064016103eb565b81816108c481610572565b6001600160a01b0316826001600160a01b03161461091b5760405162461bcd60e51b8152602060048201526014602482015273546865204e4654206973206e6f7420796f75727360601b60448201526064016103eb565b61078583610f67565b600081815260046020526040902080546001600160a01b0319166001600160a01b038416908117909155819061095982610572565b6001600160a01b03167f8c5be1e5ebec7d5bd14f71427d1e84f3dd0314c0f7b2291e5b200ac8c7c3b92560405160405180910390a45050565b6000818152600260205260408120546001600160a01b0316610a0b5760405162461bcd60e51b815260206004820152602c60248201527f4552433732313a206f70657261746f7220717565727920666f72206e6f6e657860448201526b34b9ba32b73a103a37b5b2b760a11b60648201526084016103eb565b6000610a1683610572565b9050806001600160a01b0316846001600160a01b03161480610a515750836001600160a01b0316610a4684610376565b6001600160a01b0316145b80610a8157506001600160a01b0380821660009081526005602090815260408083209388168352929052205460ff165b949350505050565b826001600160a01b0316610a9c82610572565b6001600160a01b031614610b005760405162461bcd60e51b815260206004820152602560248201527f4552433732313a207472616e736665722066726f6d20696e636f72726563742060448201526437bbb732b960d91b60648201526084016103eb565b6001600160a01b038216610b625760405162461bcd60e51b8152602060048201526024808201527f4552433732313a207472616e7366657220746f20746865207a65726f206164646044820152637265737360e01b60648201526084016103eb565b610b6d600082610924565b6001600160a01b0383166000908152600360205260408120805460019290610b969084906114c4565b90915550506001600160a01b0382166000908152600360205260408120805460019290610bc4908490611498565b909155505060008181526002602052604080822080546001600160a01b0319166001600160a01b0386811691821790925591518493918716917fddf252ad1be2c89b69c2b068fc378daa952ba7f163c4a11628f55a4df523b3ef91a4505050565b6001600160a01b038216610c7b5760405162461bcd60e51b815260206004820181905260248201527f4552433732313a206d696e7420746f20746865207a65726f206164647265737360448201526064016103eb565b6000818152600260205260409020546001600160a01b031615610ce05760405162461bcd60e51b815260206004820152601c60248201527f4552433732313a20746f6b656e20616c7265616479206d696e7465640000000060448201526064016103eb565b6001600160a01b0382166000908152600360205260408120805460019290610d09908490611498565b909155505060008181526002602052604080822080546001600160a01b0319166001600160a01b03861690811790915590518392907fddf252ad1be2c89b69c2b068fc378daa952ba7f163c4a11628f55a4df523b3ef908290a45050565b816001600160a01b0316836001600160a01b03161415610dc95760405162461bcd60e51b815260206004820152601960248201527f4552433732313a20617070726f766520746f2063616c6c65720000000000000060448201526064016103eb565b6001600160a01b03838116600081815260056020908152604080832094871680845294825291829020805460ff191686151590811790915591519182527f17307eab39ab6107e8899845ad3d59bd9653f200f220920489ca2b5937696c31910160405180910390a3505050565b610e41848484610a89565b610e4d84848484611002565b6107855760405162461bcd60e51b81526004016103eb906113f5565b606081610e8d5750506040805180820190915260018152600360fc1b602082015290565b8160005b8115610eb75780610ea181611542565b9150610eb09050600a836114b0565b9150610e91565b60008167ffffffffffffffff811115610ed257610ed26115b3565b6040519080825280601f01601f191660200182016040528015610efc576020820181803683370190505b5090505b8415610a8157610f116001836114c4565b9150610f1e600a8661155d565b610f29906030611498565b60f81b818381518110610f3e57610f3e61159d565b60200101906001600160f81b031916908160001a905350610f60600a866114b0565b9450610f00565b6000610f7282610572565b9050610f7f600083610924565b6001600160a01b0381166000908152600360205260408120805460019290610fa89084906114c4565b909155505060008281526002602052604080822080546001600160a01b0319169055518391906001600160a01b038416907fddf252ad1be2c89b69c2b068fc378daa952ba7f163c4a11628f55a4df523b3ef908390a45050565b60006001600160a01b0384163b1561110457604051630a85bd0160e11b81526001600160a01b0385169063150b7a02906110469033908990889088906004016113a5565b602060405180830381600087803b15801561106057600080fd5b505af1925050508015611090575060408051601f3d908101601f1916820190925261108d91810190611314565b60015b6110ea573d8080156110be576040519150601f19603f3d011682016040523d82523d6000602084013e6110c3565b606091505b5080516110e25760405162461bcd60e51b81526004016103eb906113f5565b805181602001fd5b6001600160e01b031916630a85bd0160e11b149050610a81565b506001949350505050565b80356001600160a01b038116811461112657600080fd5b919050565b60006020828403121561113d57600080fd5b61086c8261110f565b6000806040838503121561115957600080fd5b6111628361110f565b91506111706020840161110f565b90509250929050565b60008060006060848603121561118e57600080fd5b6111978461110f565b92506111a56020850161110f565b9150604084013590509250925092565b600080600080608085870312156111cb57600080fd5b6111d48561110f565b93506111e26020860161110f565b925060408501359150606085013567ffffffffffffffff8082111561120657600080fd5b818701915087601f83011261121a57600080fd5b81358181111561122c5761122c6115b3565b604051601f8201601f19908116603f01168101908382118183101715611254576112546115b3565b816040528281528a602084870101111561126d57600080fd5b82602086016020830137600060208483010152809550505050505092959194509250565b600080604083850312156112a457600080fd5b6112ad8361110f565b9150602083013580151581146112c257600080fd5b809150509250929050565b600080604083850312156112e057600080fd5b6112e98361110f565b946020939093013593505050565b60006020828403121561130957600080fd5b813561086c816115c9565b60006020828403121561132657600080fd5b815161086c816115c9565b60006020828403121561134357600080fd5b5035919050565b600081518084526113628160208601602086016114db565b601f01601f19169290920160200192915050565b600083516113888184602088016114db565b83519083019061139c8183602088016114db565b01949350505050565b6001600160a01b03858116825284166020820152604081018390526080606082018190526000906113d89083018461134a565b9695505050505050565b60208152600061086c602083018461134a565b60208082526032908201527f4552433732313a207472616e7366657220746f206e6f6e20455243373231526560408201527131b2b4bb32b91034b6b83632b6b2b73a32b960711b606082015260800190565b60208082526031908201527f4552433732313a207472616e736665722063616c6c6572206973206e6f74206f6040820152701ddb995c881b9bdc88185c1c1c9bdd9959607a1b606082015260800190565b600082198211156114ab576114ab611571565b500190565b6000826114bf576114bf611587565b500490565b6000828210156114d6576114d6611571565b500390565b60005b838110156114f65781810151838201526020016114de565b838111156107855750506000910152565b600181811c9082168061151b57607f821691505b6020821081141561153c57634e487b7160e01b600052602260045260246000fd5b50919050565b600060001982141561155657611556611571565b5060010190565b60008261156c5761156c611587565b500690565b634e487b7160e01b600052601160045260246000fd5b634e487b7160e01b600052601260045260246000fd5b634e487b7160e01b600052603260045260246000fd5b634e487b7160e01b600052604160045260246000fd5b6001600160e01b0319811681146115df57600080fd5b5056fea2646970667358221220ffde3bb9216b1dfd22f246fbc5c2a3c8d9ba609b6e6801107b783f73f38c8b2864736f6c63430008060033",
  "linkReferences": {},
  "deployedLinkReferences": {}
}