{
  "_format": "hh-sol-artifact-1",
  "contractName": "Depos",
  "sourceName": "contracts/Depos.sol",
  "abi": [
    {
      "inputs": [
        {
          "internalType": "uint256",
          "name": "initialSupply",
          "type": "uint256"
        },
        {
          "internalType": "address",
          "name": "_oracle_address",
          "type": "address"
        }
      ],
      "stateMutability": "nonpayable",
      "type": "constructor"
    },
    {
      "anonymous": false,
      "inputs": [
        {
          "indexed": true,
          "internalType": "address",
          "name": "owner",
          "type": "address"
        },
        {
          "indexed": true,
          "internalType": "address",
          "name": "spender",
          "type": "address"
        },
        {
          "indexed": false,
          "internalType": "uint256",
          "name": "value",
          "type": "uint256"
        }
      ],
      "name": "Approval",
      "type": "event"
    },
    {
      "anonymous": false,
      "inputs": [
        {
          "indexed": true,
          "internalType": "address",
          "name": "from",
          "type": "address"
        },
        {
          "indexed": true,
          "internalType": "address",
          "name": "to",
          "type": "address"
        },
        {
          "indexed": false,
          "internalType": "uint256",
          "name": "amount",
          "type": "uint256"
        }
      ],
      "name": "DEPOSBurned",
      "type": "event"
    },
    {
      "anonymous": false,
      "inputs": [
        {
          "indexed": true,
          "internalType": "address",
          "name": "from",
          "type": "address"
        },
        {
          "indexed": true,
          "internalType": "address",
          "name": "to",
          "type": "address"
        },
        {
          "indexed": false,
          "internalType": "uint256",
          "name": "amount",
          "type": "uint256"
        }
      ],
      "name": "DEPOSMinted",
      "type": "event"
    },
    {
      "anonymous": false,
      "inputs": [
        {
          "indexed": true,
          "internalType": "address",
          "name": "previousOwner",
          "type": "address"
        },
        {
          "indexed": true,
          "internalType": "address",
          "name": "newOwner",
          "type": "address"
        }
      ],
      "name": "OwnershipTransferred",
      "type": "event"
    },
    {
      "anonymous": false,
      "inputs": [
        {
          "indexed": true,
          "internalType": "address",
          "name": "from",
          "type": "address"
        },
        {
          "indexed": true,
          "internalType": "address",
          "name": "to",
          "type": "address"
        },
        {
          "indexed": false,
          "internalType": "uint256",
          "name": "value",
          "type": "uint256"
        }
      ],
      "name": "Transfer",
      "type": "event"
    },
    {
      "inputs": [
        {
          "internalType": "address",
          "name": "owner",
          "type": "address"
        },
        {
          "internalType": "address",
          "name": "spender",
          "type": "address"
        }
      ],
      "name": "allowance",
      "outputs": [
        {
          "internalType": "uint256",
          "name": "",
          "type": "uint256"
        }
      ],
      "stateMutability": "view",
      "type": "function"
    },
    {
      "inputs": [
        {
          "internalType": "address",
          "name": "spender",
          "type": "address"
        },
        {
          "internalType": "uint256",
          "name": "amount",
          "type": "uint256"
        }
      ],
      "name": "approve",
      "outputs": [
        {
          "internalType": "bool",
          "name": "",
          "type": "bool"
        }
      ],
      "stateMutability": "nonpayable",
      "type": "function"
    },
    {
      "inputs": [
        {
          "internalType": "address",
          "name": "account",
          "type": "address"
        }
      ],
      "name": "balanceOf",
      "outputs": [
        {
          "internalType": "uint256",
          "name": "",
          "type": "uint256"
        }
      ],
      "stateMutability": "view",
      "type": "function"
    },
    {
      "inputs": [],
      "name": "buyback_vault_address",
      "outputs": [
        {
          "internalType": "address",
          "name": "",
          "type": "address"
        }
      ],
      "stateMutability": "view",
      "type": "function"
    },
    {
      "inputs": [],
      "name": "decimals",
      "outputs": [
        {
          "internalType": "uint8",
          "name": "",
          "type": "uint8"
        }
      ],
      "stateMutability": "view",
      "type": "function"
    },
    {
      "inputs": [
        {
          "internalType": "address",
          "name": "spender",
          "type": "address"
        },
        {
          "internalType": "uint256",
          "name": "subtractedValue",
          "type": "uint256"
        }
      ],
      "name": "decreaseAllowance",
      "outputs": [
        {
          "internalType": "bool",
          "name": "",
          "type": "bool"
        }
      ],
      "stateMutability": "nonpayable",
      "type": "function"
    },
    {
      "inputs": [
        {
          "internalType": "address",
          "name": "spender",
          "type": "address"
        },
        {
          "internalType": "uint256",
          "name": "addedValue",
          "type": "uint256"
        }
      ],
      "name": "increaseAllowance",
      "outputs": [
        {
          "internalType": "bool",
          "name": "",
          "type": "bool"
        }
      ],
      "stateMutability": "nonpayable",
      "type": "function"
    },
    {
      "inputs": [
        {
          "internalType": "address",
          "name": "to",
          "type": "address"
        },
        {
          "internalType": "uint256",
          "name": "amount",
          "type": "uint256"
        }
      ],
      "name": "mint",
      "outputs": [],
      "stateMutability": "nonpayable",
      "type": "function"
    },
    {
      "inputs": [],
      "name": "name",
      "outputs": [
        {
          "internalType": "string",
          "name": "",
          "type": "string"
        }
      ],
      "stateMutability": "view",
      "type": "function"
    },
    {
      "inputs": [],
      "name": "oracle_address",
      "outputs": [
        {
          "internalType": "address",
          "name": "",
          "type": "address"
        }
      ],
      "stateMutability": "view",
      "type": "function"
    },
    {
      "inputs": [],
      "name": "owner",
      "outputs": [
        {
          "internalType": "address",
          "name": "",
          "type": "address"
        }
      ],
      "stateMutability": "view",
      "type": "function"
    },
    {
      "inputs": [],
      "name": "pool_address",
      "outputs": [
        {
          "internalType": "address",
          "name": "",
          "type": "address"
        }
      ],
      "stateMutability": "view",
      "type": "function"
    },
    {
      "inputs": [
        {
          "internalType": "address",
          "name": "burn_address",
          "type": "address"
        },
        {
          "internalType": "uint256",
          "name": "amount",
          "type": "uint256"
        }
      ],
      "name": "pool_burn_from",
      "outputs": [],
      "stateMutability": "nonpayable",
      "type": "function"
    },
    {
      "inputs": [
        {
          "internalType": "address",
          "name": "mint_address",
          "type": "address"
        },
        {
          "internalType": "uint256",
          "name": "amount",
          "type": "uint256"
        }
      ],
      "name": "pool_mint",
      "outputs": [],
      "stateMutability": "nonpayable",
      "type": "function"
    },
    {
      "inputs": [],
      "name": "renounceOwnership",
      "outputs": [],
      "stateMutability": "nonpayable",
      "type": "function"
    },
    {
      "inputs": [
        {
          "internalType": "address",
          "name": "new_buyback_vault",
          "type": "address"
        }
      ],
      "name": "setBuybackVaultAddress",
      "outputs": [],
      "stateMutability": "nonpayable",
      "type": "function"
    },
    {
      "inputs": [
        {
          "internalType": "address",
          "name": "new_oracle",
          "type": "address"
        }
      ],
      "name": "setOracle",
      "outputs": [],
      "stateMutability": "nonpayable",
      "type": "function"
    },
    {
      "inputs": [
        {
          "internalType": "address",
          "name": "new_pool",
          "type": "address"
        }
      ],
      "name": "setPoolAddress",
      "outputs": [],
      "stateMutability": "nonpayable",
      "type": "function"
    },
    {
      "inputs": [],
      "name": "symbol",
      "outputs": [
        {
          "internalType": "string",
          "name": "",
          "type": "string"
        }
      ],
      "stateMutability": "view",
      "type": "function"
    },
    {
      "inputs": [],
      "name": "totalSupply",
      "outputs": [
        {
          "internalType": "uint256",
          "name": "",
          "type": "uint256"
        }
      ],
      "stateMutability": "view",
      "type": "function"
    },
    {
      "inputs": [
        {
          "internalType": "address",
          "name": "to",
          "type": "address"
        },
        {
          "internalType": "uint256",
          "name": "amount",
          "type": "uint256"
        }
      ],
      "name": "transfer",
      "outputs": [
        {
          "internalType": "bool",
          "name": "",
          "type": "bool"
        }
      ],
      "stateMutability": "nonpayable",
      "type": "function"
    },
    {
      "inputs": [
        {
          "internalType": "address",
          "name": "from",
          "type": "address"
        },
        {
          "internalType": "address",
          "name": "to",
          "type": "address"
        },
        {
          "internalType": "uint256",
          "name": "amount",
          "type": "uint256"
        }
      ],
      "name": "transferFrom",
      "outputs": [
        {
          "internalType": "bool",
          "name": "",
          "type": "bool"
        }
      ],
      "stateMutability": "nonpayable",
      "type": "function"
    },
    {
      "inputs": [
        {
          "internalType": "address",
          "name": "newOwner",
          "type": "address"
        }
      ],
      "name": "transferOwnership",
      "outputs": [],
      "stateMutability": "nonpayable",
      "type": "function"
    }
  ],
  "bytecode": "0x60806040523480156200001157600080fd5b5060405162002db138038062002db18339818101604052810190620000379190620004f4565b6040518060400160405280600581526020017f4465706f730000000000000000000000000000000000000000000000000000008152506040518060400160405280600581526020017f4445504f530000000000000000000000000000000000000000000000000000008152508160039080519060200190620000bb92919062000416565b508060049080519060200190620000d492919062000416565b505050620000f7620000eb620001c560201b60201c565b620001cd60201b60201c565b600073ffffffffffffffffffffffffffffffffffffffff168173ffffffffffffffffffffffffffffffffffffffff1614156200016a576040517f08c379a000000000000000000000000000000000000000000000000000000000815260040162000161906200059a565b60405180910390fd5b6200017c33836200029360201b60201c565b80600860006101000a81548173ffffffffffffffffffffffffffffffffffffffff021916908373ffffffffffffffffffffffffffffffffffffffff1602179055505050620007c6565b600033905090565b6000600560009054906101000a900473ffffffffffffffffffffffffffffffffffffffff16905081600560006101000a81548173ffffffffffffffffffffffffffffffffffffffff021916908373ffffffffffffffffffffffffffffffffffffffff1602179055508173ffffffffffffffffffffffffffffffffffffffff168173ffffffffffffffffffffffffffffffffffffffff167f8be0079c531659141344cd1fd0a4f28419497f9722a3daafe3b4186f6b6457e060405160405180910390a35050565b600073ffffffffffffffffffffffffffffffffffffffff168273ffffffffffffffffffffffffffffffffffffffff16141562000306576040517f08c379a0000000000000000000000000000000000000000000000000000000008152600401620002fd90620005bc565b60405180910390fd5b6200031a600083836200040c60201b60201c565b80600260008282546200032e91906200060c565b92505081905550806000808473ffffffffffffffffffffffffffffffffffffffff1673ffffffffffffffffffffffffffffffffffffffff16815260200190815260200160002060008282546200038591906200060c565b925050819055508173ffffffffffffffffffffffffffffffffffffffff16600073ffffffffffffffffffffffffffffffffffffffff167fddf252ad1be2c89b69c2b068fc378daa952ba7f163c4a11628f55a4df523b3ef83604051620003ec9190620005de565b60405180910390a362000408600083836200041160201b60201c565b5050565b505050565b505050565b8280546200042490620006a7565b90600052602060002090601f01602090048101928262000448576000855562000494565b82601f106200046357805160ff191683800117855562000494565b8280016001018555821562000494579182015b828111156200049357825182559160200191906001019062000476565b5b509050620004a39190620004a7565b5090565b5b80821115620004c2576000816000905550600101620004a8565b5090565b600081519050620004d78162000792565b92915050565b600081519050620004ee81620007ac565b92915050565b600080604083850312156200050e576200050d6200073b565b5b60006200051e85828601620004dd565b92505060206200053185828601620004c6565b9150509250929050565b60006200054a601583620005fb565b9150620005578262000740565b602082019050919050565b600062000571601f83620005fb565b91506200057e8262000769565b602082019050919050565b62000594816200069d565b82525050565b60006020820190508181036000830152620005b5816200053b565b9050919050565b60006020820190508181036000830152620005d78162000562565b9050919050565b6000602082019050620005f5600083018462000589565b92915050565b600082825260208201905092915050565b600062000619826200069d565b915062000626836200069d565b9250827fffffffffffffffffffffffffffffffffffffffffffffffffffffffffffffffff038211156200065e576200065d620006dd565b5b828201905092915050565b600062000676826200067d565b9050919050565b600073ffffffffffffffffffffffffffffffffffffffff82169050919050565b6000819050919050565b60006002820490506001821680620006c057607f821691505b60208210811415620006d757620006d66200070c565b5b50919050565b7f4e487b7100000000000000000000000000000000000000000000000000000000600052601160045260246000fd5b7f4e487b7100000000000000000000000000000000000000000000000000000000600052602260045260246000fd5b600080fd5b7f5a65726f20616464726573732064657465637465640000000000000000000000600082015250565b7f45524332303a206d696e7420746f20746865207a65726f206164647265737300600082015250565b6200079d8162000669565b8114620007a957600080fd5b50565b620007b7816200069d565b8114620007c357600080fd5b50565b6125db80620007d66000396000f3fe608060405234801561001057600080fd5b506004361061014d5760003560e01c80637e0c1792116100c3578063abc4f3a21161007c578063abc4f3a2146103a2578063b4f56b26146103be578063b8d49887146103da578063dd62ed3e146103f8578063e9e15b4f14610428578063f2fde38b146104445761014d565b80637e0c1792146102cc5780638da5cb5b146102ea57806395d89b4114610308578063a457c2d714610326578063a8a778ae14610356578063a9059cbb146103725761014d565b80633950935111610115578063395093511461020c57806340c10f191461023c5780634755abbb1461025857806370a0823114610276578063715018a6146102a65780637adbf973146102b05761014d565b806306fdde0314610152578063095ea7b31461017057806318160ddd146101a057806323b872dd146101be578063313ce567146101ee575b600080fd5b61015a610460565b6040516101679190611d88565b60405180910390f35b61018a60048036038101906101859190611a90565b6104f2565b6040516101979190611d6d565b60405180910390f35b6101a8610515565b6040516101b59190611f8a565b60405180910390f35b6101d860048036038101906101d39190611a3d565b61051f565b6040516101e59190611d6d565b60405180910390f35b6101f661054e565b6040516102039190611fa5565b60405180910390f35b61022660048036038101906102219190611a90565b610557565b6040516102339190611d6d565b60405180910390f35b61025660048036038101906102519190611a90565b610601565b005b61026061069f565b60405161026d9190611d52565b60405180910390f35b610290600480360381019061028b91906119d0565b6106c5565b60405161029d9190611f8a565b60405180910390f35b6102ae61070d565b005b6102ca60048036038101906102c591906119d0565b610795565b005b6102d46108c5565b6040516102e19190611d52565b60405180910390f35b6102f26108eb565b6040516102ff9190611d52565b60405180910390f35b610310610915565b60405161031d9190611d88565b60405180910390f35b610340600480360381019061033b9190611a90565b6109a7565b60405161034d9190611d6d565b60405180910390f35b610370600480360381019061036b9190611a90565b610a91565b005b61038c60048036038101906103879190611a90565b610b94565b6040516103999190611d6d565b60405180910390f35b6103bc60048036038101906103b791906119d0565b610bb7565b005b6103d860048036038101906103d39190611a90565b610ce7565b005b6103e2610dea565b6040516103ef9190611d52565b60405180910390f35b610412600480360381019061040d91906119fd565b610e10565b60405161041f9190611f8a565b60405180910390f35b610442600480360381019061043d91906119d0565b610e97565b005b61045e600480360381019061045991906119d0565b610fc7565b005b60606003805461046f906120ee565b80601f016020809104026020016040519081016040528092919081815260200182805461049b906120ee565b80156104e85780601f106104bd576101008083540402835291602001916104e8565b820191906000526020600020905b8154815290600101906020018083116104cb57829003601f168201915b5050505050905090565b6000806104fd6110bf565b905061050a8185856110c7565b600191505092915050565b6000600254905090565b60008061052a6110bf565b9050610537858285611292565b61054285858561131e565b60019150509392505050565b60006012905090565b6000806105626110bf565b90506105f6818585600160008673ffffffffffffffffffffffffffffffffffffffff1673ffffffffffffffffffffffffffffffffffffffff16815260200190815260200160002060008973ffffffffffffffffffffffffffffffffffffffff1673ffffffffffffffffffffffffffffffffffffffff168152602001908152602001600020546105f19190611fdc565b6110c7565b600191505092915050565b600660009054906101000a900473ffffffffffffffffffffffffffffffffffffffff1673ffffffffffffffffffffffffffffffffffffffff163373ffffffffffffffffffffffffffffffffffffffff1614610691576040517f08c379a000000000000000000000000000000000000000000000000000000000815260040161068890611e8a565b60405180910390fd5b61069b828261159f565b5050565b600660009054906101000a900473ffffffffffffffffffffffffffffffffffffffff1681565b60008060008373ffffffffffffffffffffffffffffffffffffffff1673ffffffffffffffffffffffffffffffffffffffff168152602001908152602001600020549050919050565b6107156110bf565b73ffffffffffffffffffffffffffffffffffffffff166107336108eb565b73ffffffffffffffffffffffffffffffffffffffff1614610789576040517f08c379a000000000000000000000000000000000000000000000000000000000815260040161078090611eaa565b60405180910390fd5b61079360006116ff565b565b61079d6110bf565b73ffffffffffffffffffffffffffffffffffffffff166107bb6108eb565b73ffffffffffffffffffffffffffffffffffffffff1614610811576040517f08c379a000000000000000000000000000000000000000000000000000000000815260040161080890611eaa565b60405180910390fd5b600073ffffffffffffffffffffffffffffffffffffffff168173ffffffffffffffffffffffffffffffffffffffff161415610881576040517f08c379a000000000000000000000000000000000000000000000000000000000815260040161087890611e2a565b60405180910390fd5b80600860006101000a81548173ffffffffffffffffffffffffffffffffffffffff021916908373ffffffffffffffffffffffffffffffffffffffff16021790555050565b600860009054906101000a900473ffffffffffffffffffffffffffffffffffffffff1681565b6000600560009054906101000a900473ffffffffffffffffffffffffffffffffffffffff16905090565b606060048054610924906120ee565b80601f0160208091040260200160405190810160405280929190818152602001828054610950906120ee565b801561099d5780601f106109725761010080835404028352916020019161099d565b820191906000526020600020905b81548152906001019060200180831161098057829003601f168201915b5050505050905090565b6000806109b26110bf565b90506000600160008373ffffffffffffffffffffffffffffffffffffffff1673ffffffffffffffffffffffffffffffffffffffff16815260200190815260200160002060008673ffffffffffffffffffffffffffffffffffffffff1673ffffffffffffffffffffffffffffffffffffffff16815260200190815260200160002054905083811015610a78576040517f08c379a0000000000000000000000000000000000000000000000000000000008152600401610a6f90611f4a565b60405180910390fd5b610a8582868684036110c7565b60019250505092915050565b600760009054906101000a900473ffffffffffffffffffffffffffffffffffffffff1673ffffffffffffffffffffffffffffffffffffffff163373ffffffffffffffffffffffffffffffffffffffff1614610b21576040517f08c379a0000000000000000000000000000000000000000000000000000000008152600401610b1890611eca565b60405180910390fd5b610b2b82826117c5565b3073ffffffffffffffffffffffffffffffffffffffff168273ffffffffffffffffffffffffffffffffffffffff167fa312dc53498219c0f682a9f39416cbc8f5c824404e81b05db2862365f4f9ed2683604051610b889190611f8a565b60405180910390a35050565b600080610b9f6110bf565b9050610bac81858561131e565b600191505092915050565b610bbf6110bf565b73ffffffffffffffffffffffffffffffffffffffff16610bdd6108eb565b73ffffffffffffffffffffffffffffffffffffffff1614610c33576040517f08c379a0000000000000000000000000000000000000000000000000000000008152600401610c2a90611eaa565b60405180910390fd5b600073ffffffffffffffffffffffffffffffffffffffff168173ffffffffffffffffffffffffffffffffffffffff161415610ca3576040517f08c379a0000000000000000000000000000000000000000000000000000000008152600401610c9a90611e2a565b60405180910390fd5b80600860006101000a81548173ffffffffffffffffffffffffffffffffffffffff021916908373ffffffffffffffffffffffffffffffffffffffff16021790555050565b600660009054906101000a900473ffffffffffffffffffffffffffffffffffffffff1673ffffffffffffffffffffffffffffffffffffffff163373ffffffffffffffffffffffffffffffffffffffff1614610d77576040517f08c379a0000000000000000000000000000000000000000000000000000000008152600401610d6e90611e8a565b60405180910390fd5b610d81828261159f565b8173ffffffffffffffffffffffffffffffffffffffff163073ffffffffffffffffffffffffffffffffffffffff167f1943a037eb8096b8657c0eeaa1409b6d6e15d58c2cfd45c9b215f4717431897f83604051610dde9190611f8a565b60405180910390a35050565b600760009054906101000a900473ffffffffffffffffffffffffffffffffffffffff1681565b6000600160008473ffffffffffffffffffffffffffffffffffffffff1673ffffffffffffffffffffffffffffffffffffffff16815260200190815260200160002060008373ffffffffffffffffffffffffffffffffffffffff1673ffffffffffffffffffffffffffffffffffffffff16815260200190815260200160002054905092915050565b610e9f6110bf565b73ffffffffffffffffffffffffffffffffffffffff16610ebd6108eb565b73ffffffffffffffffffffffffffffffffffffffff1614610f13576040517f08c379a0000000000000000000000000000000000000000000000000000000008152600401610f0a90611eaa565b60405180910390fd5b600073ffffffffffffffffffffffffffffffffffffffff168173ffffffffffffffffffffffffffffffffffffffff161415610f83576040517f08c379a0000000000000000000000000000000000000000000000000000000008152600401610f7a90611e2a565b60405180910390fd5b80600660006101000a81548173ffffffffffffffffffffffffffffffffffffffff021916908373ffffffffffffffffffffffffffffffffffffffff16021790555050565b610fcf6110bf565b73ffffffffffffffffffffffffffffffffffffffff16610fed6108eb565b73ffffffffffffffffffffffffffffffffffffffff1614611043576040517f08c379a000000000000000000000000000000000000000000000000000000000815260040161103a90611eaa565b60405180910390fd5b600073ffffffffffffffffffffffffffffffffffffffff168173ffffffffffffffffffffffffffffffffffffffff1614156110b3576040517f08c379a00000000000000000000000000000000000000000000000000000000081526004016110aa90611dea565b60405180910390fd5b6110bc816116ff565b50565b600033905090565b600073ffffffffffffffffffffffffffffffffffffffff168373ffffffffffffffffffffffffffffffffffffffff161415611137576040517f08c379a000000000000000000000000000000000000000000000000000000000815260040161112e90611f2a565b60405180910390fd5b600073ffffffffffffffffffffffffffffffffffffffff168273ffffffffffffffffffffffffffffffffffffffff1614156111a7576040517f08c379a000000000000000000000000000000000000000000000000000000000815260040161119e90611e0a565b60405180910390fd5b80600160008573ffffffffffffffffffffffffffffffffffffffff1673ffffffffffffffffffffffffffffffffffffffff16815260200190815260200160002060008473ffffffffffffffffffffffffffffffffffffffff1673ffffffffffffffffffffffffffffffffffffffff168152602001908152602001600020819055508173ffffffffffffffffffffffffffffffffffffffff168373ffffffffffffffffffffffffffffffffffffffff167f8c5be1e5ebec7d5bd14f71427d1e84f3dd0314c0f7b2291e5b200ac8c7c3b925836040516112859190611f8a565b60405180910390a3505050565b600061129e8484610e10565b90507fffffffffffffffffffffffffffffffffffffffffffffffffffffffffffffffff8114611318578181101561130a576040517f08c379a000000000000000000000000000000000000000000000000000000000815260040161130190611e4a565b60405180910390fd5b61131784848484036110c7565b5b50505050565b600073ffffffffffffffffffffffffffffffffffffffff168373ffffffffffffffffffffffffffffffffffffffff16141561138e576040517f08c379a000000000000000000000000000000000000000000000000000000000815260040161138590611f0a565b60405180910390fd5b600073ffffffffffffffffffffffffffffffffffffffff168273ffffffffffffffffffffffffffffffffffffffff1614156113fe576040517f08c379a00000000000000000000000000000000000000000000000000000000081526004016113f590611daa565b60405180910390fd5b61140983838361199c565b60008060008573ffffffffffffffffffffffffffffffffffffffff1673ffffffffffffffffffffffffffffffffffffffff1681526020019081526020016000205490508181101561148f576040517f08c379a000000000000000000000000000000000000000000000000000000000815260040161148690611e6a565b60405180910390fd5b8181036000808673ffffffffffffffffffffffffffffffffffffffff1673ffffffffffffffffffffffffffffffffffffffff16815260200190815260200160002081905550816000808573ffffffffffffffffffffffffffffffffffffffff1673ffffffffffffffffffffffffffffffffffffffff16815260200190815260200160002060008282546115229190611fdc565b925050819055508273ffffffffffffffffffffffffffffffffffffffff168473ffffffffffffffffffffffffffffffffffffffff167fddf252ad1be2c89b69c2b068fc378daa952ba7f163c4a11628f55a4df523b3ef846040516115869190611f8a565b60405180910390a36115998484846119a1565b50505050565b600073ffffffffffffffffffffffffffffffffffffffff168273ffffffffffffffffffffffffffffffffffffffff16141561160f576040517f08c379a000000000000000000000000000000000000000000000000000000000815260040161160690611f6a565b60405180910390fd5b61161b6000838361199c565b806002600082825461162d9190611fdc565b92505081905550806000808473ffffffffffffffffffffffffffffffffffffffff1673ffffffffffffffffffffffffffffffffffffffff16815260200190815260200160002060008282546116829190611fdc565b925050819055508173ffffffffffffffffffffffffffffffffffffffff16600073ffffffffffffffffffffffffffffffffffffffff167fddf252ad1be2c89b69c2b068fc378daa952ba7f163c4a11628f55a4df523b3ef836040516116e79190611f8a565b60405180910390a36116fb600083836119a1565b5050565b6000600560009054906101000a900473ffffffffffffffffffffffffffffffffffffffff16905081600560006101000a81548173ffffffffffffffffffffffffffffffffffffffff021916908373ffffffffffffffffffffffffffffffffffffffff1602179055508173ffffffffffffffffffffffffffffffffffffffff168173ffffffffffffffffffffffffffffffffffffffff167f8be0079c531659141344cd1fd0a4f28419497f9722a3daafe3b4186f6b6457e060405160405180910390a35050565b600073ffffffffffffffffffffffffffffffffffffffff168273ffffffffffffffffffffffffffffffffffffffff161415611835576040517f08c379a000000000000000000000000000000000000000000000000000000000815260040161182c90611eea565b60405180910390fd5b6118418260008361199c565b60008060008473ffffffffffffffffffffffffffffffffffffffff1673ffffffffffffffffffffffffffffffffffffffff168152602001908152602001600020549050818110156118c7576040517f08c379a00000000000000000000000000000000000000000000000000000000081526004016118be90611dca565b60405180910390fd5b8181036000808573ffffffffffffffffffffffffffffffffffffffff1673ffffffffffffffffffffffffffffffffffffffff16815260200190815260200160002081905550816002600082825461191e9190612032565b92505081905550600073ffffffffffffffffffffffffffffffffffffffff168373ffffffffffffffffffffffffffffffffffffffff167fddf252ad1be2c89b69c2b068fc378daa952ba7f163c4a11628f55a4df523b3ef846040516119839190611f8a565b60405180910390a3611997836000846119a1565b505050565b505050565b505050565b6000813590506119b581612577565b92915050565b6000813590506119ca8161258e565b92915050565b6000602082840312156119e6576119e561217e565b5b60006119f4848285016119a6565b91505092915050565b60008060408385031215611a1457611a1361217e565b5b6000611a22858286016119a6565b9250506020611a33858286016119a6565b9150509250929050565b600080600060608486031215611a5657611a5561217e565b5b6000611a64868287016119a6565b9350506020611a75868287016119a6565b9250506040611a86868287016119bb565b9150509250925092565b60008060408385031215611aa757611aa661217e565b5b6000611ab5858286016119a6565b9250506020611ac6858286016119bb565b9150509250929050565b611ad981612066565b82525050565b611ae881612078565b82525050565b6000611af982611fc0565b611b038185611fcb565b9350611b138185602086016120bb565b611b1c81612183565b840191505092915050565b6000611b34602383611fcb565b9150611b3f82612194565b604082019050919050565b6000611b57602283611fcb565b9150611b62826121e3565b604082019050919050565b6000611b7a602683611fcb565b9150611b8582612232565b604082019050919050565b6000611b9d602283611fcb565b9150611ba882612281565b604082019050919050565b6000611bc0601583611fcb565b9150611bcb826122d0565b602082019050919050565b6000611be3601d83611fcb565b9150611bee826122f9565b602082019050919050565b6000611c06602683611fcb565b9150611c1182612322565b604082019050919050565b6000611c29601c83611fcb565b9150611c3482612371565b602082019050919050565b6000611c4c602083611fcb565b9150611c578261239a565b602082019050919050565b6000611c6f602183611fcb565b9150611c7a826123c3565b604082019050919050565b6000611c92602183611fcb565b9150611c9d82612412565b604082019050919050565b6000611cb5602583611fcb565b9150611cc082612461565b604082019050919050565b6000611cd8602483611fcb565b9150611ce3826124b0565b604082019050919050565b6000611cfb602583611fcb565b9150611d06826124ff565b604082019050919050565b6000611d1e601f83611fcb565b9150611d298261254e565b602082019050919050565b611d3d816120a4565b82525050565b611d4c816120ae565b82525050565b6000602082019050611d676000830184611ad0565b92915050565b6000602082019050611d826000830184611adf565b92915050565b60006020820190508181036000830152611da28184611aee565b905092915050565b60006020820190508181036000830152611dc381611b27565b9050919050565b60006020820190508181036000830152611de381611b4a565b9050919050565b60006020820190508181036000830152611e0381611b6d565b9050919050565b60006020820190508181036000830152611e2381611b90565b9050919050565b60006020820190508181036000830152611e4381611bb3565b9050919050565b60006020820190508181036000830152611e6381611bd6565b9050919050565b60006020820190508181036000830152611e8381611bf9565b9050919050565b60006020820190508181036000830152611ea381611c1c565b9050919050565b60006020820190508181036000830152611ec381611c3f565b9050919050565b60006020820190508181036000830152611ee381611c62565b9050919050565b60006020820190508181036000830152611f0381611c85565b9050919050565b60006020820190508181036000830152611f2381611ca8565b9050919050565b60006020820190508181036000830152611f4381611ccb565b9050919050565b60006020820190508181036000830152611f6381611cee565b9050919050565b60006020820190508181036000830152611f8381611d11565b9050919050565b6000602082019050611f9f6000830184611d34565b92915050565b6000602082019050611fba6000830184611d43565b92915050565b600081519050919050565b600082825260208201905092915050565b6000611fe7826120a4565b9150611ff2836120a4565b9250827fffffffffffffffffffffffffffffffffffffffffffffffffffffffffffffffff0382111561202757612026612120565b5b828201905092915050565b600061203d826120a4565b9150612048836120a4565b92508282101561205b5761205a612120565b5b828203905092915050565b600061207182612084565b9050919050565b60008115159050919050565b600073ffffffffffffffffffffffffffffffffffffffff82169050919050565b6000819050919050565b600060ff82169050919050565b60005b838110156120d95780820151818401526020810190506120be565b838111156120e8576000848401525b50505050565b6000600282049050600182168061210657607f821691505b6020821081141561211a5761211961214f565b5b50919050565b7f4e487b7100000000000000000000000000000000000000000000000000000000600052601160045260246000fd5b7f4e487b7100000000000000000000000000000000000000000000000000000000600052602260045260246000fd5b600080fd5b6000601f19601f8301169050919050565b7f45524332303a207472616e7366657220746f20746865207a65726f206164647260008201527f6573730000000000000000000000000000000000000000000000000000000000602082015250565b7f45524332303a206275726e20616d6f756e7420657863656564732062616c616e60008201527f6365000000000000000000000000000000000000000000000000000000000000602082015250565b7f4f776e61626c653a206e6577206f776e657220697320746865207a65726f206160008201527f6464726573730000000000000000000000000000000000000000000000000000602082015250565b7f45524332303a20617070726f766520746f20746865207a65726f20616464726560008201527f7373000000000000000000000000000000000000000000000000000000000000602082015250565b7f5a65726f20616464726573732064657465637465640000000000000000000000600082015250565b7f45524332303a20696e73756666696369656e7420616c6c6f77616e6365000000600082015250565b7f45524332303a207472616e7366657220616d6f756e742065786365656473206260008201527f616c616e63650000000000000000000000000000000000000000000000000000602082015250565b7f4f6e6c7920706f6f6c2063616e206d696e74206e6577204465706f7300000000600082015250565b7f4f776e61626c653a2063616c6c6572206973206e6f7420746865206f776e6572600082015250565b7f4f6e6c79206275796261636b207661756c742063616e206275726e204465706f60008201527f7300000000000000000000000000000000000000000000000000000000000000602082015250565b7f45524332303a206275726e2066726f6d20746865207a65726f2061646472657360008201527f7300000000000000000000000000000000000000000000000000000000000000602082015250565b7f45524332303a207472616e736665722066726f6d20746865207a65726f20616460008201527f6472657373000000000000000000000000000000000000000000000000000000602082015250565b7f45524332303a20617070726f76652066726f6d20746865207a65726f2061646460008201527f7265737300000000000000000000000000000000000000000000000000000000602082015250565b7f45524332303a2064656372656173656420616c6c6f77616e63652062656c6f7760008201527f207a65726f000000000000000000000000000000000000000000000000000000602082015250565b7f45524332303a206d696e7420746f20746865207a65726f206164647265737300600082015250565b61258081612066565b811461258b57600080fd5b50565b612597816120a4565b81146125a257600080fd5b5056fea26469706673582212208c9599e60bc31749591e1da7536b4d12a224290f17a00259e34c4600700a7b0864736f6c63430008060033",
  "linkReferences": {},
  "deployedLinkReferences": {}
}