{
  "_format": "hh-sol-artifact-1",
  "contractName": "AMO",
  "sourceName": "contracts/AMOs/AMO.sol",
  "abi": [
    {
      "inputs": [
        {
          "internalType": "address",
          "name": "_amo_manager_address",
          "type": "address"
        }
      ],
      "stateMutability": "nonpayable",
      "type": "constructor"
    },
    {
      "anonymous": false,
      "inputs": [
        {
          "indexed": true,
          "internalType": "address",
          "name": "previousOwner",
          "type": "address"
        },
        {
          "indexed": true,
          "internalType": "address",
          "name": "newOwner",
          "type": "address"
        }
      ],
      "name": "OwnershipTransferred",
      "type": "event"
    },
    {
      "anonymous": false,
      "inputs": [
        {
          "indexed": false,
          "internalType": "uint256",
          "name": "Amount",
          "type": "uint256"
        },
        {
          "indexed": false,
          "internalType": "address",
          "name": "From",
          "type": "address"
        },
        {
          "indexed": false,
          "internalType": "address",
          "name": "Token",
          "type": "address"
        }
      ],
      "name": "TransferIn",
      "type": "event"
    },
    {
      "anonymous": false,
      "inputs": [
        {
          "indexed": false,
          "internalType": "uint256",
          "name": "Amount",
          "type": "uint256"
        },
        {
          "indexed": false,
          "internalType": "address",
          "name": "To",
          "type": "address"
        },
        {
          "indexed": false,
          "internalType": "address",
          "name": "Token",
          "type": "address"
        }
      ],
      "name": "TransferOut",
      "type": "event"
    },
    {
      "inputs": [
        {
          "internalType": "address",
          "name": "_amo_manager_address",
          "type": "address"
        }
      ],
      "name": "SetAMOManager",
      "outputs": [],
      "stateMutability": "nonpayable",
      "type": "function"
    },
    {
      "inputs": [],
      "name": "amo_manager_address",
      "outputs": [
        {
          "internalType": "address",
          "name": "",
          "type": "address"
        }
      ],
      "stateMutability": "view",
      "type": "function"
    },
    {
      "inputs": [],
      "name": "owner",
      "outputs": [
        {
          "internalType": "address",
          "name": "",
          "type": "address"
        }
      ],
      "stateMutability": "view",
      "type": "function"
    },
    {
      "inputs": [],
      "name": "renounceOwnership",
      "outputs": [],
      "stateMutability": "nonpayable",
      "type": "function"
    },
    {
      "inputs": [
        {
          "internalType": "address",
          "name": "newOwner",
          "type": "address"
        }
      ],
      "name": "transferOwnership",
      "outputs": [],
      "stateMutability": "nonpayable",
      "type": "function"
    }
  ],
  "bytecode": "0x608060405234801561001057600080fd5b506040516109fd3803806109fd833981810160405281019061003291906101e6565b61004e61004361010560201b60201c565b61010d60201b60201c565b600073ffffffffffffffffffffffffffffffffffffffff168173ffffffffffffffffffffffffffffffffffffffff1614156100be576040517f08c379a00000000000000000000000000000000000000000000000000000000081526004016100b590610236565b60405180910390fd5b80600160006101000a81548173ffffffffffffffffffffffffffffffffffffffff021916908373ffffffffffffffffffffffffffffffffffffffff160217905550506102de565b600033905090565b60008060009054906101000a900473ffffffffffffffffffffffffffffffffffffffff169050816000806101000a81548173ffffffffffffffffffffffffffffffffffffffff021916908373ffffffffffffffffffffffffffffffffffffffff1602179055508173ffffffffffffffffffffffffffffffffffffffff168173ffffffffffffffffffffffffffffffffffffffff167f8be0079c531659141344cd1fd0a4f28419497f9722a3daafe3b4186f6b6457e060405160405180910390a35050565b6000815190506101e0816102c7565b92915050565b6000602082840312156101fc576101fb610299565b5b600061020a848285016101d1565b91505092915050565b6000610220601583610256565b915061022b8261029e565b602082019050919050565b6000602082019050818103600083015261024f81610213565b9050919050565b600082825260208201905092915050565b600061027282610279565b9050919050565b600073ffffffffffffffffffffffffffffffffffffffff82169050919050565b600080fd5b7f5a65726f20616464726573732064657465637465640000000000000000000000600082015250565b6102d081610267565b81146102db57600080fd5b50565b610710806102ed6000396000f3fe608060405234801561001057600080fd5b50600436106100575760003560e01c80635db30f5d1461005c578063715018a6146100785780638b6da625146100825780638da5cb5b146100a0578063f2fde38b146100be575b600080fd5b610076600480360381019061007191906104ba565b6100da565b005b61008061020a565b005b61008a610292565b604051610097919061055f565b60405180910390f35b6100a86102b8565b6040516100b5919061055f565b60405180910390f35b6100d860048036038101906100d391906104ba565b6102e1565b005b6100e26103d9565b73ffffffffffffffffffffffffffffffffffffffff166101006102b8565b73ffffffffffffffffffffffffffffffffffffffff1614610156576040517f08c379a000000000000000000000000000000000000000000000000000000000815260040161014d906105ba565b60405180910390fd5b600073ffffffffffffffffffffffffffffffffffffffff168173ffffffffffffffffffffffffffffffffffffffff1614156101c6576040517f08c379a00000000000000000000000000000000000000000000000000000000081526004016101bd9061059a565b60405180910390fd5b80600160006101000a81548173ffffffffffffffffffffffffffffffffffffffff021916908373ffffffffffffffffffffffffffffffffffffffff16021790555050565b6102126103d9565b73ffffffffffffffffffffffffffffffffffffffff166102306102b8565b73ffffffffffffffffffffffffffffffffffffffff1614610286576040517f08c379a000000000000000000000000000000000000000000000000000000000815260040161027d906105ba565b60405180910390fd5b61029060006103e1565b565b600160009054906101000a900473ffffffffffffffffffffffffffffffffffffffff1681565b60008060009054906101000a900473ffffffffffffffffffffffffffffffffffffffff16905090565b6102e96103d9565b73ffffffffffffffffffffffffffffffffffffffff166103076102b8565b73ffffffffffffffffffffffffffffffffffffffff161461035d576040517f08c379a0000000000000000000000000000000000000000000000000000000008152600401610354906105ba565b60405180910390fd5b600073ffffffffffffffffffffffffffffffffffffffff168173ffffffffffffffffffffffffffffffffffffffff1614156103cd576040517f08c379a00000000000000000000000000000000000000000000000000000000081526004016103c49061057a565b60405180910390fd5b6103d6816103e1565b50565b600033905090565b60008060009054906101000a900473ffffffffffffffffffffffffffffffffffffffff169050816000806101000a81548173ffffffffffffffffffffffffffffffffffffffff021916908373ffffffffffffffffffffffffffffffffffffffff1602179055508173ffffffffffffffffffffffffffffffffffffffff168173ffffffffffffffffffffffffffffffffffffffff167f8be0079c531659141344cd1fd0a4f28419497f9722a3daafe3b4186f6b6457e060405160405180910390a35050565b6000813590506104b4816106c3565b92915050565b6000602082840312156104d0576104cf61061d565b5b60006104de848285016104a5565b91505092915050565b6104f0816105eb565b82525050565b60006105036026836105da565b915061050e82610622565b604082019050919050565b60006105266015836105da565b915061053182610671565b602082019050919050565b60006105496020836105da565b91506105548261069a565b602082019050919050565b600060208201905061057460008301846104e7565b92915050565b60006020820190508181036000830152610593816104f6565b9050919050565b600060208201905081810360008301526105b381610519565b9050919050565b600060208201905081810360008301526105d38161053c565b9050919050565b600082825260208201905092915050565b60006105f6826105fd565b9050919050565b600073ffffffffffffffffffffffffffffffffffffffff82169050919050565b600080fd5b7f4f776e61626c653a206e6577206f776e657220697320746865207a65726f206160008201527f6464726573730000000000000000000000000000000000000000000000000000602082015250565b7f5a65726f20616464726573732064657465637465640000000000000000000000600082015250565b7f4f776e61626c653a2063616c6c6572206973206e6f7420746865206f776e6572600082015250565b6106cc816105eb565b81146106d757600080fd5b5056fea2646970667358221220f5f2e53eadf87762e8d5042a74b81584d0ea2033dfecc1974e5a8aa02ee30ffb64736f6c63430008060033",
  "linkReferences": {},
  "deployedLinkReferences": {}
}