{
  "_format": "hh-sol-artifact-1",
  "contractName": "Oracle",
  "sourceName": "contracts/Oracle.sol",
  "abi": [
    {
      "inputs": [],
      "stateMutability": "nonpayable",
      "type": "constructor"
    },
    {
      "anonymous": false,
      "inputs": [
        {
          "indexed": true,
          "internalType": "address",
          "name": "previousOwner",
          "type": "address"
        },
        {
          "indexed": true,
          "internalType": "address",
          "name": "newOwner",
          "type": "address"
        }
      ],
      "name": "OwnershipTransferred",
      "type": "event"
    },
    {
      "inputs": [
        {
          "internalType": "address",
          "name": "asset",
          "type": "address"
        }
      ],
      "name": "getPrice",
      "outputs": [
        {
          "internalType": "uint256",
          "name": "",
          "type": "uint256"
        }
      ],
      "stateMutability": "view",
      "type": "function"
    },
    {
      "inputs": [
        {
          "internalType": "address",
          "name": "asset",
          "type": "address"
        },
        {
          "internalType": "uint256",
          "name": "time_period",
          "type": "uint256"
        }
      ],
      "name": "getTWAP",
      "outputs": [
        {
          "internalType": "uint256",
          "name": "",
          "type": "uint256"
        }
      ],
      "stateMutability": "view",
      "type": "function"
    },
    {
      "inputs": [],
      "name": "owner",
      "outputs": [
        {
          "internalType": "address",
          "name": "",
          "type": "address"
        }
      ],
      "stateMutability": "view",
      "type": "function"
    },
    {
      "inputs": [],
      "name": "renounceOwnership",
      "outputs": [],
      "stateMutability": "nonpayable",
      "type": "function"
    },
    {
      "inputs": [
        {
          "internalType": "address",
          "name": "newOwner",
          "type": "address"
        }
      ],
      "name": "transferOwnership",
      "outputs": [],
      "stateMutability": "nonpayable",
      "type": "function"
    }
  ],
  "bytecode": "0x608060405234801561001057600080fd5b5061002d61002261003260201b60201c565b61003a60201b60201c565b6100fe565b600033905090565b60008060009054906101000a900473ffffffffffffffffffffffffffffffffffffffff169050816000806101000a81548173ffffffffffffffffffffffffffffffffffffffff021916908373ffffffffffffffffffffffffffffffffffffffff1602179055508173ffffffffffffffffffffffffffffffffffffffff168173ffffffffffffffffffffffffffffffffffffffff167f8be0079c531659141344cd1fd0a4f28419497f9722a3daafe3b4186f6b6457e060405160405180910390a35050565b61062f8061010d6000396000f3fe608060405234801561001057600080fd5b50600436106100575760003560e01c806341976e091461005c5780636f8c10a81461008c578063715018a6146100bc5780638da5cb5b146100c6578063f2fde38b146100e4575b600080fd5b610076600480360381019061007191906103ba565b610100565b60405161008391906104e6565b60405180910390f35b6100a660048036038101906100a191906103e7565b61010d565b6040516100b391906104e6565b60405180910390f35b6100c461011b565b005b6100ce6101a3565b6040516100db919061048b565b60405180910390f35b6100fe60048036038101906100f991906103ba565b6101cc565b005b60006210f89e9050919050565b60006232e12c905092915050565b6101236102c4565b73ffffffffffffffffffffffffffffffffffffffff166101416101a3565b73ffffffffffffffffffffffffffffffffffffffff1614610197576040517f08c379a000000000000000000000000000000000000000000000000000000000815260040161018e906104c6565b60405180910390fd5b6101a160006102cc565b565b60008060009054906101000a900473ffffffffffffffffffffffffffffffffffffffff16905090565b6101d46102c4565b73ffffffffffffffffffffffffffffffffffffffff166101f26101a3565b73ffffffffffffffffffffffffffffffffffffffff1614610248576040517f08c379a000000000000000000000000000000000000000000000000000000000815260040161023f906104c6565b60405180910390fd5b600073ffffffffffffffffffffffffffffffffffffffff168173ffffffffffffffffffffffffffffffffffffffff1614156102b8576040517f08c379a00000000000000000000000000000000000000000000000000000000081526004016102af906104a6565b60405180910390fd5b6102c1816102cc565b50565b600033905090565b60008060009054906101000a900473ffffffffffffffffffffffffffffffffffffffff169050816000806101000a81548173ffffffffffffffffffffffffffffffffffffffff021916908373ffffffffffffffffffffffffffffffffffffffff1602179055508173ffffffffffffffffffffffffffffffffffffffff168173ffffffffffffffffffffffffffffffffffffffff167f8be0079c531659141344cd1fd0a4f28419497f9722a3daafe3b4186f6b6457e060405160405180910390a35050565b60008135905061039f816105cb565b92915050565b6000813590506103b4816105e2565b92915050565b6000602082840312156103d0576103cf61054e565b5b60006103de84828501610390565b91505092915050565b600080604083850312156103fe576103fd61054e565b5b600061040c85828601610390565b925050602061041d858286016103a5565b9150509250929050565b61043081610512565b82525050565b6000610443602683610501565b915061044e82610553565b604082019050919050565b6000610466602083610501565b9150610471826105a2565b602082019050919050565b61048581610544565b82525050565b60006020820190506104a06000830184610427565b92915050565b600060208201905081810360008301526104bf81610436565b9050919050565b600060208201905081810360008301526104df81610459565b9050919050565b60006020820190506104fb600083018461047c565b92915050565b600082825260208201905092915050565b600061051d82610524565b9050919050565b600073ffffffffffffffffffffffffffffffffffffffff82169050919050565b6000819050919050565b600080fd5b7f4f776e61626c653a206e6577206f776e657220697320746865207a65726f206160008201527f6464726573730000000000000000000000000000000000000000000000000000602082015250565b7f4f776e61626c653a2063616c6c6572206973206e6f7420746865206f776e6572600082015250565b6105d481610512565b81146105df57600080fd5b50565b6105eb81610544565b81146105f657600080fd5b5056fea26469706673582212202058463748c1b858989e1692ad63871011e39c2805f203637d89f84ea9f5bc6564736f6c63430008060033",
  "linkReferences": {},
  "deployedLinkReferences": {}
}