{
  "_format": "hh-sol-artifact-1",
  "contractName": "InsuranceVault",
  "sourceName": "contracts/InsuranceVault.sol",
  "abi": [
    {
      "inputs": [
        {
          "internalType": "address",
          "name": "_depos_address",
          "type": "address"
        },
        {
          "internalType": "address",
          "name": "_pool_address",
          "type": "address"
        },
        {
          "internalType": "address",
          "name": "_oracle_address",
          "type": "address"
        },
        {
          "internalType": "address",
          "name": "_asset_manager_address",
          "type": "address"
        },
        {
          "internalType": "address",
          "name": "_amo_manager_address",
          "type": "address"
        }
      ],
      "stateMutability": "nonpayable",
      "type": "constructor"
    },
    {
      "anonymous": false,
      "inputs": [
        {
          "indexed": true,
          "internalType": "address",
          "name": "previousOwner",
          "type": "address"
        },
        {
          "indexed": true,
          "internalType": "address",
          "name": "newOwner",
          "type": "address"
        }
      ],
      "name": "OwnershipTransferred",
      "type": "event"
    },
    {
      "anonymous": false,
      "inputs": [
        {
          "indexed": false,
          "internalType": "uint256",
          "name": "Amount",
          "type": "uint256"
        },
        {
          "indexed": false,
          "internalType": "address",
          "name": "From",
          "type": "address"
        },
        {
          "indexed": false,
          "internalType": "address",
          "name": "Token",
          "type": "address"
        }
      ],
      "name": "TransferIn",
      "type": "event"
    },
    {
      "anonymous": false,
      "inputs": [
        {
          "indexed": false,
          "internalType": "uint256",
          "name": "Amount",
          "type": "uint256"
        },
        {
          "indexed": false,
          "internalType": "address",
          "name": "To",
          "type": "address"
        },
        {
          "indexed": false,
          "internalType": "address",
          "name": "Token",
          "type": "address"
        }
      ],
      "name": "TransferOut",
      "type": "event"
    },
    {
      "inputs": [
        {
          "internalType": "address",
          "name": "asset_address",
          "type": "address"
        }
      ],
      "name": "AssetBalance",
      "outputs": [
        {
          "internalType": "uint256",
          "name": "",
          "type": "uint256"
        }
      ],
      "stateMutability": "view",
      "type": "function"
    },
    {
      "inputs": [
        {
          "internalType": "address",
          "name": "asset_address",
          "type": "address"
        }
      ],
      "name": "AssetDollarBalance",
      "outputs": [
        {
          "internalType": "uint256",
          "name": "",
          "type": "uint256"
        }
      ],
      "stateMutability": "view",
      "type": "function"
    },
    {
      "inputs": [
        {
          "internalType": "address",
          "name": "user_address",
          "type": "address"
        },
        {
          "internalType": "uint256",
          "name": "amount_in_dollar",
          "type": "uint256"
        }
      ],
      "name": "ExecuteCompensation",
      "outputs": [],
      "stateMutability": "nonpayable",
      "type": "function"
    },
    {
      "inputs": [],
      "name": "TransferAssetToDollar",
      "outputs": [],
      "stateMutability": "nonpayable",
      "type": "function"
    },
    {
      "inputs": [],
      "name": "VaultDollarBalance",
      "outputs": [
        {
          "internalType": "uint256",
          "name": "",
          "type": "uint256"
        }
      ],
      "stateMutability": "view",
      "type": "function"
    },
    {
      "inputs": [
        {
          "internalType": "address",
          "name": "stablecoin_address",
          "type": "address"
        }
      ],
      "name": "addSupportedStablecoin",
      "outputs": [],
      "stateMutability": "nonpayable",
      "type": "function"
    },
    {
      "inputs": [],
      "name": "amo_manager_address",
      "outputs": [
        {
          "internalType": "address",
          "name": "",
          "type": "address"
        }
      ],
      "stateMutability": "view",
      "type": "function"
    },
    {
      "inputs": [],
      "name": "asset_manager_address",
      "outputs": [
        {
          "internalType": "address",
          "name": "",
          "type": "address"
        }
      ],
      "stateMutability": "view",
      "type": "function"
    },
    {
      "inputs": [],
      "name": "depos_address",
      "outputs": [
        {
          "internalType": "address",
          "name": "",
          "type": "address"
        }
      ],
      "stateMutability": "view",
      "type": "function"
    },
    {
      "inputs": [],
      "name": "oracle_address",
      "outputs": [
        {
          "internalType": "address",
          "name": "",
          "type": "address"
        }
      ],
      "stateMutability": "view",
      "type": "function"
    },
    {
      "inputs": [],
      "name": "owner",
      "outputs": [
        {
          "internalType": "address",
          "name": "",
          "type": "address"
        }
      ],
      "stateMutability": "view",
      "type": "function"
    },
    {
      "inputs": [],
      "name": "pool_address",
      "outputs": [
        {
          "internalType": "address",
          "name": "",
          "type": "address"
        }
      ],
      "stateMutability": "view",
      "type": "function"
    },
    {
      "inputs": [
        {
          "internalType": "address",
          "name": "stablecoin_address",
          "type": "address"
        }
      ],
      "name": "removeSupportedStablecoin",
      "outputs": [],
      "stateMutability": "nonpayable",
      "type": "function"
    },
    {
      "inputs": [],
      "name": "renounceOwnership",
      "outputs": [],
      "stateMutability": "nonpayable",
      "type": "function"
    },
    {
      "inputs": [
        {
          "internalType": "address",
          "name": "new_amo_manager",
          "type": "address"
        }
      ],
      "name": "setAMOManagerAddress",
      "outputs": [],
      "stateMutability": "nonpayable",
      "type": "function"
    },
    {
      "inputs": [
        {
          "internalType": "address",
          "name": "new_asset_manager",
          "type": "address"
        }
      ],
      "name": "setAssetManagerAddress",
      "outputs": [],
      "stateMutability": "nonpayable",
      "type": "function"
    },
    {
      "inputs": [
        {
          "internalType": "address",
          "name": "new_depos",
          "type": "address"
        }
      ],
      "name": "setDeposAddress",
      "outputs": [],
      "stateMutability": "nonpayable",
      "type": "function"
    },
    {
      "inputs": [
        {
          "internalType": "address",
          "name": "new_oracle",
          "type": "address"
        }
      ],
      "name": "setOracleAddress",
      "outputs": [],
      "stateMutability": "nonpayable",
      "type": "function"
    },
    {
      "inputs": [
        {
          "internalType": "address",
          "name": "new_pool",
          "type": "address"
        }
      ],
      "name": "setPoolAddress",
      "outputs": [],
      "stateMutability": "nonpayable",
      "type": "function"
    },
    {
      "inputs": [
        {
          "internalType": "uint256",
          "name": "",
          "type": "uint256"
        }
      ],
      "name": "supported_stablecoins",
      "outputs": [
        {
          "internalType": "address",
          "name": "",
          "type": "address"
        }
      ],
      "stateMutability": "view",
      "type": "function"
    },
    {
      "inputs": [
        {
          "internalType": "address",
          "name": "newOwner",
          "type": "address"
        }
      ],
      "name": "transferOwnership",
      "outputs": [],
      "stateMutability": "nonpayable",
      "type": "function"
    }
  ],
  "bytecode": "0x60806040523480156200001157600080fd5b5060405162002ec038038062002ec08339818101604052810190620000379190620003e5565b620000576200004b6200030260201b60201c565b6200030a60201b60201c565b600073ffffffffffffffffffffffffffffffffffffffff168573ffffffffffffffffffffffffffffffffffffffff1614158015620000c25750600073ffffffffffffffffffffffffffffffffffffffff168473ffffffffffffffffffffffffffffffffffffffff1614155b8015620000fc5750600073ffffffffffffffffffffffffffffffffffffffff168373ffffffffffffffffffffffffffffffffffffffff1614155b8015620001365750600073ffffffffffffffffffffffffffffffffffffffff168273ffffffffffffffffffffffffffffffffffffffff1614155b8015620001705750600073ffffffffffffffffffffffffffffffffffffffff168173ffffffffffffffffffffffffffffffffffffffff1614155b620001b2576040517f08c379a0000000000000000000000000000000000000000000000000000000008152600401620001a99062000494565b60405180910390fd5b83600160006101000a81548173ffffffffffffffffffffffffffffffffffffffff021916908373ffffffffffffffffffffffffffffffffffffffff16021790555084600260006101000a81548173ffffffffffffffffffffffffffffffffffffffff021916908373ffffffffffffffffffffffffffffffffffffffff16021790555082600560006101000a81548173ffffffffffffffffffffffffffffffffffffffff021916908373ffffffffffffffffffffffffffffffffffffffff16021790555081600460006101000a81548173ffffffffffffffffffffffffffffffffffffffff021916908373ffffffffffffffffffffffffffffffffffffffff16021790555080600360006101000a81548173ffffffffffffffffffffffffffffffffffffffff021916908373ffffffffffffffffffffffffffffffffffffffff160217905550505050505062000543565b600033905090565b60008060009054906101000a900473ffffffffffffffffffffffffffffffffffffffff169050816000806101000a81548173ffffffffffffffffffffffffffffffffffffffff021916908373ffffffffffffffffffffffffffffffffffffffff1602179055508173ffffffffffffffffffffffffffffffffffffffff168173ffffffffffffffffffffffffffffffffffffffff167f8be0079c531659141344cd1fd0a4f28419497f9722a3daafe3b4186f6b6457e060405160405180910390a35050565b600081519050620003df8162000529565b92915050565b600080600080600060a08688031215620004045762000403620004fb565b5b60006200041488828901620003ce565b95505060206200042788828901620003ce565b94505060406200043a88828901620003ce565b93505060606200044d88828901620003ce565b92505060806200046088828901620003ce565b9150509295509295909350565b60006200047c601583620004b6565b9150620004898262000500565b602082019050919050565b60006020820190508181036000830152620004af816200046d565b9050919050565b600082825260208201905092915050565b6000620004d482620004db565b9050919050565b600073ffffffffffffffffffffffffffffffffffffffff82169050919050565b600080fd5b7f5a65726f20616464726573732064657465637465640000000000000000000000600082015250565b6200053481620004c7565b81146200054057600080fd5b50565b61296d80620005536000396000f3fe608060405234801561001057600080fd5b50600436106101375760003560e01c80638ec12f08116100b8578063d62288de1161007c578063d62288de14610304578063da90aeef1461030e578063e3bf44b91461033e578063e9e15b4f1461035a578063f2fde38b14610376578063f4f20c9b1461039257610137565b80638ec12f08146102625780639f24d6fb14610292578063a58bc3e0146102b0578063c038fc39146102cc578063d5d3f78b146102e857610137565b8063715018a6116100ff578063715018a6146101ce57806372de3bd2146101d85780637e0c1792146102085780638b6da625146102265780638da5cb5b1461024457610137565b80630dbf67421461013c578063190d7da31461015a57806324532867146101785780634755abbb146101945780634c69c00f146101b2575b600080fd5b6101446103ae565b6040516101519190612270565b60405180910390f35b6101626106bd565b60405161016f919061214c565b60405180910390f35b610192600480360381019061018d9190611ecf565b6106e3565b005b61019c610835565b6040516101a9919061214c565b60405180910390f35b6101cc60048036038101906101c79190611ecf565b61085b565b005b6101d661098b565b005b6101f260048036038101906101ed9190611ecf565b610a13565b6040516101ff9190612270565b60405180910390f35b610210610c67565b60405161021d919061214c565b60405180910390f35b61022e610c8d565b60405161023b919061214c565b60405180910390f35b61024c610cb3565b604051610259919061214c565b60405180910390f35b61027c60048036038101906102779190611fb2565b610cdc565b604051610289919061214c565b60405180910390f35b61029a610d1b565b6040516102a7919061214c565b60405180910390f35b6102ca60048036038101906102c59190611efc565b610d41565b005b6102e660048036038101906102e19190611ecf565b6110c2565b005b61030260048036038101906102fd9190611ecf565b6111f2565b005b61030c611482565b005b61032860048036038101906103239190611ecf565b611514565b6040516103359190612270565b60405180910390f35b61035860048036038101906103539190611ecf565b611699565b005b610374600480360381019061036f9190611ecf565b6117c9565b005b610390600480360381019061038b9190611ecf565b6118f9565b005b6103ac60048036038101906103a79190611ecf565b6119f1565b005b600080600460009054906101000a900473ffffffffffffffffffffffffffffffffffffffff1690506000805b8273ffffffffffffffffffffffffffffffffffffffff1663463ad28d6040518163ffffffff1660e01b815260040160006040518083038186803b15801561042057600080fd5b505afa158015610434573d6000803e3d6000fd5b505050506040513d6000823e3d601f19601f8201168201806040525081019061045d9190611f3c565b518110156106b45760008373ffffffffffffffffffffffffffffffffffffffff1663463ad28d6040518163ffffffff1660e01b815260040160006040518083038186803b1580156104ad57600080fd5b505afa1580156104c1573d6000803e3d6000fd5b505050506040513d6000823e3d601f19601f820116820180604052508101906104ea9190611f3c565b82815181106104fc576104fb612706565b5b60200260200101519050600073ffffffffffffffffffffffffffffffffffffffff168173ffffffffffffffffffffffffffffffffffffffff16146106a05760008173ffffffffffffffffffffffffffffffffffffffff166370a08231306040518263ffffffff1660e01b8152600401610575919061214c565b60206040518083038186803b15801561058d57600080fd5b505afa1580156105a1573d6000803e3d6000fd5b505050506040513d601f19601f820116820180604052508101906105c59190611fdf565b90506000600560009054906101000a900473ffffffffffffffffffffffffffffffffffffffff1673ffffffffffffffffffffffffffffffffffffffff166341976e09846040518263ffffffff1660e01b8152600401610624919061214c565b60206040518083038186803b15801561063c57600080fd5b505afa158015610650573d6000803e3d6000fd5b505050506040513d601f19601f820116820180604052508101906106749190611fdf565b9050620f42408183610686919061251c565b610690919061237a565b8561069b9190612324565b945050505b5080806106ac90612630565b9150506103da565b50809250505090565b600460009054906101000a900473ffffffffffffffffffffffffffffffffffffffff1681565b6106eb611b21565b73ffffffffffffffffffffffffffffffffffffffff16610709610cb3565b73ffffffffffffffffffffffffffffffffffffffff161461075f576040517f08c379a000000000000000000000000000000000000000000000000000000000815260040161075690612230565b60405180910390fd5b600073ffffffffffffffffffffffffffffffffffffffff168173ffffffffffffffffffffffffffffffffffffffff1614156107cf576040517f08c379a00000000000000000000000000000000000000000000000000000000081526004016107c6906121b0565b60405180910390fd5b6006819080600181540180825580915050600190039060005260206000200160009091909190916101000a81548173ffffffffffffffffffffffffffffffffffffffff021916908373ffffffffffffffffffffffffffffffffffffffff16021790555050565b600160009054906101000a900473ffffffffffffffffffffffffffffffffffffffff1681565b610863611b21565b73ffffffffffffffffffffffffffffffffffffffff16610881610cb3565b73ffffffffffffffffffffffffffffffffffffffff16146108d7576040517f08c379a00000000000000000000000000000000000000000000000000000000081526004016108ce90612230565b60405180910390fd5b600073ffffffffffffffffffffffffffffffffffffffff168173ffffffffffffffffffffffffffffffffffffffff161415610947576040517f08c379a000000000000000000000000000000000000000000000000000000000815260040161093e906121b0565b60405180910390fd5b80600560006101000a81548173ffffffffffffffffffffffffffffffffffffffff021916908373ffffffffffffffffffffffffffffffffffffffff16021790555050565b610993611b21565b73ffffffffffffffffffffffffffffffffffffffff166109b1610cb3565b73ffffffffffffffffffffffffffffffffffffffff1614610a07576040517f08c379a00000000000000000000000000000000000000000000000000000000081526004016109fe90612230565b60405180910390fd5b610a116000611b29565b565b60008160011515600460009054906101000a900473ffffffffffffffffffffffffffffffffffffffff1673ffffffffffffffffffffffffffffffffffffffff1663d44da15f836040518263ffffffff1660e01b8152600401610a75919061214c565b60206040518083038186803b158015610a8d57600080fd5b505afa158015610aa1573d6000803e3d6000fd5b505050506040513d601f19601f82011682018060405250810190610ac59190611f85565b151514610b07576040517f08c379a0000000000000000000000000000000000000000000000000000000008152600401610afe90612250565b60405180910390fd5b60008373ffffffffffffffffffffffffffffffffffffffff166370a08231306040518263ffffffff1660e01b8152600401610b42919061214c565b60206040518083038186803b158015610b5a57600080fd5b505afa158015610b6e573d6000803e3d6000fd5b505050506040513d601f19601f82011682018060405250810190610b929190611fdf565b90506000600560009054906101000a900473ffffffffffffffffffffffffffffffffffffffff1673ffffffffffffffffffffffffffffffffffffffff166341976e09866040518263ffffffff1660e01b8152600401610bf1919061214c565b60206040518083038186803b158015610c0957600080fd5b505afa158015610c1d573d6000803e3d6000fd5b505050506040513d601f19601f82011682018060405250810190610c419190611fdf565b9050620f42408183610c53919061251c565b610c5d919061237a565b9350505050919050565b600560009054906101000a900473ffffffffffffffffffffffffffffffffffffffff1681565b600360009054906101000a900473ffffffffffffffffffffffffffffffffffffffff1681565b60008060009054906101000a900473ffffffffffffffffffffffffffffffffffffffff16905090565b60068181548110610cec57600080fd5b906000526020600020016000915054906101000a900473ffffffffffffffffffffffffffffffffffffffff1681565b600260009054906101000a900473ffffffffffffffffffffffffffffffffffffffff1681565b600160009054906101000a900473ffffffffffffffffffffffffffffffffffffffff1673ffffffffffffffffffffffffffffffffffffffff163373ffffffffffffffffffffffffffffffffffffffff1614610dd1576040517f08c379a0000000000000000000000000000000000000000000000000000000008152600401610dc890612210565b60405180910390fd5b600081905060005b6006805490508110156110af57600060068281548110610dfc57610dfb612706565b5b9060005260206000200160009054906101000a900473ffffffffffffffffffffffffffffffffffffffff16905060008173ffffffffffffffffffffffffffffffffffffffff1663313ce5676040518163ffffffff1660e01b815260040160206040518083038186803b158015610e7157600080fd5b505afa158015610e85573d6000803e3d6000fd5b505050506040513d601f19601f82011682018060405250810190610ea9919061200c565b60ff16905060008273ffffffffffffffffffffffffffffffffffffffff166370a08231306040518263ffffffff1660e01b8152600401610ee9919061214c565b60206040518083038186803b158015610f0157600080fd5b505afa158015610f15573d6000803e3d6000fd5b505050506040513d601f19601f82011682018060405250810190610f399190611fdf565b905080620f4240610f4a919061251c565b8583600a610f5891906123fe565b610f62919061251c565b11610fe157610fd560068581548110610f7e57610f7d612706565b5b9060005260206000200160009054906101000a900473ffffffffffffffffffffffffffffffffffffffff1688620f42408886600a610fbc91906123fe565b610fc6919061251c565b610fd0919061237a565b611bed565b600094505050506110af565b600082600a610ff091906123fe565b620f424083610fff919061251c565b611009919061237a565b866110149190612576565b90506000620f424084600a61102991906123fe565b83896110359190612576565b61103f919061251c565b611049919061237a565b90508196506110976006878154811061106557611064612706565b5b9060005260206000200160009054906101000a900473ffffffffffffffffffffffffffffffffffffffff168a83611bed565b505050505080806110a790612630565b915050610dd9565b50600081146110bd57600080fd5b505050565b6110ca611b21565b73ffffffffffffffffffffffffffffffffffffffff166110e8610cb3565b73ffffffffffffffffffffffffffffffffffffffff161461113e576040517f08c379a000000000000000000000000000000000000000000000000000000000815260040161113590612230565b60405180910390fd5b600073ffffffffffffffffffffffffffffffffffffffff168173ffffffffffffffffffffffffffffffffffffffff1614156111ae576040517f08c379a00000000000000000000000000000000000000000000000000000000081526004016111a5906121b0565b60405180910390fd5b80600360006101000a81548173ffffffffffffffffffffffffffffffffffffffff021916908373ffffffffffffffffffffffffffffffffffffffff16021790555050565b6111fa611b21565b73ffffffffffffffffffffffffffffffffffffffff16611218610cb3565b73ffffffffffffffffffffffffffffffffffffffff161461126e576040517f08c379a000000000000000000000000000000000000000000000000000000000815260040161126590612230565b60405180910390fd5b600073ffffffffffffffffffffffffffffffffffffffff168173ffffffffffffffffffffffffffffffffffffffff1614156112de576040517f08c379a00000000000000000000000000000000000000000000000000000000081526004016112d5906121b0565b60405180910390fd5b60008060005b600680549050811015611382576006818154811061130557611304612706565b5b9060005260206000200160009054906101000a900473ffffffffffffffffffffffffffffffffffffffff1673ffffffffffffffffffffffffffffffffffffffff168473ffffffffffffffffffffffffffffffffffffffff16141561136f5760019250809150611382565b808061137a90612630565b9150506112e4565b50811561147d576006600160068054905061139d9190612576565b815481106113ae576113ad612706565b5b9060005260206000200160009054906101000a900473ffffffffffffffffffffffffffffffffffffffff16600682815481106113ed576113ec612706565b5b9060005260206000200160006101000a81548173ffffffffffffffffffffffffffffffffffffffff021916908373ffffffffffffffffffffffffffffffffffffffff1602179055506006805480611447576114466126d7565b5b6001900381819060005260206000200160006101000a81549073ffffffffffffffffffffffffffffffffffffffff021916905590555b505050565b600360009054906101000a900473ffffffffffffffffffffffffffffffffffffffff1673ffffffffffffffffffffffffffffffffffffffff163373ffffffffffffffffffffffffffffffffffffffff1614611512576040517f08c379a0000000000000000000000000000000000000000000000000000000008152600401611509906121d0565b60405180910390fd5b565b60008160011515600460009054906101000a900473ffffffffffffffffffffffffffffffffffffffff1673ffffffffffffffffffffffffffffffffffffffff1663d44da15f836040518263ffffffff1660e01b8152600401611576919061214c565b60206040518083038186803b15801561158e57600080fd5b505afa1580156115a2573d6000803e3d6000fd5b505050506040513d601f19601f820116820180604052508101906115c69190611f85565b151514611608576040517f08c379a00000000000000000000000000000000000000000000000000000000081526004016115ff90612250565b60405180910390fd5b8273ffffffffffffffffffffffffffffffffffffffff166370a08231306040518263ffffffff1660e01b8152600401611641919061214c565b60206040518083038186803b15801561165957600080fd5b505afa15801561166d573d6000803e3d6000fd5b505050506040513d601f19601f820116820180604052508101906116919190611fdf565b915050919050565b6116a1611b21565b73ffffffffffffffffffffffffffffffffffffffff166116bf610cb3565b73ffffffffffffffffffffffffffffffffffffffff1614611715576040517f08c379a000000000000000000000000000000000000000000000000000000000815260040161170c90612230565b60405180910390fd5b600073ffffffffffffffffffffffffffffffffffffffff168173ffffffffffffffffffffffffffffffffffffffff161415611785576040517f08c379a000000000000000000000000000000000000000000000000000000000815260040161177c906121b0565b60405180910390fd5b80600460006101000a81548173ffffffffffffffffffffffffffffffffffffffff021916908373ffffffffffffffffffffffffffffffffffffffff16021790555050565b6117d1611b21565b73ffffffffffffffffffffffffffffffffffffffff166117ef610cb3565b73ffffffffffffffffffffffffffffffffffffffff1614611845576040517f08c379a000000000000000000000000000000000000000000000000000000000815260040161183c90612230565b60405180910390fd5b600073ffffffffffffffffffffffffffffffffffffffff168173ffffffffffffffffffffffffffffffffffffffff1614156118b5576040517f08c379a00000000000000000000000000000000000000000000000000000000081526004016118ac906121b0565b60405180910390fd5b80600160006101000a81548173ffffffffffffffffffffffffffffffffffffffff021916908373ffffffffffffffffffffffffffffffffffffffff16021790555050565b611901611b21565b73ffffffffffffffffffffffffffffffffffffffff1661191f610cb3565b73ffffffffffffffffffffffffffffffffffffffff1614611975576040517f08c379a000000000000000000000000000000000000000000000000000000000815260040161196c90612230565b60405180910390fd5b600073ffffffffffffffffffffffffffffffffffffffff168173ffffffffffffffffffffffffffffffffffffffff1614156119e5576040517f08c379a00000000000000000000000000000000000000000000000000000000081526004016119dc90612190565b60405180910390fd5b6119ee81611b29565b50565b6119f9611b21565b73ffffffffffffffffffffffffffffffffffffffff16611a17610cb3565b73ffffffffffffffffffffffffffffffffffffffff1614611a6d576040517f08c379a0000000000000000000000000000000000000000000000000000000008152600401611a6490612230565b60405180910390fd5b600073ffffffffffffffffffffffffffffffffffffffff168173ffffffffffffffffffffffffffffffffffffffff161415611add576040517f08c379a0000000000000000000000000000000000000000000000000000000008152600401611ad4906121b0565b60405180910390fd5b80600260006101000a81548173ffffffffffffffffffffffffffffffffffffffff021916908373ffffffffffffffffffffffffffffffffffffffff16021790555050565b600033905090565b60008060009054906101000a900473ffffffffffffffffffffffffffffffffffffffff169050816000806101000a81548173ffffffffffffffffffffffffffffffffffffffff021916908373ffffffffffffffffffffffffffffffffffffffff1602179055508173ffffffffffffffffffffffffffffffffffffffff168173ffffffffffffffffffffffffffffffffffffffff167f8be0079c531659141344cd1fd0a4f28419497f9722a3daafe3b4186f6b6457e060405160405180910390a35050565b6000611bf98430611d20565b90507fe4d818e6f992efbd60db553f3edce819a199baec79a784b95c89bc8ee86f2584828486604051611c2e9392919061228b565b60405180910390a18373ffffffffffffffffffffffffffffffffffffffff1663a9059cbb84846040518363ffffffff1660e01b8152600401611c71929190612167565b602060405180830381600087803b158015611c8b57600080fd5b505af1158015611c9f573d6000803e3d6000fd5b505050506040513d601f19601f82011682018060405250810190611cc39190611f85565b508082611cd08630611d20565b611cda9190612324565b14611d1a576040517f08c379a0000000000000000000000000000000000000000000000000000000008152600401611d11906121f0565b60405180910390fd5b50505050565b60008273ffffffffffffffffffffffffffffffffffffffff166370a08231836040518263ffffffff1660e01b8152600401611d5b919061214c565b60206040518083038186803b158015611d7357600080fd5b505afa158015611d87573d6000803e3d6000fd5b505050506040513d601f19601f82011682018060405250810190611dab9190611fdf565b905092915050565b6000611dc6611dc1846122e7565b6122c2565b90508083825260208201905082856020860282011115611de957611de8612769565b5b60005b85811015611e195781611dff8882611e38565b845260208401935060208301925050600181019050611dec565b5050509392505050565b600081359050611e32816128db565b92915050565b600081519050611e47816128db565b92915050565b600082601f830112611e6257611e61612764565b5b8151611e72848260208601611db3565b91505092915050565b600081519050611e8a816128f2565b92915050565b600081359050611e9f81612909565b92915050565b600081519050611eb481612909565b92915050565b600081519050611ec981612920565b92915050565b600060208284031215611ee557611ee4612773565b5b6000611ef384828501611e23565b91505092915050565b60008060408385031215611f1357611f12612773565b5b6000611f2185828601611e23565b9250506020611f3285828601611e90565b9150509250929050565b600060208284031215611f5257611f51612773565b5b600082015167ffffffffffffffff811115611f7057611f6f61276e565b5b611f7c84828501611e4d565b91505092915050565b600060208284031215611f9b57611f9a612773565b5b6000611fa984828501611e7b565b91505092915050565b600060208284031215611fc857611fc7612773565b5b6000611fd684828501611e90565b91505092915050565b600060208284031215611ff557611ff4612773565b5b600061200384828501611ea5565b91505092915050565b60006020828403121561202257612021612773565b5b600061203084828501611eba565b91505092915050565b612042816125aa565b82525050565b6000612055602683612313565b915061206082612796565b604082019050919050565b6000612078601583612313565b9150612083826127e5565b602082019050919050565b600061209b601783612313565b91506120a68261280e565b602082019050919050565b60006120be601d83612313565b91506120c982612837565b602082019050919050565b60006120e1601083612313565b91506120ec82612860565b602082019050919050565b6000612104602083612313565b915061210f82612889565b602082019050919050565b6000612127601383612313565b9150612132826128b2565b602082019050919050565b612146816125e8565b82525050565b60006020820190506121616000830184612039565b92915050565b600060408201905061217c6000830185612039565b612189602083018461213d565b9392505050565b600060208201905081810360008301526121a981612048565b9050919050565b600060208201905081810360008301526121c98161206b565b9050919050565b600060208201905081810360008301526121e98161208e565b9050919050565b60006020820190508181036000830152612209816120b1565b9050919050565b60006020820190508181036000830152612229816120d4565b9050919050565b60006020820190508181036000830152612249816120f7565b9050919050565b600060208201905081810360008301526122698161211a565b9050919050565b6000602082019050612285600083018461213d565b92915050565b60006060820190506122a0600083018661213d565b6122ad6020830185612039565b6122ba6040830184612039565b949350505050565b60006122cc6122dd565b90506122d882826125ff565b919050565b6000604051905090565b600067ffffffffffffffff82111561230257612301612735565b5b602082029050602081019050919050565b600082825260208201905092915050565b600061232f826125e8565b915061233a836125e8565b9250827fffffffffffffffffffffffffffffffffffffffffffffffffffffffffffffffff0382111561236f5761236e612679565b5b828201905092915050565b6000612385826125e8565b9150612390836125e8565b9250826123a05761239f6126a8565b5b828204905092915050565b6000808291508390505b60018511156123f5578086048111156123d1576123d0612679565b5b60018516156123e05780820291505b80810290506123ee85612789565b94506123b5565b94509492505050565b6000612409826125e8565b9150612414836125e8565b92506124417fffffffffffffffffffffffffffffffffffffffffffffffffffffffffffffffff8484612449565b905092915050565b6000826124595760019050612515565b816124675760009050612515565b816001811461247d5760028114612487576124b6565b6001915050612515565b60ff84111561249957612498612679565b5b8360020a9150848211156124b0576124af612679565b5b50612515565b5060208310610133831016604e8410600b84101617156124eb5782820a9050838111156124e6576124e5612679565b5b612515565b6124f884848460016123ab565b9250905081840481111561250f5761250e612679565b5b81810290505b9392505050565b6000612527826125e8565b9150612532836125e8565b9250817fffffffffffffffffffffffffffffffffffffffffffffffffffffffffffffffff048311821515161561256b5761256a612679565b5b828202905092915050565b6000612581826125e8565b915061258c836125e8565b92508282101561259f5761259e612679565b5b828203905092915050565b60006125b5826125c8565b9050919050565b60008115159050919050565b600073ffffffffffffffffffffffffffffffffffffffff82169050919050565b6000819050919050565b600060ff82169050919050565b61260882612778565b810181811067ffffffffffffffff8211171561262757612626612735565b5b80604052505050565b600061263b826125e8565b91507fffffffffffffffffffffffffffffffffffffffffffffffffffffffffffffffff82141561266e5761266d612679565b5b600182019050919050565b7f4e487b7100000000000000000000000000000000000000000000000000000000600052601160045260246000fd5b7f4e487b7100000000000000000000000000000000000000000000000000000000600052601260045260246000fd5b7f4e487b7100000000000000000000000000000000000000000000000000000000600052603160045260246000fd5b7f4e487b7100000000000000000000000000000000000000000000000000000000600052603260045260246000fd5b7f4e487b7100000000000000000000000000000000000000000000000000000000600052604160045260246000fd5b600080fd5b600080fd5b600080fd5b600080fd5b6000601f19601f8301169050919050565b60008160011c9050919050565b7f4f776e61626c653a206e6577206f776e657220697320746865207a65726f206160008201527f6464726573730000000000000000000000000000000000000000000000000000602082015250565b7f5a65726f20616464726573732064657465637465640000000000000000000000600082015250565b7f596f7520617265206e6f7420616d6f206d616e61676572000000000000000000600082015250565b7f7265636976652077726f6e6720616d6f756e74206f6620746f6b656e73000000600082015250565b7f596f7520617265206e6f7420706f6f6c00000000000000000000000000000000600082015250565b7f4f776e61626c653a2063616c6c6572206973206e6f7420746865206f776e6572600082015250565b7f4173736574206e6f7420617661696c61626c6500000000000000000000000000600082015250565b6128e4816125aa565b81146128ef57600080fd5b50565b6128fb816125bc565b811461290657600080fd5b50565b612912816125e8565b811461291d57600080fd5b50565b612929816125f2565b811461293457600080fd5b5056fea264697066735822122043d0bffaad88e956a3e1b9101ad1f4318ed9060bf06e9a7468e88b805f083ff564736f6c63430008060033",
  "linkReferences": {},
  "deployedLinkReferences": {}
}