{
  "_format": "hh-sol-artifact-1",
  "contractName": "DTicket",
  "sourceName": "contracts/DTicket.sol",
  "abi": [
    {
      "inputs": [
        {
          "internalType": "address",
          "name": "_pool",
          "type": "address"
        }
      ],
      "stateMutability": "nonpayable",
      "type": "constructor"
    },
    {
      "anonymous": false,
      "inputs": [
        {
          "indexed": true,
          "internalType": "address",
          "name": "owner",
          "type": "address"
        },
        {
          "indexed": true,
          "internalType": "address",
          "name": "approved",
          "type": "address"
        },
        {
          "indexed": true,
          "internalType": "uint256",
          "name": "tokenId",
          "type": "uint256"
        }
      ],
      "name": "Approval",
      "type": "event"
    },
    {
      "anonymous": false,
      "inputs": [
        {
          "indexed": true,
          "internalType": "address",
          "name": "owner",
          "type": "address"
        },
        {
          "indexed": true,
          "internalType": "address",
          "name": "operator",
          "type": "address"
        },
        {
          "indexed": false,
          "internalType": "bool",
          "name": "approved",
          "type": "bool"
        }
      ],
      "name": "ApprovalForAll",
      "type": "event"
    },
    {
      "anonymous": false,
      "inputs": [
        {
          "indexed": true,
          "internalType": "address",
          "name": "from",
          "type": "address"
        },
        {
          "indexed": true,
          "internalType": "address",
          "name": "to",
          "type": "address"
        },
        {
          "indexed": true,
          "internalType": "uint256",
          "name": "tokenId",
          "type": "uint256"
        }
      ],
      "name": "Transfer",
      "type": "event"
    },
    {
      "inputs": [
        {
          "internalType": "address",
          "name": "to",
          "type": "address"
        },
        {
          "internalType": "uint256",
          "name": "tokenId",
          "type": "uint256"
        }
      ],
      "name": "approve",
      "outputs": [],
      "stateMutability": "nonpayable",
      "type": "function"
    },
    {
      "inputs": [
        {
          "internalType": "address",
          "name": "owner",
          "type": "address"
        }
      ],
      "name": "balanceOf",
      "outputs": [
        {
          "internalType": "uint256",
          "name": "",
          "type": "uint256"
        }
      ],
      "stateMutability": "view",
      "type": "function"
    },
    {
      "inputs": [
        {
          "internalType": "address",
          "name": "owner",
          "type": "address"
        },
        {
          "internalType": "uint256",
          "name": "_tokenId",
          "type": "uint256"
        }
      ],
      "name": "burnToken",
      "outputs": [],
      "stateMutability": "nonpayable",
      "type": "function"
    },
    {
      "inputs": [
        {
          "internalType": "uint256",
          "name": "tokenId",
          "type": "uint256"
        }
      ],
      "name": "getApproved",
      "outputs": [
        {
          "internalType": "address",
          "name": "",
          "type": "address"
        }
      ],
      "stateMutability": "view",
      "type": "function"
    },
    {
      "inputs": [
        {
          "internalType": "address",
          "name": "owner",
          "type": "address"
        },
        {
          "internalType": "address",
          "name": "operator",
          "type": "address"
        }
      ],
      "name": "isApprovedForAll",
      "outputs": [
        {
          "internalType": "bool",
          "name": "",
          "type": "bool"
        }
      ],
      "stateMutability": "view",
      "type": "function"
    },
    {
      "inputs": [
        {
          "internalType": "address",
          "name": "to",
          "type": "address"
        },
        {
          "internalType": "uint256",
          "name": "tokenId",
          "type": "uint256"
        }
      ],
      "name": "mintToken",
      "outputs": [],
      "stateMutability": "nonpayable",
      "type": "function"
    },
    {
      "inputs": [],
      "name": "name",
      "outputs": [
        {
          "internalType": "string",
          "name": "",
          "type": "string"
        }
      ],
      "stateMutability": "view",
      "type": "function"
    },
    {
      "inputs": [
        {
          "internalType": "uint256",
          "name": "tokenId",
          "type": "uint256"
        }
      ],
      "name": "ownerOf",
      "outputs": [
        {
          "internalType": "address",
          "name": "",
          "type": "address"
        }
      ],
      "stateMutability": "view",
      "type": "function"
    },
    {
      "inputs": [
        {
          "internalType": "address",
          "name": "from",
          "type": "address"
        },
        {
          "internalType": "address",
          "name": "to",
          "type": "address"
        },
        {
          "internalType": "uint256",
          "name": "tokenId",
          "type": "uint256"
        }
      ],
      "name": "safeTransferFrom",
      "outputs": [],
      "stateMutability": "nonpayable",
      "type": "function"
    },
    {
      "inputs": [
        {
          "internalType": "address",
          "name": "from",
          "type": "address"
        },
        {
          "internalType": "address",
          "name": "to",
          "type": "address"
        },
        {
          "internalType": "uint256",
          "name": "tokenId",
          "type": "uint256"
        },
        {
          "internalType": "bytes",
          "name": "_data",
          "type": "bytes"
        }
      ],
      "name": "safeTransferFrom",
      "outputs": [],
      "stateMutability": "nonpayable",
      "type": "function"
    },
    {
      "inputs": [
        {
          "internalType": "address",
          "name": "operator",
          "type": "address"
        },
        {
          "internalType": "bool",
          "name": "approved",
          "type": "bool"
        }
      ],
      "name": "setApprovalForAll",
      "outputs": [],
      "stateMutability": "nonpayable",
      "type": "function"
    },
    {
      "inputs": [
        {
          "internalType": "bytes4",
          "name": "interfaceId",
          "type": "bytes4"
        }
      ],
      "name": "supportsInterface",
      "outputs": [
        {
          "internalType": "bool",
          "name": "",
          "type": "bool"
        }
      ],
      "stateMutability": "view",
      "type": "function"
    },
    {
      "inputs": [],
      "name": "symbol",
      "outputs": [
        {
          "internalType": "string",
          "name": "",
          "type": "string"
        }
      ],
      "stateMutability": "view",
      "type": "function"
    },
    {
      "inputs": [
        {
          "internalType": "uint256",
          "name": "tokenId",
          "type": "uint256"
        }
      ],
      "name": "tokenURI",
      "outputs": [
        {
          "internalType": "string",
          "name": "",
          "type": "string"
        }
      ],
      "stateMutability": "view",
      "type": "function"
    },
    {
      "inputs": [
        {
          "internalType": "address",
          "name": "_to",
          "type": "address"
        },
        {
          "internalType": "uint256",
          "name": "_tokenId",
          "type": "uint256"
        }
      ],
      "name": "transfer",
      "outputs": [],
      "stateMutability": "nonpayable",
      "type": "function"
    },
    {
      "inputs": [
        {
          "internalType": "address",
          "name": "from",
          "type": "address"
        },
        {
          "internalType": "address",
          "name": "to",
          "type": "address"
        },
        {
          "internalType": "uint256",
          "name": "tokenId",
          "type": "uint256"
        }
      ],
      "name": "transferFrom",
      "outputs": [],
      "stateMutability": "nonpayable",
      "type": "function"
    }
  ],
  "bytecode": "0x60806040523480156200001157600080fd5b5060405162002e7638038062002e768339818101604052810190620000379190620001e6565b6040518060400160405280600b81526020017f445469636b65742d4e46540000000000000000000000000000000000000000008152506040518060400160405280600681526020017f44542d4e465400000000000000000000000000000000000000000000000000008152508160009080519060200190620000bb9291906200011f565b508060019080519060200190620000d49291906200011f565b50505080600660006101000a81548173ffffffffffffffffffffffffffffffffffffffff021916908373ffffffffffffffffffffffffffffffffffffffff16021790555050620002d0565b8280546200012d906200024c565b90600052602060002090601f0160209004810192826200015157600085556200019d565b82601f106200016c57805160ff19168380011785556200019d565b828001600101855582156200019d579182015b828111156200019c5782518255916020019190600101906200017f565b5b509050620001ac9190620001b0565b5090565b5b80821115620001cb576000816000905550600101620001b1565b5090565b600081519050620001e081620002b6565b92915050565b600060208284031215620001ff57620001fe620002b1565b5b60006200020f84828501620001cf565b91505092915050565b600062000225826200022c565b9050919050565b600073ffffffffffffffffffffffffffffffffffffffff82169050919050565b600060028204905060018216806200026557607f821691505b602082108114156200027c576200027b62000282565b5b50919050565b7f4e487b7100000000000000000000000000000000000000000000000000000000600052602260045260246000fd5b600080fd5b620002c18162000218565b8114620002cd57600080fd5b50565b612b9680620002e06000396000f3fe608060405234801561001057600080fd5b50600436106101005760003560e01c806379c6506811610097578063b88d4fde11610066578063b88d4fde146102a9578063c87b56dd146102c5578063d1df306c146102f5578063e985e9c51461031157610100565b806379c650681461023757806395d89b4114610253578063a22cb46514610271578063a9059cbb1461028d57610100565b806323b872dd116100d357806323b872dd1461019f57806342842e0e146101bb5780636352211e146101d757806370a082311461020757610100565b806301ffc9a71461010557806306fdde0314610135578063081812fc14610153578063095ea7b314610183575b600080fd5b61011f600480360381019061011a9190611c48565b610341565b60405161012c919061205a565b60405180910390f35b61013d610423565b60405161014a9190612075565b60405180910390f35b61016d60048036038101906101689190611ca2565b6104b5565b60405161017a9190611ff3565b60405180910390f35b61019d60048036038101906101989190611c08565b61053a565b005b6101b960048036038101906101b49190611af2565b610652565b005b6101d560048036038101906101d09190611af2565b6106b2565b005b6101f160048036038101906101ec9190611ca2565b6106d2565b6040516101fe9190611ff3565b60405180910390f35b610221600480360381019061021c9190611a85565b610784565b60405161022e9190612297565b60405180910390f35b610251600480360381019061024c9190611c08565b61083c565b005b61025b6108da565b6040516102689190612075565b60405180910390f35b61028b60048036038101906102869190611bc8565b61096c565b005b6102a760048036038101906102a29190611c08565b610982565b005b6102c360048036038101906102be9190611b45565b610a20565b005b6102df60048036038101906102da9190611ca2565b610a82565b6040516102ec9190612075565b60405180910390f35b61030f600480360381019061030a9190611c08565b610b29565b005b61032b60048036038101906103269190611ab2565b610c40565b604051610338919061205a565b60405180910390f35b60007f80ac58cd000000000000000000000000000000000000000000000000000000007bffffffffffffffffffffffffffffffffffffffffffffffffffffffff1916827bffffffffffffffffffffffffffffffffffffffffffffffffffffffff1916148061040c57507f5b5e139f000000000000000000000000000000000000000000000000000000007bffffffffffffffffffffffffffffffffffffffffffffffffffffffff1916827bffffffffffffffffffffffffffffffffffffffffffffffffffffffff1916145b8061041c575061041b82610cd4565b5b9050919050565b606060008054610432906124e5565b80601f016020809104026020016040519081016040528092919081815260200182805461045e906124e5565b80156104ab5780601f10610480576101008083540402835291602001916104ab565b820191906000526020600020905b81548152906001019060200180831161048e57829003601f168201915b5050505050905090565b60006104c082610d3e565b6104ff576040517f08c379a00000000000000000000000000000000000000000000000000000000081526004016104f6906121f7565b60405180910390fd5b6004600083815260200190815260200160002060009054906101000a900473ffffffffffffffffffffffffffffffffffffffff169050919050565b6000610545826106d2565b90508073ffffffffffffffffffffffffffffffffffffffff168373ffffffffffffffffffffffffffffffffffffffff1614156105b6576040517f08c379a00000000000000000000000000000000000000000000000000000000081526004016105ad90612257565b60405180910390fd5b8073ffffffffffffffffffffffffffffffffffffffff166105d5610daa565b73ffffffffffffffffffffffffffffffffffffffff1614806106045750610603816105fe610daa565b610c40565b5b610643576040517f08c379a000000000000000000000000000000000000000000000000000000000815260040161063a90612177565b60405180910390fd5b61064d8383610db2565b505050565b61066361065d610daa565b82610e6b565b6106a2576040517f08c379a000000000000000000000000000000000000000000000000000000000815260040161069990612277565b60405180910390fd5b6106ad838383610f49565b505050565b6106cd83838360405180602001604052806000815250610a20565b505050565b6000806002600084815260200190815260200160002060009054906101000a900473ffffffffffffffffffffffffffffffffffffffff169050600073ffffffffffffffffffffffffffffffffffffffff168173ffffffffffffffffffffffffffffffffffffffff16141561077b576040517f08c379a0000000000000000000000000000000000000000000000000000000008152600401610772906121b7565b60405180910390fd5b80915050919050565b60008073ffffffffffffffffffffffffffffffffffffffff168273ffffffffffffffffffffffffffffffffffffffff1614156107f5576040517f08c379a00000000000000000000000000000000000000000000000000000000081526004016107ec90612197565b60405180910390fd5b600360008373ffffffffffffffffffffffffffffffffffffffff1673ffffffffffffffffffffffffffffffffffffffff168152602001908152602001600020549050919050565b600660009054906101000a900473ffffffffffffffffffffffffffffffffffffffff1673ffffffffffffffffffffffffffffffffffffffff163373ffffffffffffffffffffffffffffffffffffffff16146108cc576040517f08c379a00000000000000000000000000000000000000000000000000000000081526004016108c390612097565b60405180910390fd5b6108d682826111b0565b5050565b6060600180546108e9906124e5565b80601f0160208091040260200160405190810160405280929190818152602001828054610915906124e5565b80156109625780601f1061093757610100808354040283529160200191610962565b820191906000526020600020905b81548152906001019060200180831161094557829003601f168201915b5050505050905090565b61097e610977610daa565b838361138a565b5050565b61098d338383610f49565b600660009054906101000a900473ffffffffffffffffffffffffffffffffffffffff1673ffffffffffffffffffffffffffffffffffffffff1663873fc99682846040518363ffffffff1660e01b81526004016109ea9291906122b2565b600060405180830381600087803b158015610a0457600080fd5b505af1158015610a18573d6000803e3d6000fd5b505050505050565b610a31610a2b610daa565b83610e6b565b610a70576040517f08c379a0000000000000000000000000000000000000000000000000000000008152600401610a6790612277565b60405180910390fd5b610a7c848484846114f7565b50505050565b6060610a8d82610d3e565b610acc576040517f08c379a0000000000000000000000000000000000000000000000000000000008152600401610ac390612217565b60405180910390fd5b6000610ad6611553565b90506000815111610af65760405180602001604052806000815250610b21565b80610b008461156a565b604051602001610b11929190611fcf565b6040516020818303038152906040525b915050919050565b600660009054906101000a900473ffffffffffffffffffffffffffffffffffffffff1673ffffffffffffffffffffffffffffffffffffffff163373ffffffffffffffffffffffffffffffffffffffff1614610bb9576040517f08c379a0000000000000000000000000000000000000000000000000000000008152600401610bb090612097565b60405180910390fd5b8181610bc4816106d2565b73ffffffffffffffffffffffffffffffffffffffff168273ffffffffffffffffffffffffffffffffffffffff1614610c31576040517f08c379a0000000000000000000000000000000000000000000000000000000008152600401610c2890612237565b60405180910390fd5b610c3a836116cb565b50505050565b6000600560008473ffffffffffffffffffffffffffffffffffffffff1673ffffffffffffffffffffffffffffffffffffffff16815260200190815260200160002060008373ffffffffffffffffffffffffffffffffffffffff1673ffffffffffffffffffffffffffffffffffffffff16815260200190815260200160002060009054906101000a900460ff16905092915050565b60007f01ffc9a7000000000000000000000000000000000000000000000000000000007bffffffffffffffffffffffffffffffffffffffffffffffffffffffff1916827bffffffffffffffffffffffffffffffffffffffffffffffffffffffff1916149050919050565b60008073ffffffffffffffffffffffffffffffffffffffff166002600084815260200190815260200160002060009054906101000a900473ffffffffffffffffffffffffffffffffffffffff1673ffffffffffffffffffffffffffffffffffffffff1614159050919050565b600033905090565b816004600083815260200190815260200160002060006101000a81548173ffffffffffffffffffffffffffffffffffffffff021916908373ffffffffffffffffffffffffffffffffffffffff160217905550808273ffffffffffffffffffffffffffffffffffffffff16610e25836106d2565b73ffffffffffffffffffffffffffffffffffffffff167f8c5be1e5ebec7d5bd14f71427d1e84f3dd0314c0f7b2291e5b200ac8c7c3b92560405160405180910390a45050565b6000610e7682610d3e565b610eb5576040517f08c379a0000000000000000000000000000000000000000000000000000000008152600401610eac90612157565b60405180910390fd5b6000610ec0836106d2565b90508073ffffffffffffffffffffffffffffffffffffffff168473ffffffffffffffffffffffffffffffffffffffff161480610f2f57508373ffffffffffffffffffffffffffffffffffffffff16610f17846104b5565b73ffffffffffffffffffffffffffffffffffffffff16145b80610f405750610f3f8185610c40565b5b91505092915050565b8273ffffffffffffffffffffffffffffffffffffffff16610f69826106d2565b73ffffffffffffffffffffffffffffffffffffffff1614610fbf576040517f08c379a0000000000000000000000000000000000000000000000000000000008152600401610fb6906120d7565b60405180910390fd5b600073ffffffffffffffffffffffffffffffffffffffff168273ffffffffffffffffffffffffffffffffffffffff16141561102f576040517f08c379a000000000000000000000000000000000000000000000000000000000815260040161102690612117565b60405180910390fd5b61103a8383836117e8565b611045600082610db2565b6001600360008573ffffffffffffffffffffffffffffffffffffffff1673ffffffffffffffffffffffffffffffffffffffff168152602001908152602001600020600082825461109591906123fb565b925050819055506001600360008473ffffffffffffffffffffffffffffffffffffffff1673ffffffffffffffffffffffffffffffffffffffff16815260200190815260200160002060008282546110ec9190612374565b92505081905550816002600083815260200190815260200160002060006101000a81548173ffffffffffffffffffffffffffffffffffffffff021916908373ffffffffffffffffffffffffffffffffffffffff160217905550808273ffffffffffffffffffffffffffffffffffffffff168473ffffffffffffffffffffffffffffffffffffffff167fddf252ad1be2c89b69c2b068fc378daa952ba7f163c4a11628f55a4df523b3ef60405160405180910390a46111ab8383836117ed565b505050565b600073ffffffffffffffffffffffffffffffffffffffff168273ffffffffffffffffffffffffffffffffffffffff161415611220576040517f08c379a0000000000000000000000000000000000000000000000000000000008152600401611217906121d7565b60405180910390fd5b61122981610d3e565b15611269576040517f08c379a0000000000000000000000000000000000000000000000000000000008152600401611260906120f7565b60405180910390fd5b611275600083836117e8565b6001600360008473ffffffffffffffffffffffffffffffffffffffff1673ffffffffffffffffffffffffffffffffffffffff16815260200190815260200160002060008282546112c59190612374565b92505081905550816002600083815260200190815260200160002060006101000a81548173ffffffffffffffffffffffffffffffffffffffff021916908373ffffffffffffffffffffffffffffffffffffffff160217905550808273ffffffffffffffffffffffffffffffffffffffff16600073ffffffffffffffffffffffffffffffffffffffff167fddf252ad1be2c89b69c2b068fc378daa952ba7f163c4a11628f55a4df523b3ef60405160405180910390a4611386600083836117ed565b5050565b8173ffffffffffffffffffffffffffffffffffffffff168373ffffffffffffffffffffffffffffffffffffffff1614156113f9576040517f08c379a00000000000000000000000000000000000000000000000000000000081526004016113f090612137565b60405180910390fd5b80600560008573ffffffffffffffffffffffffffffffffffffffff1673ffffffffffffffffffffffffffffffffffffffff16815260200190815260200160002060008473ffffffffffffffffffffffffffffffffffffffff1673ffffffffffffffffffffffffffffffffffffffff16815260200190815260200160002060006101000a81548160ff0219169083151502179055508173ffffffffffffffffffffffffffffffffffffffff168373ffffffffffffffffffffffffffffffffffffffff167f17307eab39ab6107e8899845ad3d59bd9653f200f220920489ca2b5937696c31836040516114ea919061205a565b60405180910390a3505050565b611502848484610f49565b61150e848484846117f2565b61154d576040517f08c379a0000000000000000000000000000000000000000000000000000000008152600401611544906120b7565b60405180910390fd5b50505050565b606060405180602001604052806000815250905090565b606060008214156115b2576040518060400160405280600181526020017f300000000000000000000000000000000000000000000000000000000000000081525090506116c6565b600082905060005b600082146115e45780806115cd90612548565b915050600a826115dd91906123ca565b91506115ba565b60008167ffffffffffffffff811115611600576115ff61267e565b5b6040519080825280601f01601f1916602001820160405280156116325781602001600182028036833780820191505090505b5090505b600085146116bf5760018261164b91906123fb565b9150600a8561165a9190612591565b60306116669190612374565b60f81b81838151811061167c5761167b61264f565b5b60200101907effffffffffffffffffffffffffffffffffffffffffffffffffffffffffffff1916908160001a905350600a856116b891906123ca565b9450611636565b8093505050505b919050565b60006116d6826106d2565b90506116e4816000846117e8565b6116ef600083610db2565b6001600360008373ffffffffffffffffffffffffffffffffffffffff1673ffffffffffffffffffffffffffffffffffffffff168152602001908152602001600020600082825461173f91906123fb565b925050819055506002600083815260200190815260200160002060006101000a81549073ffffffffffffffffffffffffffffffffffffffff021916905581600073ffffffffffffffffffffffffffffffffffffffff168273ffffffffffffffffffffffffffffffffffffffff167fddf252ad1be2c89b69c2b068fc378daa952ba7f163c4a11628f55a4df523b3ef60405160405180910390a46117e4816000846117ed565b5050565b505050565b505050565b60006118138473ffffffffffffffffffffffffffffffffffffffff16611989565b1561197c578373ffffffffffffffffffffffffffffffffffffffff1663150b7a0261183c610daa565b8786866040518563ffffffff1660e01b815260040161185e949392919061200e565b602060405180830381600087803b15801561187857600080fd5b505af19250505080156118a957506040513d601f19601f820116820180604052508101906118a69190611c75565b60015b61192c573d80600081146118d9576040519150601f19603f3d011682016040523d82523d6000602084013e6118de565b606091505b50600081511415611924576040517f08c379a000000000000000000000000000000000000000000000000000000000815260040161191b906120b7565b60405180910390fd5b805181602001fd5b63150b7a0260e01b7bffffffffffffffffffffffffffffffffffffffffffffffffffffffff1916817bffffffffffffffffffffffffffffffffffffffffffffffffffffffff191614915050611981565b600190505b949350505050565b6000808273ffffffffffffffffffffffffffffffffffffffff163b119050919050565b60006119bf6119ba84612300565b6122db565b9050828152602081018484840111156119db576119da6126b2565b5b6119e68482856124a3565b509392505050565b6000813590506119fd81612b04565b92915050565b600081359050611a1281612b1b565b92915050565b600081359050611a2781612b32565b92915050565b600081519050611a3c81612b32565b92915050565b600082601f830112611a5757611a566126ad565b5b8135611a678482602086016119ac565b91505092915050565b600081359050611a7f81612b49565b92915050565b600060208284031215611a9b57611a9a6126bc565b5b6000611aa9848285016119ee565b91505092915050565b60008060408385031215611ac957611ac86126bc565b5b6000611ad7858286016119ee565b9250506020611ae8858286016119ee565b9150509250929050565b600080600060608486031215611b0b57611b0a6126bc565b5b6000611b19868287016119ee565b9350506020611b2a868287016119ee565b9250506040611b3b86828701611a70565b9150509250925092565b60008060008060808587031215611b5f57611b5e6126bc565b5b6000611b6d878288016119ee565b9450506020611b7e878288016119ee565b9350506040611b8f87828801611a70565b925050606085013567ffffffffffffffff811115611bb057611baf6126b7565b5b611bbc87828801611a42565b91505092959194509250565b60008060408385031215611bdf57611bde6126bc565b5b6000611bed858286016119ee565b9250506020611bfe85828601611a03565b9150509250929050565b60008060408385031215611c1f57611c1e6126bc565b5b6000611c2d858286016119ee565b9250506020611c3e85828601611a70565b9150509250929050565b600060208284031215611c5e57611c5d6126bc565b5b6000611c6c84828501611a18565b91505092915050565b600060208284031215611c8b57611c8a6126bc565b5b6000611c9984828501611a2d565b91505092915050565b600060208284031215611cb857611cb76126bc565b5b6000611cc684828501611a70565b91505092915050565b611cd88161242f565b82525050565b611ce781612441565b82525050565b6000611cf882612331565b611d028185612347565b9350611d128185602086016124b2565b611d1b816126c1565b840191505092915050565b6000611d318261233c565b611d3b8185612358565b9350611d4b8185602086016124b2565b611d54816126c1565b840191505092915050565b6000611d6a8261233c565b611d748185612369565b9350611d848185602086016124b2565b80840191505092915050565b6000611d9d600983612358565b9150611da8826126d2565b602082019050919050565b6000611dc0603283612358565b9150611dcb826126fb565b604082019050919050565b6000611de3602583612358565b9150611dee8261274a565b604082019050919050565b6000611e06601c83612358565b9150611e1182612799565b602082019050919050565b6000611e29602483612358565b9150611e34826127c2565b604082019050919050565b6000611e4c601983612358565b9150611e5782612811565b602082019050919050565b6000611e6f602c83612358565b9150611e7a8261283a565b604082019050919050565b6000611e92603883612358565b9150611e9d82612889565b604082019050919050565b6000611eb5602a83612358565b9150611ec0826128d8565b604082019050919050565b6000611ed8602983612358565b9150611ee382612927565b604082019050919050565b6000611efb602083612358565b9150611f0682612976565b602082019050919050565b6000611f1e602c83612358565b9150611f298261299f565b604082019050919050565b6000611f41602f83612358565b9150611f4c826129ee565b604082019050919050565b6000611f64601483612358565b9150611f6f82612a3d565b602082019050919050565b6000611f87602183612358565b9150611f9282612a66565b604082019050919050565b6000611faa603183612358565b9150611fb582612ab5565b604082019050919050565b611fc981612499565b82525050565b6000611fdb8285611d5f565b9150611fe78284611d5f565b91508190509392505050565b60006020820190506120086000830184611ccf565b92915050565b60006080820190506120236000830187611ccf565b6120306020830186611ccf565b61203d6040830185611fc0565b818103606083015261204f8184611ced565b905095945050505050565b600060208201905061206f6000830184611cde565b92915050565b6000602082019050818103600083015261208f8184611d26565b905092915050565b600060208201905081810360008301526120b081611d90565b9050919050565b600060208201905081810360008301526120d081611db3565b9050919050565b600060208201905081810360008301526120f081611dd6565b9050919050565b6000602082019050818103600083015261211081611df9565b9050919050565b6000602082019050818103600083015261213081611e1c565b9050919050565b6000602082019050818103600083015261215081611e3f565b9050919050565b6000602082019050818103600083015261217081611e62565b9050919050565b6000602082019050818103600083015261219081611e85565b9050919050565b600060208201905081810360008301526121b081611ea8565b9050919050565b600060208201905081810360008301526121d081611ecb565b9050919050565b600060208201905081810360008301526121f081611eee565b9050919050565b6000602082019050818103600083015261221081611f11565b9050919050565b6000602082019050818103600083015261223081611f34565b9050919050565b6000602082019050818103600083015261225081611f57565b9050919050565b6000602082019050818103600083015261227081611f7a565b9050919050565b6000602082019050818103600083015261229081611f9d565b9050919050565b60006020820190506122ac6000830184611fc0565b92915050565b60006040820190506122c76000830185611fc0565b6122d46020830184611ccf565b9392505050565b60006122e56122f6565b90506122f18282612517565b919050565b6000604051905090565b600067ffffffffffffffff82111561231b5761231a61267e565b5b612324826126c1565b9050602081019050919050565b600081519050919050565b600081519050919050565b600082825260208201905092915050565b600082825260208201905092915050565b600081905092915050565b600061237f82612499565b915061238a83612499565b9250827fffffffffffffffffffffffffffffffffffffffffffffffffffffffffffffffff038211156123bf576123be6125c2565b5b828201905092915050565b60006123d582612499565b91506123e083612499565b9250826123f0576123ef6125f1565b5b828204905092915050565b600061240682612499565b915061241183612499565b925082821015612424576124236125c2565b5b828203905092915050565b600061243a82612479565b9050919050565b60008115159050919050565b60007fffffffff0000000000000000000000000000000000000000000000000000000082169050919050565b600073ffffffffffffffffffffffffffffffffffffffff82169050919050565b6000819050919050565b82818337600083830152505050565b60005b838110156124d05780820151818401526020810190506124b5565b838111156124df576000848401525b50505050565b600060028204905060018216806124fd57607f821691505b6020821081141561251157612510612620565b5b50919050565b612520826126c1565b810181811067ffffffffffffffff8211171561253f5761253e61267e565b5b80604052505050565b600061255382612499565b91507fffffffffffffffffffffffffffffffffffffffffffffffffffffffffffffffff821415612586576125856125c2565b5b600182019050919050565b600061259c82612499565b91506125a783612499565b9250826125b7576125b66125f1565b5b828206905092915050565b7f4e487b7100000000000000000000000000000000000000000000000000000000600052601160045260246000fd5b7f4e487b7100000000000000000000000000000000000000000000000000000000600052601260045260246000fd5b7f4e487b7100000000000000000000000000000000000000000000000000000000600052602260045260246000fd5b7f4e487b7100000000000000000000000000000000000000000000000000000000600052603260045260246000fd5b7f4e487b7100000000000000000000000000000000000000000000000000000000600052604160045260246000fd5b600080fd5b600080fd5b600080fd5b600080fd5b6000601f19601f8301169050919050565b7f6f6e6c7920506f6f6c0000000000000000000000000000000000000000000000600082015250565b7f4552433732313a207472616e7366657220746f206e6f6e20455243373231526560008201527f63656976657220696d706c656d656e7465720000000000000000000000000000602082015250565b7f4552433732313a207472616e736665722066726f6d20696e636f72726563742060008201527f6f776e6572000000000000000000000000000000000000000000000000000000602082015250565b7f4552433732313a20746f6b656e20616c7265616479206d696e74656400000000600082015250565b7f4552433732313a207472616e7366657220746f20746865207a65726f2061646460008201527f7265737300000000000000000000000000000000000000000000000000000000602082015250565b7f4552433732313a20617070726f766520746f2063616c6c657200000000000000600082015250565b7f4552433732313a206f70657261746f7220717565727920666f72206e6f6e657860008201527f697374656e7420746f6b656e0000000000000000000000000000000000000000602082015250565b7f4552433732313a20617070726f76652063616c6c6572206973206e6f74206f7760008201527f6e6572206e6f7220617070726f76656420666f7220616c6c0000000000000000602082015250565b7f4552433732313a2062616c616e636520717565727920666f7220746865207a6560008201527f726f206164647265737300000000000000000000000000000000000000000000602082015250565b7f4552433732313a206f776e657220717565727920666f72206e6f6e657869737460008201527f656e7420746f6b656e0000000000000000000000000000000000000000000000602082015250565b7f4552433732313a206d696e7420746f20746865207a65726f2061646472657373600082015250565b7f4552433732313a20617070726f76656420717565727920666f72206e6f6e657860008201527f697374656e7420746f6b656e0000000000000000000000000000000000000000602082015250565b7f4552433732314d657461646174613a2055524920717565727920666f72206e6f60008201527f6e6578697374656e7420746f6b656e0000000000000000000000000000000000602082015250565b7f546865204e4654206973206e6f7420796f757273000000000000000000000000600082015250565b7f4552433732313a20617070726f76616c20746f2063757272656e74206f776e6560008201527f7200000000000000000000000000000000000000000000000000000000000000602082015250565b7f4552433732313a207472616e736665722063616c6c6572206973206e6f74206f60008201527f776e6572206e6f7220617070726f766564000000000000000000000000000000602082015250565b612b0d8161242f565b8114612b1857600080fd5b50565b612b2481612441565b8114612b2f57600080fd5b50565b612b3b8161244d565b8114612b4657600080fd5b50565b612b5281612499565b8114612b5d57600080fd5b5056fea2646970667358221220a4d958d8f66a5c32c68854add0d6e477a8a7e5f8febbfeec476f1cdbfdbc90ff64736f6c63430008060033",
  "linkReferences": {},
  "deployedLinkReferences": {}
}