{
  "_format": "hh-sol-artifact-1",
  "contractName": "BuybackVault",
  "sourceName": "contracts/BuybackVault.sol",
  "abi": [
    {
      "inputs": [
        {
          "internalType": "address",
          "name": "_depos_address",
          "type": "address"
        },
        {
          "internalType": "address",
          "name": "_pool_address",
          "type": "address"
        },
        {
          "internalType": "address",
          "name": "_oracle_address",
          "type": "address"
        },
        {
          "internalType": "address",
          "name": "_asset_manager_address",
          "type": "address"
        },
        {
          "internalType": "address",
          "name": "_amo_manager_address",
          "type": "address"
        },
        {
          "internalType": "uint256",
          "name": "_buyback_bonus",
          "type": "uint256"
        }
      ],
      "stateMutability": "nonpayable",
      "type": "constructor"
    },
    {
      "anonymous": false,
      "inputs": [
        {
          "indexed": true,
          "internalType": "address",
          "name": "previousOwner",
          "type": "address"
        },
        {
          "indexed": true,
          "internalType": "address",
          "name": "newOwner",
          "type": "address"
        }
      ],
      "name": "OwnershipTransferred",
      "type": "event"
    },
    {
      "anonymous": false,
      "inputs": [
        {
          "indexed": false,
          "internalType": "uint256",
          "name": "Amount",
          "type": "uint256"
        },
        {
          "indexed": false,
          "internalType": "address",
          "name": "From",
          "type": "address"
        },
        {
          "indexed": false,
          "internalType": "address",
          "name": "Token",
          "type": "address"
        }
      ],
      "name": "TransferIn",
      "type": "event"
    },
    {
      "anonymous": false,
      "inputs": [
        {
          "indexed": false,
          "internalType": "uint256",
          "name": "Amount",
          "type": "uint256"
        },
        {
          "indexed": false,
          "internalType": "address",
          "name": "To",
          "type": "address"
        },
        {
          "indexed": false,
          "internalType": "address",
          "name": "Token",
          "type": "address"
        }
      ],
      "name": "TransferOut",
      "type": "event"
    },
    {
      "inputs": [
        {
          "internalType": "address",
          "name": "asset_address",
          "type": "address"
        }
      ],
      "name": "AssetBalance",
      "outputs": [
        {
          "internalType": "uint256",
          "name": "",
          "type": "uint256"
        }
      ],
      "stateMutability": "view",
      "type": "function"
    },
    {
      "inputs": [
        {
          "internalType": "address",
          "name": "asset_address",
          "type": "address"
        }
      ],
      "name": "AssetDollarBalance",
      "outputs": [
        {
          "internalType": "uint256",
          "name": "",
          "type": "uint256"
        }
      ],
      "stateMutability": "view",
      "type": "function"
    },
    {
      "inputs": [],
      "name": "VaultDollarBalance",
      "outputs": [
        {
          "internalType": "uint256",
          "name": "",
          "type": "uint256"
        }
      ],
      "stateMutability": "view",
      "type": "function"
    },
    {
      "inputs": [],
      "name": "amo_manager_address",
      "outputs": [
        {
          "internalType": "address",
          "name": "",
          "type": "address"
        }
      ],
      "stateMutability": "view",
      "type": "function"
    },
    {
      "inputs": [],
      "name": "asset_manager_address",
      "outputs": [
        {
          "internalType": "address",
          "name": "",
          "type": "address"
        }
      ],
      "stateMutability": "view",
      "type": "function"
    },
    {
      "inputs": [
        {
          "internalType": "uint256",
          "name": "depos_amount",
          "type": "uint256"
        },
        {
          "internalType": "address",
          "name": "asset_address",
          "type": "address"
        }
      ],
      "name": "buybackDepos",
      "outputs": [],
      "stateMutability": "nonpayable",
      "type": "function"
    },
    {
      "inputs": [],
      "name": "depos_address",
      "outputs": [
        {
          "internalType": "address",
          "name": "",
          "type": "address"
        }
      ],
      "stateMutability": "view",
      "type": "function"
    },
    {
      "inputs": [],
      "name": "oracle_address",
      "outputs": [
        {
          "internalType": "address",
          "name": "",
          "type": "address"
        }
      ],
      "stateMutability": "view",
      "type": "function"
    },
    {
      "inputs": [],
      "name": "owner",
      "outputs": [
        {
          "internalType": "address",
          "name": "",
          "type": "address"
        }
      ],
      "stateMutability": "view",
      "type": "function"
    },
    {
      "inputs": [],
      "name": "pool_address",
      "outputs": [
        {
          "internalType": "address",
          "name": "",
          "type": "address"
        }
      ],
      "stateMutability": "view",
      "type": "function"
    },
    {
      "inputs": [],
      "name": "renounceOwnership",
      "outputs": [],
      "stateMutability": "nonpayable",
      "type": "function"
    },
    {
      "inputs": [
        {
          "internalType": "address",
          "name": "new_amo_manager",
          "type": "address"
        }
      ],
      "name": "setAMOManagerAddress",
      "outputs": [],
      "stateMutability": "nonpayable",
      "type": "function"
    },
    {
      "inputs": [
        {
          "internalType": "address",
          "name": "new_asset_manager",
          "type": "address"
        }
      ],
      "name": "setAssetManagerAddress",
      "outputs": [],
      "stateMutability": "nonpayable",
      "type": "function"
    },
    {
      "inputs": [
        {
          "internalType": "uint256",
          "name": "new_buyback_bonus",
          "type": "uint256"
        }
      ],
      "name": "setBuybackBonus",
      "outputs": [],
      "stateMutability": "nonpayable",
      "type": "function"
    },
    {
      "inputs": [
        {
          "internalType": "address",
          "name": "new_depos",
          "type": "address"
        }
      ],
      "name": "setDeposAddress",
      "outputs": [],
      "stateMutability": "nonpayable",
      "type": "function"
    },
    {
      "inputs": [
        {
          "internalType": "address",
          "name": "new_oracle",
          "type": "address"
        }
      ],
      "name": "setOracleAddress",
      "outputs": [],
      "stateMutability": "nonpayable",
      "type": "function"
    },
    {
      "inputs": [
        {
          "internalType": "address",
          "name": "new_pool",
          "type": "address"
        }
      ],
      "name": "setPoolAddress",
      "outputs": [],
      "stateMutability": "nonpayable",
      "type": "function"
    },
    {
      "inputs": [
        {
          "internalType": "address",
          "name": "newOwner",
          "type": "address"
        }
      ],
      "name": "transferOwnership",
      "outputs": [],
      "stateMutability": "nonpayable",
      "type": "function"
    }
  ],
  "bytecode": "0x60806040523480156200001157600080fd5b50604051620029f4380380620029f483398181016040528101906200003791906200044d565b620000576200004b6200035360201b60201c565b6200035b60201b60201c565b600073ffffffffffffffffffffffffffffffffffffffff168673ffffffffffffffffffffffffffffffffffffffff1614158015620000c25750600073ffffffffffffffffffffffffffffffffffffffff168573ffffffffffffffffffffffffffffffffffffffff1614155b8015620000fc5750600073ffffffffffffffffffffffffffffffffffffffff168473ffffffffffffffffffffffffffffffffffffffff1614155b8015620001365750600073ffffffffffffffffffffffffffffffffffffffff168373ffffffffffffffffffffffffffffffffffffffff1614155b8015620001705750600073ffffffffffffffffffffffffffffffffffffffff168273ffffffffffffffffffffffffffffffffffffffff1614155b620001b2576040517f08c379a0000000000000000000000000000000000000000000000000000000008152600401620001a99062000559565b60405180910390fd5b620f4240811115620001fb576040517f08c379a0000000000000000000000000000000000000000000000000000000008152600401620001f29062000537565b60405180910390fd5b84600160006101000a81548173ffffffffffffffffffffffffffffffffffffffff021916908373ffffffffffffffffffffffffffffffffffffffff16021790555085600260006101000a81548173ffffffffffffffffffffffffffffffffffffffff021916908373ffffffffffffffffffffffffffffffffffffffff16021790555083600560006101000a81548173ffffffffffffffffffffffffffffffffffffffff021916908373ffffffffffffffffffffffffffffffffffffffff16021790555082600460006101000a81548173ffffffffffffffffffffffffffffffffffffffff021916908373ffffffffffffffffffffffffffffffffffffffff16021790555081600360006101000a81548173ffffffffffffffffffffffffffffffffffffffff021916908373ffffffffffffffffffffffffffffffffffffffff1602179055508060068190555050505050505062000655565b600033905090565b60008060009054906101000a900473ffffffffffffffffffffffffffffffffffffffff169050816000806101000a81548173ffffffffffffffffffffffffffffffffffffffff021916908373ffffffffffffffffffffffffffffffffffffffff1602179055508173ffffffffffffffffffffffffffffffffffffffff168173ffffffffffffffffffffffffffffffffffffffff167f8be0079c531659141344cd1fd0a4f28419497f9722a3daafe3b4186f6b6457e060405160405180910390a35050565b600081519050620004308162000621565b92915050565b60008151905062000447816200063b565b92915050565b60008060008060008060c087890312156200046d576200046c620005ca565b5b60006200047d89828a016200041f565b96505060206200049089828a016200041f565b9550506040620004a389828a016200041f565b9450506060620004b689828a016200041f565b9350506080620004c989828a016200041f565b92505060a0620004dc89828a0162000436565b9150509295509295509295565b6000620004f86018836200057b565b91506200050582620005cf565b602082019050919050565b60006200051f6015836200057b565b91506200052c82620005f8565b602082019050919050565b600060208201905081810360008301526200055281620004e9565b9050919050565b60006020820190508181036000830152620005748162000510565b9050919050565b600082825260208201905092915050565b60006200059982620005a0565b9050919050565b600073ffffffffffffffffffffffffffffffffffffffff82169050919050565b6000819050919050565b600080fd5b7f426f6e75732063616e6e6f742065786365656420313030250000000000000000600082015250565b7f5a65726f20616464726573732064657465637465640000000000000000000000600082015250565b6200062c816200058c565b81146200063857600080fd5b50565b6200064681620005c0565b81146200065257600080fd5b50565b61238f80620006656000396000f3fe608060405234801561001057600080fd5b50600436106101165760003560e01c80638da5cb5b116100a2578063e3bf44b911610071578063e3bf44b9146102ab578063e9e15b4f146102c7578063f2fde38b146102e3578063f4f20c9b146102ff578063ff40032a1461031b57610116565b80638da5cb5b146102235780639f24d6fb14610241578063c038fc391461025f578063da90aeef1461027b57610116565b80634c69c00f116100e95780634c69c00f14610191578063715018a6146101ad57806372de3bd2146101b75780637e0c1792146101e75780638b6da6251461020557610116565b80630dbf67421461011b578063190d7da3146101395780634755abbb146101575780634c26d55d14610175575b600080fd5b610123610337565b6040516101309190611e71565b60405180910390f35b610141610646565b60405161014e9190611d4d565b60405180910390f35b61015f61066c565b60405161016c9190611d4d565b60405180910390f35b61018f600480360381019061018a9190611ba0565b610692565b005b6101ab60048036038101906101a69190611afd565b61075d565b005b6101b561088d565b005b6101d160048036038101906101cc9190611afd565b610915565b6040516101de9190611e71565b60405180910390f35b6101ef610b69565b6040516101fc9190611d4d565b60405180910390f35b61020d610b8f565b60405161021a9190611d4d565b60405180910390f35b61022b610bb5565b6040516102389190611d4d565b60405180910390f35b610249610bde565b6040516102569190611d4d565b60405180910390f35b61027960048036038101906102749190611afd565b610c04565b005b61029560048036038101906102909190611afd565b610d34565b6040516102a29190611e71565b60405180910390f35b6102c560048036038101906102c09190611afd565b610eb9565b005b6102e160048036038101906102dc9190611afd565b610fe9565b005b6102fd60048036038101906102f89190611afd565b611119565b005b61031960048036038101906103149190611afd565b611211565b005b61033560048036038101906103309190611bfa565b611341565b005b600080600460009054906101000a900473ffffffffffffffffffffffffffffffffffffffff1690506000805b8273ffffffffffffffffffffffffffffffffffffffff1663463ad28d6040518163ffffffff1660e01b815260040160006040518083038186803b1580156103a957600080fd5b505afa1580156103bd573d6000803e3d6000fd5b505050506040513d6000823e3d601f19601f820116820180604052508101906103e69190611b2a565b5181101561063d5760008373ffffffffffffffffffffffffffffffffffffffff1663463ad28d6040518163ffffffff1660e01b815260040160006040518083038186803b15801561043657600080fd5b505afa15801561044a573d6000803e3d6000fd5b505050506040513d6000823e3d601f19601f820116820180604052508101906104739190611b2a565b828151811061048557610484612126565b5b60200260200101519050600073ffffffffffffffffffffffffffffffffffffffff168173ffffffffffffffffffffffffffffffffffffffff16146106295760008173ffffffffffffffffffffffffffffffffffffffff166370a08231306040518263ffffffff1660e01b81526004016104fe9190611d4d565b60206040518083038186803b15801561051657600080fd5b505afa15801561052a573d6000803e3d6000fd5b505050506040513d601f19601f8201168201806040525081019061054e9190611bcd565b90506000600560009054906101000a900473ffffffffffffffffffffffffffffffffffffffff1673ffffffffffffffffffffffffffffffffffffffff166341976e09846040518263ffffffff1660e01b81526004016105ad9190611d4d565b60206040518083038186803b1580156105c557600080fd5b505afa1580156105d9573d6000803e3d6000fd5b505050506040513d601f19601f820116820180604052508101906105fd9190611bcd565b9050620f4240818361060f9190611fac565b6106199190611f7b565b856106249190611f25565b945050505b5080806106359061207f565b915050610363565b50809250505090565b600460009054906101000a900473ffffffffffffffffffffffffffffffffffffffff1681565b600160009054906101000a900473ffffffffffffffffffffffffffffffffffffffff1681565b61069a611764565b73ffffffffffffffffffffffffffffffffffffffff166106b8610bb5565b73ffffffffffffffffffffffffffffffffffffffff161461070e576040517f08c379a000000000000000000000000000000000000000000000000000000000815260040161070590611e11565b60405180910390fd5b620f42408110610753576040517f08c379a000000000000000000000000000000000000000000000000000000000815260040161074a90611d91565b60405180910390fd5b8060068190555050565b610765611764565b73ffffffffffffffffffffffffffffffffffffffff16610783610bb5565b73ffffffffffffffffffffffffffffffffffffffff16146107d9576040517f08c379a00000000000000000000000000000000000000000000000000000000081526004016107d090611e11565b60405180910390fd5b600073ffffffffffffffffffffffffffffffffffffffff168173ffffffffffffffffffffffffffffffffffffffff161415610849576040517f08c379a000000000000000000000000000000000000000000000000000000000815260040161084090611dd1565b60405180910390fd5b80600560006101000a81548173ffffffffffffffffffffffffffffffffffffffff021916908373ffffffffffffffffffffffffffffffffffffffff16021790555050565b610895611764565b73ffffffffffffffffffffffffffffffffffffffff166108b3610bb5565b73ffffffffffffffffffffffffffffffffffffffff1614610909576040517f08c379a000000000000000000000000000000000000000000000000000000000815260040161090090611e11565b60405180910390fd5b610913600061176c565b565b60008160011515600460009054906101000a900473ffffffffffffffffffffffffffffffffffffffff1673ffffffffffffffffffffffffffffffffffffffff1663d44da15f836040518263ffffffff1660e01b81526004016109779190611d4d565b60206040518083038186803b15801561098f57600080fd5b505afa1580156109a3573d6000803e3d6000fd5b505050506040513d601f19601f820116820180604052508101906109c79190611b73565b151514610a09576040517f08c379a0000000000000000000000000000000000000000000000000000000008152600401610a0090611e51565b60405180910390fd5b60008373ffffffffffffffffffffffffffffffffffffffff166370a08231306040518263ffffffff1660e01b8152600401610a449190611d4d565b60206040518083038186803b158015610a5c57600080fd5b505afa158015610a70573d6000803e3d6000fd5b505050506040513d601f19601f82011682018060405250810190610a949190611bcd565b90506000600560009054906101000a900473ffffffffffffffffffffffffffffffffffffffff1673ffffffffffffffffffffffffffffffffffffffff166341976e09866040518263ffffffff1660e01b8152600401610af39190611d4d565b60206040518083038186803b158015610b0b57600080fd5b505afa158015610b1f573d6000803e3d6000fd5b505050506040513d601f19601f82011682018060405250810190610b439190611bcd565b9050620f42408183610b559190611fac565b610b5f9190611f7b565b9350505050919050565b600560009054906101000a900473ffffffffffffffffffffffffffffffffffffffff1681565b600360009054906101000a900473ffffffffffffffffffffffffffffffffffffffff1681565b60008060009054906101000a900473ffffffffffffffffffffffffffffffffffffffff16905090565b600260009054906101000a900473ffffffffffffffffffffffffffffffffffffffff1681565b610c0c611764565b73ffffffffffffffffffffffffffffffffffffffff16610c2a610bb5565b73ffffffffffffffffffffffffffffffffffffffff1614610c80576040517f08c379a0000000000000000000000000000000000000000000000000000000008152600401610c7790611e11565b60405180910390fd5b600073ffffffffffffffffffffffffffffffffffffffff168173ffffffffffffffffffffffffffffffffffffffff161415610cf0576040517f08c379a0000000000000000000000000000000000000000000000000000000008152600401610ce790611dd1565b60405180910390fd5b80600360006101000a81548173ffffffffffffffffffffffffffffffffffffffff021916908373ffffffffffffffffffffffffffffffffffffffff16021790555050565b60008160011515600460009054906101000a900473ffffffffffffffffffffffffffffffffffffffff1673ffffffffffffffffffffffffffffffffffffffff1663d44da15f836040518263ffffffff1660e01b8152600401610d969190611d4d565b60206040518083038186803b158015610dae57600080fd5b505afa158015610dc2573d6000803e3d6000fd5b505050506040513d601f19601f82011682018060405250810190610de69190611b73565b151514610e28576040517f08c379a0000000000000000000000000000000000000000000000000000000008152600401610e1f90611e51565b60405180910390fd5b8273ffffffffffffffffffffffffffffffffffffffff166370a08231306040518263ffffffff1660e01b8152600401610e619190611d4d565b60206040518083038186803b158015610e7957600080fd5b505afa158015610e8d573d6000803e3d6000fd5b505050506040513d601f19601f82011682018060405250810190610eb19190611bcd565b915050919050565b610ec1611764565b73ffffffffffffffffffffffffffffffffffffffff16610edf610bb5565b73ffffffffffffffffffffffffffffffffffffffff1614610f35576040517f08c379a0000000000000000000000000000000000000000000000000000000008152600401610f2c90611e11565b60405180910390fd5b600073ffffffffffffffffffffffffffffffffffffffff168173ffffffffffffffffffffffffffffffffffffffff161415610fa5576040517f08c379a0000000000000000000000000000000000000000000000000000000008152600401610f9c90611dd1565b60405180910390fd5b80600460006101000a81548173ffffffffffffffffffffffffffffffffffffffff021916908373ffffffffffffffffffffffffffffffffffffffff16021790555050565b610ff1611764565b73ffffffffffffffffffffffffffffffffffffffff1661100f610bb5565b73ffffffffffffffffffffffffffffffffffffffff1614611065576040517f08c379a000000000000000000000000000000000000000000000000000000000815260040161105c90611e11565b60405180910390fd5b600073ffffffffffffffffffffffffffffffffffffffff168173ffffffffffffffffffffffffffffffffffffffff1614156110d5576040517f08c379a00000000000000000000000000000000000000000000000000000000081526004016110cc90611dd1565b60405180910390fd5b80600160006101000a81548173ffffffffffffffffffffffffffffffffffffffff021916908373ffffffffffffffffffffffffffffffffffffffff16021790555050565b611121611764565b73ffffffffffffffffffffffffffffffffffffffff1661113f610bb5565b73ffffffffffffffffffffffffffffffffffffffff1614611195576040517f08c379a000000000000000000000000000000000000000000000000000000000815260040161118c90611e11565b60405180910390fd5b600073ffffffffffffffffffffffffffffffffffffffff168173ffffffffffffffffffffffffffffffffffffffff161415611205576040517f08c379a00000000000000000000000000000000000000000000000000000000081526004016111fc90611db1565b60405180910390fd5b61120e8161176c565b50565b611219611764565b73ffffffffffffffffffffffffffffffffffffffff16611237610bb5565b73ffffffffffffffffffffffffffffffffffffffff161461128d576040517f08c379a000000000000000000000000000000000000000000000000000000000815260040161128490611e11565b60405180910390fd5b600073ffffffffffffffffffffffffffffffffffffffff168173ffffffffffffffffffffffffffffffffffffffff1614156112fd576040517f08c379a00000000000000000000000000000000000000000000000000000000081526004016112f490611dd1565b60405180910390fd5b80600260006101000a81548173ffffffffffffffffffffffffffffffffffffffff021916908373ffffffffffffffffffffffffffffffffffffffff16021790555050565b8060011515600460009054906101000a900473ffffffffffffffffffffffffffffffffffffffff1673ffffffffffffffffffffffffffffffffffffffff1663d44da15f836040518263ffffffff1660e01b81526004016113a19190611d4d565b60206040518083038186803b1580156113b957600080fd5b505afa1580156113cd573d6000803e3d6000fd5b505050506040513d601f19601f820116820180604052508101906113f19190611b73565b151514611433576040517f08c379a000000000000000000000000000000000000000000000000000000000815260040161142a90611e51565b60405180910390fd5b600260009054906101000a900473ffffffffffffffffffffffffffffffffffffffff1673ffffffffffffffffffffffffffffffffffffffff1663a8a778ae33856040518363ffffffff1660e01b8152600401611490929190611d68565b600060405180830381600087803b1580156114aa57600080fd5b505af11580156114be573d6000803e3d6000fd5b505050506000600560009054906101000a900473ffffffffffffffffffffffffffffffffffffffff1673ffffffffffffffffffffffffffffffffffffffff166341976e09600260009054906101000a900473ffffffffffffffffffffffffffffffffffffffff166040518263ffffffff1660e01b81526004016115419190611d4d565b60206040518083038186803b15801561155957600080fd5b505afa15801561156d573d6000803e3d6000fd5b505050506040513d601f19601f820116820180604052508101906115919190611bcd565b90506000600560009054906101000a900473ffffffffffffffffffffffffffffffffffffffff1673ffffffffffffffffffffffffffffffffffffffff166341976e09856040518263ffffffff1660e01b81526004016115f09190611d4d565b60206040518083038186803b15801561160857600080fd5b505afa15801561161c573d6000803e3d6000fd5b505050506040513d601f19601f820116820180604052508101906116409190611bcd565b9050600081620f4240600654620f424061165a9190611f25565b85896116669190611fac565b6116709190611fac565b61167a9190611f7b565b6116849190611f7b565b90508473ffffffffffffffffffffffffffffffffffffffff166370a08231306040518263ffffffff1660e01b81526004016116bf9190611d4d565b60206040518083038186803b1580156116d757600080fd5b505afa1580156116eb573d6000803e3d6000fd5b505050506040513d601f19601f8201168201806040525081019061170f9190611bcd565b811115611751576040517f08c379a000000000000000000000000000000000000000000000000000000000815260040161174890611e31565b60405180910390fd5b61175c853383611830565b505050505050565b600033905090565b60008060009054906101000a900473ffffffffffffffffffffffffffffffffffffffff169050816000806101000a81548173ffffffffffffffffffffffffffffffffffffffff021916908373ffffffffffffffffffffffffffffffffffffffff1602179055508173ffffffffffffffffffffffffffffffffffffffff168173ffffffffffffffffffffffffffffffffffffffff167f8be0079c531659141344cd1fd0a4f28419497f9722a3daafe3b4186f6b6457e060405160405180910390a35050565b600061183c8430611963565b90507fe4d818e6f992efbd60db553f3edce819a199baec79a784b95c89bc8ee86f258482848660405161187193929190611e8c565b60405180910390a18373ffffffffffffffffffffffffffffffffffffffff1663a9059cbb84846040518363ffffffff1660e01b81526004016118b4929190611d68565b602060405180830381600087803b1580156118ce57600080fd5b505af11580156118e2573d6000803e3d6000fd5b505050506040513d601f19601f820116820180604052508101906119069190611b73565b5080826119138630611963565b61191d9190611f25565b1461195d576040517f08c379a000000000000000000000000000000000000000000000000000000000815260040161195490611df1565b60405180910390fd5b50505050565b60008273ffffffffffffffffffffffffffffffffffffffff166370a08231836040518263ffffffff1660e01b815260040161199e9190611d4d565b60206040518083038186803b1580156119b657600080fd5b505afa1580156119ca573d6000803e3d6000fd5b505050506040513d601f19601f820116820180604052508101906119ee9190611bcd565b905092915050565b6000611a09611a0484611ee8565b611ec3565b90508083825260208201905082856020860282011115611a2c57611a2b612189565b5b60005b85811015611a5c5781611a428882611a7b565b845260208401935060208301925050600181019050611a2f565b5050509392505050565b600081359050611a7581612314565b92915050565b600081519050611a8a81612314565b92915050565b600082601f830112611aa557611aa4612184565b5b8151611ab58482602086016119f6565b91505092915050565b600081519050611acd8161232b565b92915050565b600081359050611ae281612342565b92915050565b600081519050611af781612342565b92915050565b600060208284031215611b1357611b12612193565b5b6000611b2184828501611a66565b91505092915050565b600060208284031215611b4057611b3f612193565b5b600082015167ffffffffffffffff811115611b5e57611b5d61218e565b5b611b6a84828501611a90565b91505092915050565b600060208284031215611b8957611b88612193565b5b6000611b9784828501611abe565b91505092915050565b600060208284031215611bb657611bb5612193565b5b6000611bc484828501611ad3565b91505092915050565b600060208284031215611be357611be2612193565b5b6000611bf184828501611ae8565b91505092915050565b60008060408385031215611c1157611c10612193565b5b6000611c1f85828601611ad3565b9250506020611c3085828601611a66565b9150509250929050565b611c4381612006565b82525050565b6000611c56601883611f14565b9150611c61826121a9565b602082019050919050565b6000611c79602683611f14565b9150611c84826121d2565b604082019050919050565b6000611c9c601583611f14565b9150611ca782612221565b602082019050919050565b6000611cbf601d83611f14565b9150611cca8261224a565b602082019050919050565b6000611ce2602083611f14565b9150611ced82612273565b602082019050919050565b6000611d05603583611f14565b9150611d108261229c565b604082019050919050565b6000611d28601383611f14565b9150611d33826122eb565b602082019050919050565b611d4781612044565b82525050565b6000602082019050611d626000830184611c3a565b92915050565b6000604082019050611d7d6000830185611c3a565b611d8a6020830184611d3e565b9392505050565b60006020820190508181036000830152611daa81611c49565b9050919050565b60006020820190508181036000830152611dca81611c6c565b9050919050565b60006020820190508181036000830152611dea81611c8f565b9050919050565b60006020820190508181036000830152611e0a81611cb2565b9050919050565b60006020820190508181036000830152611e2a81611cd5565b9050919050565b60006020820190508181036000830152611e4a81611cf8565b9050919050565b60006020820190508181036000830152611e6a81611d1b565b9050919050565b6000602082019050611e866000830184611d3e565b92915050565b6000606082019050611ea16000830186611d3e565b611eae6020830185611c3a565b611ebb6040830184611c3a565b949350505050565b6000611ecd611ede565b9050611ed9828261204e565b919050565b6000604051905090565b600067ffffffffffffffff821115611f0357611f02612155565b5b602082029050602081019050919050565b600082825260208201905092915050565b6000611f3082612044565b9150611f3b83612044565b9250827fffffffffffffffffffffffffffffffffffffffffffffffffffffffffffffffff03821115611f7057611f6f6120c8565b5b828201905092915050565b6000611f8682612044565b9150611f9183612044565b925082611fa157611fa06120f7565b5b828204905092915050565b6000611fb782612044565b9150611fc283612044565b9250817fffffffffffffffffffffffffffffffffffffffffffffffffffffffffffffffff0483118215151615611ffb57611ffa6120c8565b5b828202905092915050565b600061201182612024565b9050919050565b60008115159050919050565b600073ffffffffffffffffffffffffffffffffffffffff82169050919050565b6000819050919050565b61205782612198565b810181811067ffffffffffffffff8211171561207657612075612155565b5b80604052505050565b600061208a82612044565b91507fffffffffffffffffffffffffffffffffffffffffffffffffffffffffffffffff8214156120bd576120bc6120c8565b5b600182019050919050565b7f4e487b7100000000000000000000000000000000000000000000000000000000600052601160045260246000fd5b7f4e487b7100000000000000000000000000000000000000000000000000000000600052601260045260246000fd5b7f4e487b7100000000000000000000000000000000000000000000000000000000600052603260045260246000fd5b7f4e487b7100000000000000000000000000000000000000000000000000000000600052604160045260246000fd5b600080fd5b600080fd5b600080fd5b600080fd5b6000601f19601f8301169050919050565b7f426f6e75732063616e6e6f742065786365656420313030250000000000000000600082015250565b7f4f776e61626c653a206e6577206f776e657220697320746865207a65726f206160008201527f6464726573730000000000000000000000000000000000000000000000000000602082015250565b7f5a65726f20616464726573732064657465637465640000000000000000000000600082015250565b7f7265636976652077726f6e6720616d6f756e74206f6620746f6b656e73000000600082015250565b7f4f776e61626c653a2063616c6c6572206973206e6f7420746865206f776e6572600082015250565b7f4e6f7420656e6f7567682062616c616e6365206f66207265717569726564207460008201527f6f6b656e20696e206275796261636b207661756c740000000000000000000000602082015250565b7f4173736574206e6f7420617661696c61626c6500000000000000000000000000600082015250565b61231d81612006565b811461232857600080fd5b50565b61233481612018565b811461233f57600080fd5b50565b61234b81612044565b811461235657600080fd5b5056fea26469706673582212202c3cbac686362f3248955ac94543f7efa450215db85296bea3ff874b54d7f82364736f6c63430008060033",
  "linkReferences": {},
  "deployedLinkReferences": {}
}