{
  "_format": "hh-sol-artifact-1",
  "contractName": "AssetManager",
  "sourceName": "contracts/AssetManager.sol",
  "abi": [
    {
      "inputs": [],
      "stateMutability": "nonpayable",
      "type": "constructor"
    },
    {
      "anonymous": false,
      "inputs": [
        {
          "indexed": false,
          "internalType": "address",
          "name": "asset_address",
          "type": "address"
        }
      ],
      "name": "AssetAdded",
      "type": "event"
    },
    {
      "anonymous": false,
      "inputs": [
        {
          "indexed": false,
          "internalType": "address",
          "name": "asset_address",
          "type": "address"
        }
      ],
      "name": "AssetRemoved",
      "type": "event"
    },
    {
      "anonymous": false,
      "inputs": [
        {
          "indexed": true,
          "internalType": "address",
          "name": "previousOwner",
          "type": "address"
        },
        {
          "indexed": true,
          "internalType": "address",
          "name": "newOwner",
          "type": "address"
        }
      ],
      "name": "OwnershipTransferred",
      "type": "event"
    },
    {
      "inputs": [
        {
          "internalType": "address",
          "name": "asset_address",
          "type": "address"
        }
      ],
      "name": "addAsset",
      "outputs": [],
      "stateMutability": "nonpayable",
      "type": "function"
    },
    {
      "inputs": [
        {
          "internalType": "address",
          "name": "asset_address",
          "type": "address"
        }
      ],
      "name": "assetAvailable",
      "outputs": [
        {
          "internalType": "bool",
          "name": "",
          "type": "bool"
        }
      ],
      "stateMutability": "view",
      "type": "function"
    },
    {
      "inputs": [
        {
          "internalType": "uint256",
          "name": "",
          "type": "uint256"
        }
      ],
      "name": "asset_array",
      "outputs": [
        {
          "internalType": "address",
          "name": "",
          "type": "address"
        }
      ],
      "stateMutability": "view",
      "type": "function"
    },
    {
      "inputs": [
        {
          "internalType": "address",
          "name": "",
          "type": "address"
        }
      ],
      "name": "assets",
      "outputs": [
        {
          "internalType": "bool",
          "name": "",
          "type": "bool"
        }
      ],
      "stateMutability": "view",
      "type": "function"
    },
    {
      "inputs": [],
      "name": "owner",
      "outputs": [
        {
          "internalType": "address",
          "name": "",
          "type": "address"
        }
      ],
      "stateMutability": "view",
      "type": "function"
    },
    {
      "inputs": [
        {
          "internalType": "address",
          "name": "asset_address",
          "type": "address"
        }
      ],
      "name": "removeAsset",
      "outputs": [],
      "stateMutability": "nonpayable",
      "type": "function"
    },
    {
      "inputs": [],
      "name": "renounceOwnership",
      "outputs": [],
      "stateMutability": "nonpayable",
      "type": "function"
    },
    {
      "inputs": [
        {
          "internalType": "address",
          "name": "newOwner",
          "type": "address"
        }
      ],
      "name": "transferOwnership",
      "outputs": [],
      "stateMutability": "nonpayable",
      "type": "function"
    }
  ],
  "bytecode": "0x608060405234801561001057600080fd5b5061002d61002261003260201b60201c565b61003a60201b60201c565b6100fe565b600033905090565b60008060009054906101000a900473ffffffffffffffffffffffffffffffffffffffff169050816000806101000a81548173ffffffffffffffffffffffffffffffffffffffff021916908373ffffffffffffffffffffffffffffffffffffffff1602179055508173ffffffffffffffffffffffffffffffffffffffff168173ffffffffffffffffffffffffffffffffffffffff167f8be0079c531659141344cd1fd0a4f28419497f9722a3daafe3b4186f6b6457e060405160405180910390a35050565b610ebb8061010d6000396000f3fe608060405234801561001057600080fd5b50600436106100885760003560e01c80638da5cb5b1161005b5780638da5cb5b146100ff578063d44da15f1461011d578063f11b81881461014d578063f2fde38b1461017d57610088565b80630210ba091461008d578063298410e5146100bd5780634a5e42b1146100d9578063715018a6146100f5575b600080fd5b6100a760048036038101906100a29190610a8f565b610199565b6040516100b49190610b89565b60405180910390f35b6100d760048036038101906100d29190610a62565b6101d8565b005b6100f360048036038101906100ee9190610a62565b61044c565b005b6100fd61074d565b005b6101076107d5565b6040516101149190610b89565b60405180910390f35b61013760048036038101906101329190610a62565b6107fe565b6040516101449190610ba4565b60405180910390f35b61016760048036038101906101629190610a62565b610854565b6040516101749190610ba4565b60405180910390f35b61019760048036038101906101929190610a62565b610874565b005b600181815481106101a957600080fd5b906000526020600020016000915054906101000a900473ffffffffffffffffffffffffffffffffffffffff1681565b6101e061096c565b73ffffffffffffffffffffffffffffffffffffffff166101fe6107d5565b73ffffffffffffffffffffffffffffffffffffffff1614610254576040517f08c379a000000000000000000000000000000000000000000000000000000000815260040161024b90610bff565b60405180910390fd5b600073ffffffffffffffffffffffffffffffffffffffff168173ffffffffffffffffffffffffffffffffffffffff1614156102c4576040517f08c379a00000000000000000000000000000000000000000000000000000000081526004016102bb90610bdf565b60405180910390fd5b60001515600260008373ffffffffffffffffffffffffffffffffffffffff1673ffffffffffffffffffffffffffffffffffffffff16815260200190815260200160002060009054906101000a900460ff16151514610357576040517f08c379a000000000000000000000000000000000000000000000000000000000815260040161034e90610c1f565b60405180910390fd5b6001600260008373ffffffffffffffffffffffffffffffffffffffff1673ffffffffffffffffffffffffffffffffffffffff16815260200190815260200160002060006101000a81548160ff0219169083151502179055506001819080600181540180825580915050600190039060005260206000200160009091909190916101000a81548173ffffffffffffffffffffffffffffffffffffffff021916908373ffffffffffffffffffffffffffffffffffffffff1602179055507f0e3c58ebfb2e7465fbb1c32e6b4f40c3c4f5ca77e8218a386aff8617831260d7816040516104419190610b89565b60405180910390a150565b61045461096c565b73ffffffffffffffffffffffffffffffffffffffff166104726107d5565b73ffffffffffffffffffffffffffffffffffffffff16146104c8576040517f08c379a00000000000000000000000000000000000000000000000000000000081526004016104bf90610bff565b60405180910390fd5b600073ffffffffffffffffffffffffffffffffffffffff168173ffffffffffffffffffffffffffffffffffffffff161415610538576040517f08c379a000000000000000000000000000000000000000000000000000000000815260040161052f90610bdf565b60405180910390fd5b60011515600260008373ffffffffffffffffffffffffffffffffffffffff1673ffffffffffffffffffffffffffffffffffffffff16815260200190815260200160002060009054906101000a900460ff161515146105cb576040517f08c379a00000000000000000000000000000000000000000000000000000000081526004016105c290610c3f565b60405180910390fd5b600260008273ffffffffffffffffffffffffffffffffffffffff1673ffffffffffffffffffffffffffffffffffffffff16815260200190815260200160002060006101000a81549060ff021916905560005b600180549050811015610712578173ffffffffffffffffffffffffffffffffffffffff166001828154811061065557610654610d30565b5b9060005260206000200160009054906101000a900473ffffffffffffffffffffffffffffffffffffffff1673ffffffffffffffffffffffffffffffffffffffff1614156106ff576000600182815481106106b2576106b1610d30565b5b9060005260206000200160006101000a81548173ffffffffffffffffffffffffffffffffffffffff021916908373ffffffffffffffffffffffffffffffffffffffff160217905550610712565b808061070a90610cb8565b91505061061d565b507f37803e2125c48ee96c38ddf04e826daf335b0e1603579040fd275aba6d06b6fc816040516107429190610b89565b60405180910390a150565b61075561096c565b73ffffffffffffffffffffffffffffffffffffffff166107736107d5565b73ffffffffffffffffffffffffffffffffffffffff16146107c9576040517f08c379a00000000000000000000000000000000000000000000000000000000081526004016107c090610bff565b60405180910390fd5b6107d36000610974565b565b60008060009054906101000a900473ffffffffffffffffffffffffffffffffffffffff16905090565b6000600260008373ffffffffffffffffffffffffffffffffffffffff1673ffffffffffffffffffffffffffffffffffffffff16815260200190815260200160002060009054906101000a900460ff169050919050565b60026020528060005260406000206000915054906101000a900460ff1681565b61087c61096c565b73ffffffffffffffffffffffffffffffffffffffff1661089a6107d5565b73ffffffffffffffffffffffffffffffffffffffff16146108f0576040517f08c379a00000000000000000000000000000000000000000000000000000000081526004016108e790610bff565b60405180910390fd5b600073ffffffffffffffffffffffffffffffffffffffff168173ffffffffffffffffffffffffffffffffffffffff161415610960576040517f08c379a000000000000000000000000000000000000000000000000000000000815260040161095790610bbf565b60405180910390fd5b61096981610974565b50565b600033905090565b60008060009054906101000a900473ffffffffffffffffffffffffffffffffffffffff169050816000806101000a81548173ffffffffffffffffffffffffffffffffffffffff021916908373ffffffffffffffffffffffffffffffffffffffff1602179055508173ffffffffffffffffffffffffffffffffffffffff168173ffffffffffffffffffffffffffffffffffffffff167f8be0079c531659141344cd1fd0a4f28419497f9722a3daafe3b4186f6b6457e060405160405180910390a35050565b600081359050610a4781610e57565b92915050565b600081359050610a5c81610e6e565b92915050565b600060208284031215610a7857610a77610d5f565b5b6000610a8684828501610a38565b91505092915050565b600060208284031215610aa557610aa4610d5f565b5b6000610ab384828501610a4d565b91505092915050565b610ac581610c70565b82525050565b610ad481610c82565b82525050565b6000610ae7602683610c5f565b9150610af282610d64565b604082019050919050565b6000610b0a601583610c5f565b9150610b1582610db3565b602082019050919050565b6000610b2d602083610c5f565b9150610b3882610ddc565b602082019050919050565b6000610b50601383610c5f565b9150610b5b82610e05565b602082019050919050565b6000610b73601383610c5f565b9150610b7e82610e2e565b602082019050919050565b6000602082019050610b9e6000830184610abc565b92915050565b6000602082019050610bb96000830184610acb565b92915050565b60006020820190508181036000830152610bd881610ada565b9050919050565b60006020820190508181036000830152610bf881610afd565b9050919050565b60006020820190508181036000830152610c1881610b20565b9050919050565b60006020820190508181036000830152610c3881610b43565b9050919050565b60006020820190508181036000830152610c5881610b66565b9050919050565b600082825260208201905092915050565b6000610c7b82610c8e565b9050919050565b60008115159050919050565b600073ffffffffffffffffffffffffffffffffffffffff82169050919050565b6000819050919050565b6000610cc382610cae565b91507fffffffffffffffffffffffffffffffffffffffffffffffffffffffffffffffff821415610cf657610cf5610d01565b5b600182019050919050565b7f4e487b7100000000000000000000000000000000000000000000000000000000600052601160045260246000fd5b7f4e487b7100000000000000000000000000000000000000000000000000000000600052603260045260246000fd5b600080fd5b7f4f776e61626c653a206e6577206f776e657220697320746865207a65726f206160008201527f6464726573730000000000000000000000000000000000000000000000000000602082015250565b7f5a65726f20616464726573732064657465637465640000000000000000000000600082015250565b7f4f776e61626c653a2063616c6c6572206973206e6f7420746865206f776e6572600082015250565b7f417373657420616c726561647920616464656400000000000000000000000000600082015250565b7f41646472657373206e6f6e6578697374616e7400000000000000000000000000600082015250565b610e6081610c70565b8114610e6b57600080fd5b50565b610e7781610cae565b8114610e8257600080fd5b5056fea26469706673582212209b2ca2880be07ae580d1ca52e6fe364c0a39c25d86e3b02911c6c63d012ad3ba64736f6c63430008060033",
  "linkReferences": {},
  "deployedLinkReferences": {}
}