{
  "_format": "hh-sol-artifact-1",
  "contractName": "Pool",
  "sourceName": "contracts/Pool.sol",
  "abi": [
    {
      "inputs": [
        {
          "internalType": "address",
          "name": "_depos_address",
          "type": "address"
        },
        {
          "internalType": "address",
          "name": "_oracle_address",
          "type": "address"
        },
        {
          "internalType": "address",
          "name": "_asset_manager_address",
          "type": "address"
        },
        {
          "internalType": "address",
          "name": "_amo_manager_address",
          "type": "address"
        },
        {
          "internalType": "address",
          "name": "_insurance_vault_address",
          "type": "address"
        }
      ],
      "stateMutability": "nonpayable",
      "type": "constructor"
    },
    {
      "anonymous": false,
      "inputs": [
        {
          "indexed": true,
          "internalType": "address",
          "name": "assets",
          "type": "address"
        },
        {
          "indexed": true,
          "internalType": "address",
          "name": "user",
          "type": "address"
        },
        {
          "indexed": false,
          "internalType": "uint256",
          "name": "amount",
          "type": "uint256"
        }
      ],
      "name": "Deposit",
      "type": "event"
    },
    {
      "anonymous": false,
      "inputs": [
        {
          "indexed": true,
          "internalType": "address",
          "name": "previousOwner",
          "type": "address"
        },
        {
          "indexed": true,
          "internalType": "address",
          "name": "newOwner",
          "type": "address"
        }
      ],
      "name": "OwnershipTransferred",
      "type": "event"
    },
    {
      "anonymous": false,
      "inputs": [
        {
          "indexed": false,
          "internalType": "uint256",
          "name": "Amount",
          "type": "uint256"
        },
        {
          "indexed": false,
          "internalType": "address",
          "name": "From",
          "type": "address"
        },
        {
          "indexed": false,
          "internalType": "address",
          "name": "Token",
          "type": "address"
        }
      ],
      "name": "TransferIn",
      "type": "event"
    },
    {
      "anonymous": false,
      "inputs": [
        {
          "indexed": false,
          "internalType": "uint256",
          "name": "Amount",
          "type": "uint256"
        },
        {
          "indexed": false,
          "internalType": "address",
          "name": "To",
          "type": "address"
        },
        {
          "indexed": false,
          "internalType": "address",
          "name": "Token",
          "type": "address"
        }
      ],
      "name": "TransferOut",
      "type": "event"
    },
    {
      "anonymous": false,
      "inputs": [
        {
          "indexed": true,
          "internalType": "address",
          "name": "assets",
          "type": "address"
        },
        {
          "indexed": true,
          "internalType": "address",
          "name": "user",
          "type": "address"
        },
        {
          "indexed": false,
          "internalType": "uint256",
          "name": "amount",
          "type": "uint256"
        }
      ],
      "name": "Withdraw",
      "type": "event"
    },
    {
      "inputs": [
        {
          "internalType": "address",
          "name": "asset_address",
          "type": "address"
        }
      ],
      "name": "AssetTotalDepositAmount",
      "outputs": [
        {
          "internalType": "uint256",
          "name": "",
          "type": "uint256"
        }
      ],
      "stateMutability": "view",
      "type": "function"
    },
    {
      "inputs": [
        {
          "internalType": "address",
          "name": "asset_address",
          "type": "address"
        }
      ],
      "name": "AssetTotalProfit",
      "outputs": [
        {
          "internalType": "uint256",
          "name": "",
          "type": "uint256"
        }
      ],
      "stateMutability": "view",
      "type": "function"
    },
    {
      "inputs": [
        {
          "internalType": "address",
          "name": "asset_address",
          "type": "address"
        },
        {
          "internalType": "uint256",
          "name": "asset_amount",
          "type": "uint256"
        }
      ],
      "name": "GiveAMOAsset",
      "outputs": [],
      "stateMutability": "nonpayable",
      "type": "function"
    },
    {
      "inputs": [],
      "name": "amo_manager_address",
      "outputs": [
        {
          "internalType": "address",
          "name": "",
          "type": "address"
        }
      ],
      "stateMutability": "view",
      "type": "function"
    },
    {
      "inputs": [
        {
          "internalType": "address",
          "name": "",
          "type": "address"
        }
      ],
      "name": "asset_compensate_twap_period",
      "outputs": [
        {
          "internalType": "uint256",
          "name": "",
          "type": "uint256"
        }
      ],
      "stateMutability": "view",
      "type": "function"
    },
    {
      "inputs": [
        {
          "internalType": "address",
          "name": "",
          "type": "address"
        }
      ],
      "name": "asset_compensate_weight",
      "outputs": [
        {
          "internalType": "uint256",
          "name": "",
          "type": "uint256"
        }
      ],
      "stateMutability": "view",
      "type": "function"
    },
    {
      "inputs": [],
      "name": "asset_manager_address",
      "outputs": [
        {
          "internalType": "address",
          "name": "",
          "type": "address"
        }
      ],
      "stateMutability": "view",
      "type": "function"
    },
    {
      "inputs": [
        {
          "internalType": "address",
          "name": "",
          "type": "address"
        }
      ],
      "name": "asset_max_compensate_threshold",
      "outputs": [
        {
          "internalType": "uint256",
          "name": "",
          "type": "uint256"
        }
      ],
      "stateMutability": "view",
      "type": "function"
    },
    {
      "inputs": [
        {
          "internalType": "address",
          "name": "",
          "type": "address"
        }
      ],
      "name": "asset_min_compensate_threshold",
      "outputs": [
        {
          "internalType": "uint256",
          "name": "",
          "type": "uint256"
        }
      ],
      "stateMutability": "view",
      "type": "function"
    },
    {
      "inputs": [],
      "name": "depos_address",
      "outputs": [
        {
          "internalType": "address",
          "name": "",
          "type": "address"
        }
      ],
      "stateMutability": "view",
      "type": "function"
    },
    {
      "inputs": [],
      "name": "insurance_vault_address",
      "outputs": [
        {
          "internalType": "address",
          "name": "",
          "type": "address"
        }
      ],
      "stateMutability": "view",
      "type": "function"
    },
    {
      "inputs": [],
      "name": "insurance_vault_compensate_ratio",
      "outputs": [
        {
          "internalType": "uint256",
          "name": "",
          "type": "uint256"
        }
      ],
      "stateMutability": "view",
      "type": "function"
    },
    {
      "inputs": [],
      "name": "oracle_address",
      "outputs": [
        {
          "internalType": "address",
          "name": "",
          "type": "address"
        }
      ],
      "stateMutability": "view",
      "type": "function"
    },
    {
      "inputs": [],
      "name": "owner",
      "outputs": [
        {
          "internalType": "address",
          "name": "",
          "type": "address"
        }
      ],
      "stateMutability": "view",
      "type": "function"
    },
    {
      "inputs": [
        {
          "internalType": "address",
          "name": "asset",
          "type": "address"
        },
        {
          "internalType": "uint256",
          "name": "assetAmount",
          "type": "uint256"
        }
      ],
      "name": "recordTransferProfitFromAMO",
      "outputs": [],
      "stateMutability": "nonpayable",
      "type": "function"
    },
    {
      "inputs": [],
      "name": "renounceOwnership",
      "outputs": [],
      "stateMutability": "nonpayable",
      "type": "function"
    },
    {
      "inputs": [
        {
          "internalType": "address",
          "name": "new_amo_manager",
          "type": "address"
        }
      ],
      "name": "setAMOManagerAddress",
      "outputs": [],
      "stateMutability": "nonpayable",
      "type": "function"
    },
    {
      "inputs": [
        {
          "internalType": "address",
          "name": "new_asset_manager",
          "type": "address"
        }
      ],
      "name": "setAssetManagerAddress",
      "outputs": [],
      "stateMutability": "nonpayable",
      "type": "function"
    },
    {
      "inputs": [
        {
          "internalType": "address",
          "name": "asset_address",
          "type": "address"
        },
        {
          "internalType": "uint256",
          "name": "max_threshold",
          "type": "uint256"
        },
        {
          "internalType": "uint256",
          "name": "min_threshold",
          "type": "uint256"
        },
        {
          "internalType": "uint256",
          "name": "twap_period",
          "type": "uint256"
        },
        {
          "internalType": "uint256",
          "name": "compensate_weight",
          "type": "uint256"
        }
      ],
      "name": "setCompensateParameters",
      "outputs": [],
      "stateMutability": "nonpayable",
      "type": "function"
    },
    {
      "inputs": [
        {
          "internalType": "address",
          "name": "new_depos",
          "type": "address"
        }
      ],
      "name": "setDeposAddress",
      "outputs": [],
      "stateMutability": "nonpayable",
      "type": "function"
    },
    {
      "inputs": [
        {
          "internalType": "address",
          "name": "new_insurance_vault",
          "type": "address"
        }
      ],
      "name": "setInsuranceVaultAddress",
      "outputs": [],
      "stateMutability": "nonpayable",
      "type": "function"
    },
    {
      "inputs": [
        {
          "internalType": "address",
          "name": "new_oracle",
          "type": "address"
        }
      ],
      "name": "setOracleAddress",
      "outputs": [],
      "stateMutability": "nonpayable",
      "type": "function"
    },
    {
      "inputs": [
        {
          "internalType": "address",
          "name": "asset",
          "type": "address"
        },
        {
          "internalType": "uint256",
          "name": "amount",
          "type": "uint256"
        },
        {
          "internalType": "uint256",
          "name": "time",
          "type": "uint256"
        }
      ],
      "name": "timeDeposit",
      "outputs": [],
      "stateMutability": "nonpayable",
      "type": "function"
    },
    {
      "inputs": [
        {
          "internalType": "uint256",
          "name": "_tokenId",
          "type": "uint256"
        }
      ],
      "name": "timeWithdraw",
      "outputs": [],
      "stateMutability": "nonpayable",
      "type": "function"
    },
    {
      "inputs": [
        {
          "internalType": "address",
          "name": "newOwner",
          "type": "address"
        }
      ],
      "name": "transferOwnership",
      "outputs": [],
      "stateMutability": "nonpayable",
      "type": "function"
    },
    {
      "inputs": [
        {
          "internalType": "uint256",
          "name": "_tokenId",
          "type": "uint256"
        },
        {
          "internalType": "address",
          "name": "newOwner",
          "type": "address"
        }
      ],
      "name": "transferTicketOwner",
      "outputs": [],
      "stateMutability": "nonpayable",
      "type": "function"
    }
  ],
  "bytecode": "0x60806040523480156200001157600080fd5b50604051620073d0380380620073d083398181016040528101906200003791906200043d565b620000576200004b6200034c60201b60201c565b6200035460201b60201c565b600073ffffffffffffffffffffffffffffffffffffffff168573ffffffffffffffffffffffffffffffffffffffff1614158015620000c25750600073ffffffffffffffffffffffffffffffffffffffff168473ffffffffffffffffffffffffffffffffffffffff1614155b8015620000fc5750600073ffffffffffffffffffffffffffffffffffffffff168373ffffffffffffffffffffffffffffffffffffffff1614155b8015620001365750600073ffffffffffffffffffffffffffffffffffffffff168273ffffffffffffffffffffffffffffffffffffffff1614155b8015620001705750600073ffffffffffffffffffffffffffffffffffffffff168173ffffffffffffffffffffffffffffffffffffffff1614155b620001b2576040517f08c379a0000000000000000000000000000000000000000000000000000000008152600401620001a9906200051a565b60405180910390fd5b84600360006101000a81548173ffffffffffffffffffffffffffffffffffffffff021916908373ffffffffffffffffffffffffffffffffffffffff16021790555083600660006101000a81548173ffffffffffffffffffffffffffffffffffffffff021916908373ffffffffffffffffffffffffffffffffffffffff16021790555082600260006101000a81548173ffffffffffffffffffffffffffffffffffffffff021916908373ffffffffffffffffffffffffffffffffffffffff16021790555081600160006101000a81548173ffffffffffffffffffffffffffffffffffffffff021916908373ffffffffffffffffffffffffffffffffffffffff1602179055506000601281905550620c3500600e8190555030604051620002d79062000418565b620002e39190620004fd565b604051809103906000f08015801562000300573d6000803e3d6000fd5b50600560006101000a81548173ffffffffffffffffffffffffffffffffffffffff021916908373ffffffffffffffffffffffffffffffffffffffff1602179055505050505050620005c9565b600033905090565b60008060009054906101000a900473ffffffffffffffffffffffffffffffffffffffff169050816000806101000a81548173ffffffffffffffffffffffffffffffffffffffff021916908373ffffffffffffffffffffffffffffffffffffffff1602179055508173ffffffffffffffffffffffffffffffffffffffff168173ffffffffffffffffffffffffffffffffffffffff167f8be0079c531659141344cd1fd0a4f28419497f9722a3daafe3b4186f6b6457e060405160405180910390a35050565b612e76806200455a83390190565b6000815190506200043781620005af565b92915050565b600080600080600060a086880312156200045c576200045b62000581565b5b60006200046c8882890162000426565b95505060206200047f8882890162000426565b9450506040620004928882890162000426565b9350506060620004a58882890162000426565b9250506080620004b88882890162000426565b9150509295509295909350565b620004d0816200054d565b82525050565b6000620004e56015836200053c565b9150620004f28262000586565b602082019050919050565b6000602082019050620005146000830184620004c5565b92915050565b600060208201905081810360008301526200053581620004d6565b9050919050565b600082825260208201905092915050565b60006200055a8262000561565b9050919050565b600073ffffffffffffffffffffffffffffffffffffffff82169050919050565b600080fd5b7f5a65726f20616464726573732064657465637465640000000000000000000000600082015250565b620005ba816200054d565b8114620005c657600080fd5b50565b613f8180620005d96000396000f3fe608060405234801561001057600080fd5b506004361061018e5760003560e01c80638da5cb5b116100de578063bcbbc73511610097578063d0bf8f3e11610071578063d0bf8f3e1461045b578063e3bf44b91461048b578063f2fde38b146104a7578063f4f20c9b146104c35761018e565b8063bcbbc735146103f1578063c038fc3914610421578063c136d9111461043d5761018e565b80638da5cb5b1461032f5780639708b76b1461034d5780639f24d6fb1461037d5780639fef07101461039b578063a498c8bb146103b9578063a8a8bbcd146103d55761018e565b80634ab49c501161014b578063715018a611610125578063715018a6146102cd5780637e0c1792146102d7578063873fc996146102f55780638b6da625146103115761018e565b80634ab49c50146102795780634c69c00f1461029557806362ced98b146102b15761018e565b80630840abee146101935780630b5bb0b0146101c35780630e36299e146101df578063190d7da31461020f5780632d79a6a41461022d5780634287357b14610249575b600080fd5b6101ad60048036038101906101a89190613268565b6104df565b6040516101ba919061389f565b60405180910390f35b6101dd60048036038101906101d891906133fd565b6104f7565b005b6101f960048036038101906101f49190613268565b61095b565b604051610206919061389f565b60405180910390f35b610217610973565b6040516102249190613672565b60405180910390f35b61024760048036038101906102429190613268565b610999565b005b610263600480360381019061025e9190613268565b610ac9565b604051610270919061389f565b60405180910390f35b610293600480360381019061028e9190613302565b610c05565b005b6102af60048036038101906102aa9190613268565b611113565b005b6102cb60048036038101906102c691906132c2565b611243565b005b6102d561132d565b005b6102df6113b5565b6040516102ec9190613672565b60405180910390f35b61030f600480360381019061030a9190613457565b6113db565b005b6103196119a8565b6040516103269190613672565b60405180910390f35b6103376119ce565b6040516103449190613672565b60405180910390f35b61036760048036038101906103629190613268565b6119f7565b604051610374919061389f565b60405180910390f35b610385611a0f565b6040516103929190613672565b60405180910390f35b6103a3611a35565b6040516103b09190613672565b60405180910390f35b6103d360048036038101906103ce9190613355565b611a5b565b005b6103ef60048036038101906103ea91906132c2565b611d33565b005b61040b60048036038101906104069190613268565b611ee7565b604051610418919061389f565b60405180910390f35b61043b60048036038101906104369190613268565b611eff565b005b61044561202f565b604051610452919061389f565b60405180910390f35b61047560048036038101906104709190613268565b612035565b604051610482919061389f565b60405180910390f35b6104a560048036038101906104a09190613268565b612171565b005b6104c160048036038101906104bc9190613268565b6122a1565b005b6104dd60048036038101906104d89190613268565b612399565b005b600a6020528060005260406000206000915090505481565b600560009054906101000a900473ffffffffffffffffffffffffffffffffffffffff1673ffffffffffffffffffffffffffffffffffffffff16636352211e826040518263ffffffff1660e01b8152600401610552919061389f565b60206040518083038186803b15801561056a57600080fd5b505afa15801561057e573d6000803e3d6000fd5b505050506040513d601f19601f820116820180604052508101906105a29190613295565b73ffffffffffffffffffffffffffffffffffffffff163373ffffffffffffffffffffffffffffffffffffffff161461060f576040517f08c379a00000000000000000000000000000000000000000000000000000000081526004016106069061383f565b60405180910390fd5b600015156007600083815260200190815260200160002060060160009054906101000a900460ff16151514610679576040517f08c379a0000000000000000000000000000000000000000000000000000000008152600401610670906137ff565b60405180910390fd5b60006007600083815260200190815260200160002060010160009054906101000a900473ffffffffffffffffffffffffffffffffffffffff169050600060076000848152602001908152602001600020600301544211156106dd57600090506106f7565b600760008481526020019081526020016000206004015490505b600160009054906101000a900473ffffffffffffffffffffffffffffffffffffffff1673ffffffffffffffffffffffffffffffffffffffff1663ac54b6af83836040518363ffffffff1660e01b8152600401610754929190613716565b600060405180830381600087803b15801561076e57600080fd5b505af1158015610782573d6000803e3d6000fd5b505050506000601060008473ffffffffffffffffffffffffffffffffffffffff1673ffffffffffffffffffffffffffffffffffffffff16815260200190815260200160002054600f60008573ffffffffffffffffffffffffffffffffffffffff1673ffffffffffffffffffffffffffffffffffffffff16815260200190815260200160002054836108139190613afa565b61081d9190613958565b905061083483828461082f9190613902565b6124c9565b81601060008573ffffffffffffffffffffffffffffffffffffffff1673ffffffffffffffffffffffffffffffffffffffff16815260200190815260200160002060008282546108839190613b54565b9250508190555080600f60008573ffffffffffffffffffffffffffffffffffffffff1673ffffffffffffffffffffffffffffffffffffffff16815260200190815260200160002060008282546108d99190613b54565b9250508190555060016007600086815260200190815260200160002060060160006101000a81548160ff021916908315150217905550600061091a85612630565b90506109263382612a4b565b601160006008548152602001908152602001600020546012600082825461094d9190613b54565b925050819055505050505050565b600c6020528060005260406000206000915090505481565b600260009054906101000a900473ffffffffffffffffffffffffffffffffffffffff1681565b6109a1612ae4565b73ffffffffffffffffffffffffffffffffffffffff166109bf6119ce565b73ffffffffffffffffffffffffffffffffffffffff1614610a15576040517f08c379a0000000000000000000000000000000000000000000000000000000008152600401610a0c9061385f565b60405180910390fd5b600073ffffffffffffffffffffffffffffffffffffffff168173ffffffffffffffffffffffffffffffffffffffff161415610a85576040517f08c379a0000000000000000000000000000000000000000000000000000000008152600401610a7c9061375f565b60405180910390fd5b80600460006101000a81548173ffffffffffffffffffffffffffffffffffffffff021916908373ffffffffffffffffffffffffffffffffffffffff16021790555050565b60008160011515600260009054906101000a900473ffffffffffffffffffffffffffffffffffffffff1673ffffffffffffffffffffffffffffffffffffffff1663d44da15f836040518263ffffffff1660e01b8152600401610b2b9190613672565b60206040518083038186803b158015610b4357600080fd5b505afa158015610b57573d6000803e3d6000fd5b505050506040513d601f19601f82011682018060405250810190610b7b91906133d0565b151514610bbd576040517f08c379a0000000000000000000000000000000000000000000000000000000008152600401610bb49061387f565b60405180910390fd5b601060008473ffffffffffffffffffffffffffffffffffffffff1673ffffffffffffffffffffffffffffffffffffffff16815260200190815260200160002054915050919050565b610c0f8383612aec565b600560009054906101000a900473ffffffffffffffffffffffffffffffffffffffff1673ffffffffffffffffffffffffffffffffffffffff166379c65068336008546040518363ffffffff1660e01b8152600401610c6e929190613716565b600060405180830381600087803b158015610c8857600080fd5b505af1158015610c9c573d6000803e3d6000fd5b505050506000600660009054906101000a900473ffffffffffffffffffffffffffffffffffffffff1673ffffffffffffffffffffffffffffffffffffffff16636f8c10a885610e106040518363ffffffff1660e01b8152600401610d019291906136ed565b60206040518083038186803b158015610d1957600080fd5b505afa158015610d2d573d6000803e3d6000fd5b505050506040513d601f19601f82011682018060405250810190610d51919061342a565b90506040518060e001604052803373ffffffffffffffffffffffffffffffffffffffff1681526020018573ffffffffffffffffffffffffffffffffffffffff16815260200160085481526020018342610daa9190613902565b81526020018481526020018281526020016000151581525060076000600854815260200190815260200160002060008201518160000160006101000a81548173ffffffffffffffffffffffffffffffffffffffff021916908373ffffffffffffffffffffffffffffffffffffffff16021790555060208201518160010160006101000a81548173ffffffffffffffffffffffffffffffffffffffff021916908373ffffffffffffffffffffffffffffffffffffffff16021790555060408201518160020155606082015181600301556080820151816004015560a0820151816005015560c08201518160060160006101000a81548160ff021916908315150217905550905050620f42408473ffffffffffffffffffffffffffffffffffffffff1663313ce5676040518163ffffffff1660e01b815260040160206040518083038186803b158015610efa57600080fd5b505afa158015610f0e573d6000803e3d6000fd5b505050506040513d601f19601f82011682018060405250810190610f329190613497565b600a610f3e91906139dc565b8285600a60008973ffffffffffffffffffffffffffffffffffffffff1673ffffffffffffffffffffffffffffffffffffffff16815260200190815260200160002054620f4240610f8e9190613b54565b610f989190613afa565b610fa29190613afa565b610fac9190613958565b610fb69190613958565b601160006008548152602001908152602001600020819055506011600060085481526020019081526020016000205460126000828254610ff69190613902565b9250508190555082601060008673ffffffffffffffffffffffffffffffffffffffff1673ffffffffffffffffffffffffffffffffffffffff168152602001908152602001600020600082825461104c9190613902565b92505081905550600960008573ffffffffffffffffffffffffffffffffffffffff1673ffffffffffffffffffffffffffffffffffffffff16815260200190815260200160002060003373ffffffffffffffffffffffffffffffffffffffff1673ffffffffffffffffffffffffffffffffffffffff168152602001908152602001600020600854908060018154018082558091505060019003906000526020600020016000909190919091505560016008546111079190613902565b60088190555050505050565b61111b612ae4565b73ffffffffffffffffffffffffffffffffffffffff166111396119ce565b73ffffffffffffffffffffffffffffffffffffffff161461118f576040517f08c379a00000000000000000000000000000000000000000000000000000000081526004016111869061385f565b60405180910390fd5b600073ffffffffffffffffffffffffffffffffffffffff168173ffffffffffffffffffffffffffffffffffffffff1614156111ff576040517f08c379a00000000000000000000000000000000000000000000000000000000081526004016111f69061375f565b60405180910390fd5b80600660006101000a81548173ffffffffffffffffffffffffffffffffffffffff021916908373ffffffffffffffffffffffffffffffffffffffff16021790555050565b600160009054906101000a900473ffffffffffffffffffffffffffffffffffffffff1673ffffffffffffffffffffffffffffffffffffffff163373ffffffffffffffffffffffffffffffffffffffff16146112d3576040517f08c379a00000000000000000000000000000000000000000000000000000000081526004016112ca9061377f565b60405180910390fd5b80600f60008473ffffffffffffffffffffffffffffffffffffffff1673ffffffffffffffffffffffffffffffffffffffff16815260200190815260200160002060008282546113229190613902565b925050819055505050565b611335612ae4565b73ffffffffffffffffffffffffffffffffffffffff166113536119ce565b73ffffffffffffffffffffffffffffffffffffffff16146113a9576040517f08c379a00000000000000000000000000000000000000000000000000000000081526004016113a09061385f565b60405180910390fd5b6113b36000612c53565b565b600660009054906101000a900473ffffffffffffffffffffffffffffffffffffffff1681565b600560009054906101000a900473ffffffffffffffffffffffffffffffffffffffff1673ffffffffffffffffffffffffffffffffffffffff163373ffffffffffffffffffffffffffffffffffffffff161461146b576040517f08c379a00000000000000000000000000000000000000000000000000000000081526004016114629061379f565b60405180910390fd5b60006007600084815260200190815260200160002060000160009054906101000a900473ffffffffffffffffffffffffffffffffffffffff1690506000600960006007600087815260200190815260200160002060010160009054906101000a900473ffffffffffffffffffffffffffffffffffffffff1673ffffffffffffffffffffffffffffffffffffffff1673ffffffffffffffffffffffffffffffffffffffff16815260200190815260200160002060008373ffffffffffffffffffffffffffffffffffffffff1673ffffffffffffffffffffffffffffffffffffffff1681526020019081526020016000208054806020026020016040519081016040528092919081815260200182805480156115a457602002820191906000526020600020905b815481526020019060010190808311611590575b5050505050905060005b815181101561187357848282815181106115cb576115ca613cc5565b5b6020026020010151141561186057600960006007600088815260200190815260200160002060010160009054906101000a900473ffffffffffffffffffffffffffffffffffffffff1673ffffffffffffffffffffffffffffffffffffffff1673ffffffffffffffffffffffffffffffffffffffff16815260200190815260200160002060008473ffffffffffffffffffffffffffffffffffffffff1673ffffffffffffffffffffffffffffffffffffffff168152602001908152602001600020600183516116999190613b54565b815481106116aa576116a9613cc5565b5b9060005260206000200154600960006007600089815260200190815260200160002060010160009054906101000a900473ffffffffffffffffffffffffffffffffffffffff1673ffffffffffffffffffffffffffffffffffffffff1673ffffffffffffffffffffffffffffffffffffffff16815260200190815260200160002060008573ffffffffffffffffffffffffffffffffffffffff1673ffffffffffffffffffffffffffffffffffffffff168152602001908152602001600020828154811061177957611778613cc5565b5b9060005260206000200181905550600960006007600088815260200190815260200160002060010160009054906101000a900473ffffffffffffffffffffffffffffffffffffffff1673ffffffffffffffffffffffffffffffffffffffff1673ffffffffffffffffffffffffffffffffffffffff16815260200190815260200160002060008473ffffffffffffffffffffffffffffffffffffffff1673ffffffffffffffffffffffffffffffffffffffff16815260200190815260200160002080548061184957611848613c96565b5b600190038181906000526020600020016000905590555b808061186b90613bef565b9150506115ae565b50826007600086815260200190815260200160002060000160006101000a81548173ffffffffffffffffffffffffffffffffffffffff021916908373ffffffffffffffffffffffffffffffffffffffff160217905550600960006007600087815260200190815260200160002060010160009054906101000a900473ffffffffffffffffffffffffffffffffffffffff1673ffffffffffffffffffffffffffffffffffffffff1673ffffffffffffffffffffffffffffffffffffffff16815260200190815260200160002060008473ffffffffffffffffffffffffffffffffffffffff1673ffffffffffffffffffffffffffffffffffffffff16815260200190815260200160002084908060018154018082558091505060019003906000526020600020016000909190919091505550505050565b600160009054906101000a900473ffffffffffffffffffffffffffffffffffffffff1681565b60008060009054906101000a900473ffffffffffffffffffffffffffffffffffffffff16905090565b600b6020528060005260406000206000915090505481565b600360009054906101000a900473ffffffffffffffffffffffffffffffffffffffff1681565b600460009054906101000a900473ffffffffffffffffffffffffffffffffffffffff1681565b8460011515600260009054906101000a900473ffffffffffffffffffffffffffffffffffffffff1673ffffffffffffffffffffffffffffffffffffffff1663d44da15f836040518263ffffffff1660e01b8152600401611abb9190613672565b60206040518083038186803b158015611ad357600080fd5b505afa158015611ae7573d6000803e3d6000fd5b505050506040513d601f19601f82011682018060405250810190611b0b91906133d0565b151514611b4d576040517f08c379a0000000000000000000000000000000000000000000000000000000008152600401611b449061387f565b60405180910390fd5b611b55612ae4565b73ffffffffffffffffffffffffffffffffffffffff16611b736119ce565b73ffffffffffffffffffffffffffffffffffffffff1614611bc9576040517f08c379a0000000000000000000000000000000000000000000000000000000008152600401611bc09061385f565b60405180910390fd5b848411158015611bdc5750620f42408511155b611c1b576040517f08c379a0000000000000000000000000000000000000000000000000000000008152600401611c129061381f565b60405180910390fd5b84600a60008873ffffffffffffffffffffffffffffffffffffffff1673ffffffffffffffffffffffffffffffffffffffff1681526020019081526020016000208190555083600b60008873ffffffffffffffffffffffffffffffffffffffff1673ffffffffffffffffffffffffffffffffffffffff1681526020019081526020016000208190555082600c60008873ffffffffffffffffffffffffffffffffffffffff1673ffffffffffffffffffffffffffffffffffffffff1681526020019081526020016000208190555081600d60008873ffffffffffffffffffffffffffffffffffffffff1673ffffffffffffffffffffffffffffffffffffffff16815260200190815260200160002081905550505050505050565b8160011515600260009054906101000a900473ffffffffffffffffffffffffffffffffffffffff1673ffffffffffffffffffffffffffffffffffffffff1663d44da15f836040518263ffffffff1660e01b8152600401611d939190613672565b60206040518083038186803b158015611dab57600080fd5b505afa158015611dbf573d6000803e3d6000fd5b505050506040513d601f19601f82011682018060405250810190611de391906133d0565b151514611e25576040517f08c379a0000000000000000000000000000000000000000000000000000000008152600401611e1c9061387f565b60405180910390fd5b600160009054906101000a900473ffffffffffffffffffffffffffffffffffffffff1673ffffffffffffffffffffffffffffffffffffffff163373ffffffffffffffffffffffffffffffffffffffff1614611eb5576040517f08c379a0000000000000000000000000000000000000000000000000000000008152600401611eac9061377f565b60405180910390fd5b611ee283600160009054906101000a900473ffffffffffffffffffffffffffffffffffffffff1684612d17565b505050565b600d6020528060005260406000206000915090505481565b611f07612ae4565b73ffffffffffffffffffffffffffffffffffffffff16611f256119ce565b73ffffffffffffffffffffffffffffffffffffffff1614611f7b576040517f08c379a0000000000000000000000000000000000000000000000000000000008152600401611f729061385f565b60405180910390fd5b600073ffffffffffffffffffffffffffffffffffffffff168173ffffffffffffffffffffffffffffffffffffffff161415611feb576040517f08c379a0000000000000000000000000000000000000000000000000000000008152600401611fe29061375f565b60405180910390fd5b80600160006101000a81548173ffffffffffffffffffffffffffffffffffffffff021916908373ffffffffffffffffffffffffffffffffffffffff16021790555050565b600e5481565b60008160011515600260009054906101000a900473ffffffffffffffffffffffffffffffffffffffff1673ffffffffffffffffffffffffffffffffffffffff1663d44da15f836040518263ffffffff1660e01b81526004016120979190613672565b60206040518083038186803b1580156120af57600080fd5b505afa1580156120c3573d6000803e3d6000fd5b505050506040513d601f19601f820116820180604052508101906120e791906133d0565b151514612129576040517f08c379a00000000000000000000000000000000000000000000000000000000081526004016121209061387f565b60405180910390fd5b600f60008473ffffffffffffffffffffffffffffffffffffffff1673ffffffffffffffffffffffffffffffffffffffff16815260200190815260200160002054915050919050565b612179612ae4565b73ffffffffffffffffffffffffffffffffffffffff166121976119ce565b73ffffffffffffffffffffffffffffffffffffffff16146121ed576040517f08c379a00000000000000000000000000000000000000000000000000000000081526004016121e49061385f565b60405180910390fd5b600073ffffffffffffffffffffffffffffffffffffffff168173ffffffffffffffffffffffffffffffffffffffff16141561225d576040517f08c379a00000000000000000000000000000000000000000000000000000000081526004016122549061375f565b60405180910390fd5b80600260006101000a81548173ffffffffffffffffffffffffffffffffffffffff021916908373ffffffffffffffffffffffffffffffffffffffff16021790555050565b6122a9612ae4565b73ffffffffffffffffffffffffffffffffffffffff166122c76119ce565b73ffffffffffffffffffffffffffffffffffffffff161461231d576040517f08c379a00000000000000000000000000000000000000000000000000000000081526004016123149061385f565b60405180910390fd5b600073ffffffffffffffffffffffffffffffffffffffff168173ffffffffffffffffffffffffffffffffffffffff16141561238d576040517f08c379a00000000000000000000000000000000000000000000000000000000081526004016123849061373f565b60405180910390fd5b61239681612c53565b50565b6123a1612ae4565b73ffffffffffffffffffffffffffffffffffffffff166123bf6119ce565b73ffffffffffffffffffffffffffffffffffffffff1614612415576040517f08c379a000000000000000000000000000000000000000000000000000000000815260040161240c9061385f565b60405180910390fd5b600073ffffffffffffffffffffffffffffffffffffffff168173ffffffffffffffffffffffffffffffffffffffff161415612485576040517f08c379a000000000000000000000000000000000000000000000000000000000815260040161247c9061375f565b60405180910390fd5b80600360006101000a81548173ffffffffffffffffffffffffffffffffffffffff021916908373ffffffffffffffffffffffffffffffffffffffff16021790555050565b8160011515600260009054906101000a900473ffffffffffffffffffffffffffffffffffffffff1673ffffffffffffffffffffffffffffffffffffffff1663d44da15f836040518263ffffffff1660e01b81526004016125299190613672565b60206040518083038186803b15801561254157600080fd5b505afa158015612555573d6000803e3d6000fd5b505050506040513d601f19601f8201168201806040525081019061257991906133d0565b1515146125bb576040517f08c379a00000000000000000000000000000000000000000000000000000000081526004016125b29061387f565b60405180910390fd5b6125c6833384612d17565b3373ffffffffffffffffffffffffffffffffffffffff168373ffffffffffffffffffffffffffffffffffffffff167f9b1bfa7fa9ee420a16e124f794c35ac9f90472acc99140eb2f6447c714cad8eb84604051612623919061389f565b60405180910390a3505050565b6000806007600084815260200190815260200160002060050154905060006007600085815260200190815260200160002060010160009054906101000a900473ffffffffffffffffffffffffffffffffffffffff1690506000600760008681526020019081526020016000206004015490506000600660009054906101000a900473ffffffffffffffffffffffffffffffffffffffff1673ffffffffffffffffffffffffffffffffffffffff16636f8c10a884610e106040518363ffffffff1660e01b81526004016127039291906136ed565b60206040518083038186803b15801561271b57600080fd5b505afa15801561272f573d6000803e3d6000fd5b505050506040513d601f19601f82011682018060405250810190612753919061342a565b905060008373ffffffffffffffffffffffffffffffffffffffff1663313ce5676040518163ffffffff1660e01b815260040160206040518083038186803b15801561279d57600080fd5b505afa1580156127b1573d6000803e3d6000fd5b505050506040513d601f19601f820116820180604052508101906127d59190613497565b905084600b60008673ffffffffffffffffffffffffffffffffffffffff1673ffffffffffffffffffffffffffffffffffffffff16815260200190815260200160002054620f42406128269190613b54565b6128309190613afa565b620f42408361283f9190613afa565b1061284d5760009550612a1e565b84600a60008673ffffffffffffffffffffffffffffffffffffffff1673ffffffffffffffffffffffffffffffffffffffff16815260200190815260200160002054620f424061289c9190613b54565b6128a69190613afa565b620f4240836128b59190613afa565b116129865780600a6128c791906139dc565b620f424086600a60008873ffffffffffffffffffffffffffffffffffffffff1673ffffffffffffffffffffffffffffffffffffffff16815260200190815260200160002054600b60008973ffffffffffffffffffffffffffffffffffffffff1673ffffffffffffffffffffffffffffffffffffffff168152602001908152602001600020546129569190613b54565b866129619190613afa565b61296b9190613afa565b6129759190613958565b61297f9190613958565b9550612a1d565b80600a61299391906139dc565b620f424083620f42406129a69190613afa565b87600b60008973ffffffffffffffffffffffffffffffffffffffff1673ffffffffffffffffffffffffffffffffffffffff168152602001908152602001600020546129f19190613afa565b6129fb9190613b54565b85612a069190613afa565b612a109190613958565b612a1a9190613958565b95505b5b620f4240612a2a612e4a565b87612a359190613afa565b612a3f9190613958565b95505050505050919050565b6000600460009054906101000a900473ffffffffffffffffffffffffffffffffffffffff1690508073ffffffffffffffffffffffffffffffffffffffff1663a58bc3e084846040518363ffffffff1660e01b8152600401612aad929190613716565b600060405180830381600087803b158015612ac757600080fd5b505af1158015612adb573d6000803e3d6000fd5b50505050505050565b600033905090565b8160011515600260009054906101000a900473ffffffffffffffffffffffffffffffffffffffff1673ffffffffffffffffffffffffffffffffffffffff1663d44da15f836040518263ffffffff1660e01b8152600401612b4c9190613672565b60206040518083038186803b158015612b6457600080fd5b505afa158015612b78573d6000803e3d6000fd5b505050506040513d601f19601f82011682018060405250810190612b9c91906133d0565b151514612bde576040517f08c379a0000000000000000000000000000000000000000000000000000000008152600401612bd59061387f565b60405180910390fd5b612be9833384612f42565b3373ffffffffffffffffffffffffffffffffffffffff168373ffffffffffffffffffffffffffffffffffffffff167f5548c837ab068cf56a2c2479df0882a4922fd203edb7517321831d95078c5f6284604051612c46919061389f565b60405180910390a3505050565b60008060009054906101000a900473ffffffffffffffffffffffffffffffffffffffff169050816000806101000a81548173ffffffffffffffffffffffffffffffffffffffff021916908373ffffffffffffffffffffffffffffffffffffffff1602179055508173ffffffffffffffffffffffffffffffffffffffff168173ffffffffffffffffffffffffffffffffffffffff167f8be0079c531659141344cd1fd0a4f28419497f9722a3daafe3b4186f6b6457e060405160405180910390a35050565b6000612d238430613157565b90507fe4d818e6f992efbd60db553f3edce819a199baec79a784b95c89bc8ee86f2584828486604051612d58939291906138ba565b60405180910390a18373ffffffffffffffffffffffffffffffffffffffff1663a9059cbb84846040518363ffffffff1660e01b8152600401612d9b929190613716565b602060405180830381600087803b158015612db557600080fd5b505af1158015612dc9573d6000803e3d6000fd5b505050506040513d601f19601f82011682018060405250810190612ded91906133d0565b508082612dfa8630613157565b612e049190613902565b14612e44576040517f08c379a0000000000000000000000000000000000000000000000000000000008152600401612e3b906137bf565b60405180910390fd5b50505050565b60008060125490506000811415612e65576000915050612f3f565b6000600460009054906101000a900473ffffffffffffffffffffffffffffffffffffffff1673ffffffffffffffffffffffffffffffffffffffff16630dbf67426040518163ffffffff1660e01b815260040160206040518083038186803b158015612ecf57600080fd5b505afa158015612ee3573d6000803e3d6000fd5b505050506040513d601f19601f82011682018060405250810190612f07919061342a565b9050600082600e5483612f1a9190613afa565b612f249190613958565b9050620f4240811115612f3857620f424090505b8093505050505b90565b828282808373ffffffffffffffffffffffffffffffffffffffff1663dd62ed3e84306040518363ffffffff1660e01b8152600401612f8192919061368d565b60206040518083038186803b158015612f9957600080fd5b505afa158015612fad573d6000803e3d6000fd5b505050506040513d601f19601f82011682018060405250810190612fd1919061342a565b1015613012576040517f08c379a0000000000000000000000000000000000000000000000000000000008152600401613009906137df565b60405180910390fd5b6000841161301f57600080fd5b600061302b8730613157565b90508673ffffffffffffffffffffffffffffffffffffffff166323b872dd8730886040518463ffffffff1660e01b815260040161306a939291906136b6565b602060405180830381600087803b15801561308457600080fd5b505af1158015613098573d6000803e3d6000fd5b505050506040513d601f19601f820116820180604052508101906130bc91906133d0565b507f1fecf4702e692891a7c2f0d328779b085efb5edd094fa5558bd5cd147a1679228587896040516130f0939291906138ba565b60405180910390a16131028730613157565b858261310e9190613902565b1461314e576040517f08c379a0000000000000000000000000000000000000000000000000000000008152600401613145906137bf565b60405180910390fd5b50505050505050565b60008273ffffffffffffffffffffffffffffffffffffffff166370a08231836040518263ffffffff1660e01b81526004016131929190613672565b60206040518083038186803b1580156131aa57600080fd5b505afa1580156131be573d6000803e3d6000fd5b505050506040513d601f19601f820116820180604052508101906131e2919061342a565b905092915050565b6000813590506131f981613eef565b92915050565b60008151905061320e81613eef565b92915050565b60008151905061322381613f06565b92915050565b60008135905061323881613f1d565b92915050565b60008151905061324d81613f1d565b92915050565b60008151905061326281613f34565b92915050565b60006020828403121561327e5761327d613cf4565b5b600061328c848285016131ea565b91505092915050565b6000602082840312156132ab576132aa613cf4565b5b60006132b9848285016131ff565b91505092915050565b600080604083850312156132d9576132d8613cf4565b5b60006132e7858286016131ea565b92505060206132f885828601613229565b9150509250929050565b60008060006060848603121561331b5761331a613cf4565b5b6000613329868287016131ea565b935050602061333a86828701613229565b925050604061334b86828701613229565b9150509250925092565b600080600080600060a0868803121561337157613370613cf4565b5b600061337f888289016131ea565b955050602061339088828901613229565b94505060406133a188828901613229565b93505060606133b288828901613229565b92505060806133c388828901613229565b9150509295509295909350565b6000602082840312156133e6576133e5613cf4565b5b60006133f484828501613214565b91505092915050565b60006020828403121561341357613412613cf4565b5b600061342184828501613229565b91505092915050565b6000602082840312156134405761343f613cf4565b5b600061344e8482850161323e565b91505092915050565b6000806040838503121561346e5761346d613cf4565b5b600061347c85828601613229565b925050602061348d858286016131ea565b9150509250929050565b6000602082840312156134ad576134ac613cf4565b5b60006134bb84828501613253565b91505092915050565b6134cd81613b88565b82525050565b6134dc81613bdd565b82525050565b60006134ef6026836138f1565b91506134fa82613d06565b604082019050919050565b60006135126015836138f1565b915061351d82613d55565b602082019050919050565b60006135356017836138f1565b915061354082613d7e565b602082019050919050565b60006135586013836138f1565b915061356382613da7565b602082019050919050565b600061357b601d836138f1565b915061358682613dd0565b602082019050919050565b600061359e600c836138f1565b91506135a982613df9565b602082019050919050565b60006135c1601b836138f1565b91506135cc82613e22565b602082019050919050565b60006135e46012836138f1565b91506135ef82613e4b565b602082019050919050565b60006136076015836138f1565b915061361282613e74565b602082019050919050565b600061362a6020836138f1565b915061363582613e9d565b602082019050919050565b600061364d6013836138f1565b915061365882613ec6565b602082019050919050565b61366c81613bc6565b82525050565b600060208201905061368760008301846134c4565b92915050565b60006040820190506136a260008301856134c4565b6136af60208301846134c4565b9392505050565b60006060820190506136cb60008301866134c4565b6136d860208301856134c4565b6136e56040830184613663565b949350505050565b600060408201905061370260008301856134c4565b61370f60208301846134d3565b9392505050565b600060408201905061372b60008301856134c4565b6137386020830184613663565b9392505050565b60006020820190508181036000830152613758816134e2565b9050919050565b6000602082019050818103600083015261377881613505565b9050919050565b6000602082019050818103600083015261379881613528565b9050919050565b600060208201905081810360008301526137b88161354b565b9050919050565b600060208201905081810360008301526137d88161356e565b9050919050565b600060208201905081810360008301526137f881613591565b9050919050565b60006020820190508181036000830152613818816135b4565b9050919050565b60006020820190508181036000830152613838816135d7565b9050919050565b60006020820190508181036000830152613858816135fa565b9050919050565b600060208201905081810360008301526138788161361d565b9050919050565b6000602082019050818103600083015261389881613640565b9050919050565b60006020820190506138b46000830184613663565b92915050565b60006060820190506138cf6000830186613663565b6138dc60208301856134c4565b6138e960408301846134c4565b949350505050565b600082825260208201905092915050565b600061390d82613bc6565b915061391883613bc6565b9250827fffffffffffffffffffffffffffffffffffffffffffffffffffffffffffffffff0382111561394d5761394c613c38565b5b828201905092915050565b600061396382613bc6565b915061396e83613bc6565b92508261397e5761397d613c67565b5b828204905092915050565b6000808291508390505b60018511156139d3578086048111156139af576139ae613c38565b5b60018516156139be5780820291505b80810290506139cc85613cf9565b9450613993565b94509492505050565b60006139e782613bc6565b91506139f283613bd0565b9250613a1f7fffffffffffffffffffffffffffffffffffffffffffffffffffffffffffffffff8484613a27565b905092915050565b600082613a375760019050613af3565b81613a455760009050613af3565b8160018114613a5b5760028114613a6557613a94565b6001915050613af3565b60ff841115613a7757613a76613c38565b5b8360020a915084821115613a8e57613a8d613c38565b5b50613af3565b5060208310610133831016604e8410600b8410161715613ac95782820a905083811115613ac457613ac3613c38565b5b613af3565b613ad68484846001613989565b92509050818404811115613aed57613aec613c38565b5b81810290505b9392505050565b6000613b0582613bc6565b9150613b1083613bc6565b9250817fffffffffffffffffffffffffffffffffffffffffffffffffffffffffffffffff0483118215151615613b4957613b48613c38565b5b828202905092915050565b6000613b5f82613bc6565b9150613b6a83613bc6565b925082821015613b7d57613b7c613c38565b5b828203905092915050565b6000613b9382613ba6565b9050919050565b60008115159050919050565b600073ffffffffffffffffffffffffffffffffffffffff82169050919050565b6000819050919050565b600060ff82169050919050565b6000613be882613bc6565b9050919050565b6000613bfa82613bc6565b91507fffffffffffffffffffffffffffffffffffffffffffffffffffffffffffffffff821415613c2d57613c2c613c38565b5b600182019050919050565b7f4e487b7100000000000000000000000000000000000000000000000000000000600052601160045260246000fd5b7f4e487b7100000000000000000000000000000000000000000000000000000000600052601260045260246000fd5b7f4e487b7100000000000000000000000000000000000000000000000000000000600052603160045260246000fd5b7f4e487b7100000000000000000000000000000000000000000000000000000000600052603260045260246000fd5b600080fd5b60008160011c9050919050565b7f4f776e61626c653a206e6577206f776e657220697320746865207a65726f206160008201527f6464726573730000000000000000000000000000000000000000000000000000602082015250565b7f5a65726f20616464726573732064657465637465640000000000000000000000600082015250565b7f596f7520617265206e6f7420616d6f206d616e61676572000000000000000000600082015250565b7f596f7520617265206e6f7420445469636b657400000000000000000000000000600082015250565b7f7265636976652077726f6e6720616d6f756e74206f6620746f6b656e73000000600082015250565b7f6e6f20616c6c6f77616e63650000000000000000000000000000000000000000600082015250565b7f596f75206861766520616c72656164792077697468647261776e2e0000000000600082015250565b7f496e76616c696420706172616d65746572730000000000000000000000000000600082015250565b7f546865204e4654206973206e6f7420796f7572732e0000000000000000000000600082015250565b7f4f776e61626c653a2063616c6c6572206973206e6f7420746865206f776e6572600082015250565b7f4173736574206e6f7420617661696c61626c6500000000000000000000000000600082015250565b613ef881613b88565b8114613f0357600080fd5b50565b613f0f81613b9a565b8114613f1a57600080fd5b50565b613f2681613bc6565b8114613f3157600080fd5b50565b613f3d81613bd0565b8114613f4857600080fd5b5056fea2646970667358221220d8eca8d0431fc29766cd52fc3899cc41cc428c6337e4bb35c8649a41a531d08164736f6c6343000806003360806040523480156200001157600080fd5b5060405162002e7638038062002e768339818101604052810190620000379190620001e6565b6040518060400160405280600b81526020017f445469636b65742d4e46540000000000000000000000000000000000000000008152506040518060400160405280600681526020017f44542d4e465400000000000000000000000000000000000000000000000000008152508160009080519060200190620000bb9291906200011f565b508060019080519060200190620000d49291906200011f565b50505080600660006101000a81548173ffffffffffffffffffffffffffffffffffffffff021916908373ffffffffffffffffffffffffffffffffffffffff16021790555050620002d0565b8280546200012d906200024c565b90600052602060002090601f0160209004810192826200015157600085556200019d565b82601f106200016c57805160ff19168380011785556200019d565b828001600101855582156200019d579182015b828111156200019c5782518255916020019190600101906200017f565b5b509050620001ac9190620001b0565b5090565b5b80821115620001cb576000816000905550600101620001b1565b5090565b600081519050620001e081620002b6565b92915050565b600060208284031215620001ff57620001fe620002b1565b5b60006200020f84828501620001cf565b91505092915050565b600062000225826200022c565b9050919050565b600073ffffffffffffffffffffffffffffffffffffffff82169050919050565b600060028204905060018216806200026557607f821691505b602082108114156200027c576200027b62000282565b5b50919050565b7f4e487b7100000000000000000000000000000000000000000000000000000000600052602260045260246000fd5b600080fd5b620002c18162000218565b8114620002cd57600080fd5b50565b612b9680620002e06000396000f3fe608060405234801561001057600080fd5b50600436106101005760003560e01c806379c6506811610097578063b88d4fde11610066578063b88d4fde146102a9578063c87b56dd146102c5578063d1df306c146102f5578063e985e9c51461031157610100565b806379c650681461023757806395d89b4114610253578063a22cb46514610271578063a9059cbb1461028d57610100565b806323b872dd116100d357806323b872dd1461019f57806342842e0e146101bb5780636352211e146101d757806370a082311461020757610100565b806301ffc9a71461010557806306fdde0314610135578063081812fc14610153578063095ea7b314610183575b600080fd5b61011f600480360381019061011a9190611c48565b610341565b60405161012c919061205a565b60405180910390f35b61013d610423565b60405161014a9190612075565b60405180910390f35b61016d60048036038101906101689190611ca2565b6104b5565b60405161017a9190611ff3565b60405180910390f35b61019d60048036038101906101989190611c08565b61053a565b005b6101b960048036038101906101b49190611af2565b610652565b005b6101d560048036038101906101d09190611af2565b6106b2565b005b6101f160048036038101906101ec9190611ca2565b6106d2565b6040516101fe9190611ff3565b60405180910390f35b610221600480360381019061021c9190611a85565b610784565b60405161022e9190612297565b60405180910390f35b610251600480360381019061024c9190611c08565b61083c565b005b61025b6108da565b6040516102689190612075565b60405180910390f35b61028b60048036038101906102869190611bc8565b61096c565b005b6102a760048036038101906102a29190611c08565b610982565b005b6102c360048036038101906102be9190611b45565b610a20565b005b6102df60048036038101906102da9190611ca2565b610a82565b6040516102ec9190612075565b60405180910390f35b61030f600480360381019061030a9190611c08565b610b29565b005b61032b60048036038101906103269190611ab2565b610c40565b604051610338919061205a565b60405180910390f35b60007f80ac58cd000000000000000000000000000000000000000000000000000000007bffffffffffffffffffffffffffffffffffffffffffffffffffffffff1916827bffffffffffffffffffffffffffffffffffffffffffffffffffffffff1916148061040c57507f5b5e139f000000000000000000000000000000000000000000000000000000007bffffffffffffffffffffffffffffffffffffffffffffffffffffffff1916827bffffffffffffffffffffffffffffffffffffffffffffffffffffffff1916145b8061041c575061041b82610cd4565b5b9050919050565b606060008054610432906124e5565b80601f016020809104026020016040519081016040528092919081815260200182805461045e906124e5565b80156104ab5780601f10610480576101008083540402835291602001916104ab565b820191906000526020600020905b81548152906001019060200180831161048e57829003601f168201915b5050505050905090565b60006104c082610d3e565b6104ff576040517f08c379a00000000000000000000000000000000000000000000000000000000081526004016104f6906121f7565b60405180910390fd5b6004600083815260200190815260200160002060009054906101000a900473ffffffffffffffffffffffffffffffffffffffff169050919050565b6000610545826106d2565b90508073ffffffffffffffffffffffffffffffffffffffff168373ffffffffffffffffffffffffffffffffffffffff1614156105b6576040517f08c379a00000000000000000000000000000000000000000000000000000000081526004016105ad90612257565b60405180910390fd5b8073ffffffffffffffffffffffffffffffffffffffff166105d5610daa565b73ffffffffffffffffffffffffffffffffffffffff1614806106045750610603816105fe610daa565b610c40565b5b610643576040517f08c379a000000000000000000000000000000000000000000000000000000000815260040161063a90612177565b60405180910390fd5b61064d8383610db2565b505050565b61066361065d610daa565b82610e6b565b6106a2576040517f08c379a000000000000000000000000000000000000000000000000000000000815260040161069990612277565b60405180910390fd5b6106ad838383610f49565b505050565b6106cd83838360405180602001604052806000815250610a20565b505050565b6000806002600084815260200190815260200160002060009054906101000a900473ffffffffffffffffffffffffffffffffffffffff169050600073ffffffffffffffffffffffffffffffffffffffff168173ffffffffffffffffffffffffffffffffffffffff16141561077b576040517f08c379a0000000000000000000000000000000000000000000000000000000008152600401610772906121b7565b60405180910390fd5b80915050919050565b60008073ffffffffffffffffffffffffffffffffffffffff168273ffffffffffffffffffffffffffffffffffffffff1614156107f5576040517f08c379a00000000000000000000000000000000000000000000000000000000081526004016107ec90612197565b60405180910390fd5b600360008373ffffffffffffffffffffffffffffffffffffffff1673ffffffffffffffffffffffffffffffffffffffff168152602001908152602001600020549050919050565b600660009054906101000a900473ffffffffffffffffffffffffffffffffffffffff1673ffffffffffffffffffffffffffffffffffffffff163373ffffffffffffffffffffffffffffffffffffffff16146108cc576040517f08c379a00000000000000000000000000000000000000000000000000000000081526004016108c390612097565b60405180910390fd5b6108d682826111b0565b5050565b6060600180546108e9906124e5565b80601f0160208091040260200160405190810160405280929190818152602001828054610915906124e5565b80156109625780601f1061093757610100808354040283529160200191610962565b820191906000526020600020905b81548152906001019060200180831161094557829003601f168201915b5050505050905090565b61097e610977610daa565b838361138a565b5050565b61098d338383610f49565b600660009054906101000a900473ffffffffffffffffffffffffffffffffffffffff1673ffffffffffffffffffffffffffffffffffffffff1663873fc99682846040518363ffffffff1660e01b81526004016109ea9291906122b2565b600060405180830381600087803b158015610a0457600080fd5b505af1158015610a18573d6000803e3d6000fd5b505050505050565b610a31610a2b610daa565b83610e6b565b610a70576040517f08c379a0000000000000000000000000000000000000000000000000000000008152600401610a6790612277565b60405180910390fd5b610a7c848484846114f7565b50505050565b6060610a8d82610d3e565b610acc576040517f08c379a0000000000000000000000000000000000000000000000000000000008152600401610ac390612217565b60405180910390fd5b6000610ad6611553565b90506000815111610af65760405180602001604052806000815250610b21565b80610b008461156a565b604051602001610b11929190611fcf565b6040516020818303038152906040525b915050919050565b600660009054906101000a900473ffffffffffffffffffffffffffffffffffffffff1673ffffffffffffffffffffffffffffffffffffffff163373ffffffffffffffffffffffffffffffffffffffff1614610bb9576040517f08c379a0000000000000000000000000000000000000000000000000000000008152600401610bb090612097565b60405180910390fd5b8181610bc4816106d2565b73ffffffffffffffffffffffffffffffffffffffff168273ffffffffffffffffffffffffffffffffffffffff1614610c31576040517f08c379a0000000000000000000000000000000000000000000000000000000008152600401610c2890612237565b60405180910390fd5b610c3a836116cb565b50505050565b6000600560008473ffffffffffffffffffffffffffffffffffffffff1673ffffffffffffffffffffffffffffffffffffffff16815260200190815260200160002060008373ffffffffffffffffffffffffffffffffffffffff1673ffffffffffffffffffffffffffffffffffffffff16815260200190815260200160002060009054906101000a900460ff16905092915050565b60007f01ffc9a7000000000000000000000000000000000000000000000000000000007bffffffffffffffffffffffffffffffffffffffffffffffffffffffff1916827bffffffffffffffffffffffffffffffffffffffffffffffffffffffff1916149050919050565b60008073ffffffffffffffffffffffffffffffffffffffff166002600084815260200190815260200160002060009054906101000a900473ffffffffffffffffffffffffffffffffffffffff1673ffffffffffffffffffffffffffffffffffffffff1614159050919050565b600033905090565b816004600083815260200190815260200160002060006101000a81548173ffffffffffffffffffffffffffffffffffffffff021916908373ffffffffffffffffffffffffffffffffffffffff160217905550808273ffffffffffffffffffffffffffffffffffffffff16610e25836106d2565b73ffffffffffffffffffffffffffffffffffffffff167f8c5be1e5ebec7d5bd14f71427d1e84f3dd0314c0f7b2291e5b200ac8c7c3b92560405160405180910390a45050565b6000610e7682610d3e565b610eb5576040517f08c379a0000000000000000000000000000000000000000000000000000000008152600401610eac90612157565b60405180910390fd5b6000610ec0836106d2565b90508073ffffffffffffffffffffffffffffffffffffffff168473ffffffffffffffffffffffffffffffffffffffff161480610f2f57508373ffffffffffffffffffffffffffffffffffffffff16610f17846104b5565b73ffffffffffffffffffffffffffffffffffffffff16145b80610f405750610f3f8185610c40565b5b91505092915050565b8273ffffffffffffffffffffffffffffffffffffffff16610f69826106d2565b73ffffffffffffffffffffffffffffffffffffffff1614610fbf576040517f08c379a0000000000000000000000000000000000000000000000000000000008152600401610fb6906120d7565b60405180910390fd5b600073ffffffffffffffffffffffffffffffffffffffff168273ffffffffffffffffffffffffffffffffffffffff16141561102f576040517f08c379a000000000000000000000000000000000000000000000000000000000815260040161102690612117565b60405180910390fd5b61103a8383836117e8565b611045600082610db2565b6001600360008573ffffffffffffffffffffffffffffffffffffffff1673ffffffffffffffffffffffffffffffffffffffff168152602001908152602001600020600082825461109591906123fb565b925050819055506001600360008473ffffffffffffffffffffffffffffffffffffffff1673ffffffffffffffffffffffffffffffffffffffff16815260200190815260200160002060008282546110ec9190612374565b92505081905550816002600083815260200190815260200160002060006101000a81548173ffffffffffffffffffffffffffffffffffffffff021916908373ffffffffffffffffffffffffffffffffffffffff160217905550808273ffffffffffffffffffffffffffffffffffffffff168473ffffffffffffffffffffffffffffffffffffffff167fddf252ad1be2c89b69c2b068fc378daa952ba7f163c4a11628f55a4df523b3ef60405160405180910390a46111ab8383836117ed565b505050565b600073ffffffffffffffffffffffffffffffffffffffff168273ffffffffffffffffffffffffffffffffffffffff161415611220576040517f08c379a0000000000000000000000000000000000000000000000000000000008152600401611217906121d7565b60405180910390fd5b61122981610d3e565b15611269576040517f08c379a0000000000000000000000000000000000000000000000000000000008152600401611260906120f7565b60405180910390fd5b611275600083836117e8565b6001600360008473ffffffffffffffffffffffffffffffffffffffff1673ffffffffffffffffffffffffffffffffffffffff16815260200190815260200160002060008282546112c59190612374565b92505081905550816002600083815260200190815260200160002060006101000a81548173ffffffffffffffffffffffffffffffffffffffff021916908373ffffffffffffffffffffffffffffffffffffffff160217905550808273ffffffffffffffffffffffffffffffffffffffff16600073ffffffffffffffffffffffffffffffffffffffff167fddf252ad1be2c89b69c2b068fc378daa952ba7f163c4a11628f55a4df523b3ef60405160405180910390a4611386600083836117ed565b5050565b8173ffffffffffffffffffffffffffffffffffffffff168373ffffffffffffffffffffffffffffffffffffffff1614156113f9576040517f08c379a00000000000000000000000000000000000000000000000000000000081526004016113f090612137565b60405180910390fd5b80600560008573ffffffffffffffffffffffffffffffffffffffff1673ffffffffffffffffffffffffffffffffffffffff16815260200190815260200160002060008473ffffffffffffffffffffffffffffffffffffffff1673ffffffffffffffffffffffffffffffffffffffff16815260200190815260200160002060006101000a81548160ff0219169083151502179055508173ffffffffffffffffffffffffffffffffffffffff168373ffffffffffffffffffffffffffffffffffffffff167f17307eab39ab6107e8899845ad3d59bd9653f200f220920489ca2b5937696c31836040516114ea919061205a565b60405180910390a3505050565b611502848484610f49565b61150e848484846117f2565b61154d576040517f08c379a0000000000000000000000000000000000000000000000000000000008152600401611544906120b7565b60405180910390fd5b50505050565b606060405180602001604052806000815250905090565b606060008214156115b2576040518060400160405280600181526020017f300000000000000000000000000000000000000000000000000000000000000081525090506116c6565b600082905060005b600082146115e45780806115cd90612548565b915050600a826115dd91906123ca565b91506115ba565b60008167ffffffffffffffff811115611600576115ff61267e565b5b6040519080825280601f01601f1916602001820160405280156116325781602001600182028036833780820191505090505b5090505b600085146116bf5760018261164b91906123fb565b9150600a8561165a9190612591565b60306116669190612374565b60f81b81838151811061167c5761167b61264f565b5b60200101907effffffffffffffffffffffffffffffffffffffffffffffffffffffffffffff1916908160001a905350600a856116b891906123ca565b9450611636565b8093505050505b919050565b60006116d6826106d2565b90506116e4816000846117e8565b6116ef600083610db2565b6001600360008373ffffffffffffffffffffffffffffffffffffffff1673ffffffffffffffffffffffffffffffffffffffff168152602001908152602001600020600082825461173f91906123fb565b925050819055506002600083815260200190815260200160002060006101000a81549073ffffffffffffffffffffffffffffffffffffffff021916905581600073ffffffffffffffffffffffffffffffffffffffff168273ffffffffffffffffffffffffffffffffffffffff167fddf252ad1be2c89b69c2b068fc378daa952ba7f163c4a11628f55a4df523b3ef60405160405180910390a46117e4816000846117ed565b5050565b505050565b505050565b60006118138473ffffffffffffffffffffffffffffffffffffffff16611989565b1561197c578373ffffffffffffffffffffffffffffffffffffffff1663150b7a0261183c610daa565b8786866040518563ffffffff1660e01b815260040161185e949392919061200e565b602060405180830381600087803b15801561187857600080fd5b505af19250505080156118a957506040513d601f19601f820116820180604052508101906118a69190611c75565b60015b61192c573d80600081146118d9576040519150601f19603f3d011682016040523d82523d6000602084013e6118de565b606091505b50600081511415611924576040517f08c379a000000000000000000000000000000000000000000000000000000000815260040161191b906120b7565b60405180910390fd5b805181602001fd5b63150b7a0260e01b7bffffffffffffffffffffffffffffffffffffffffffffffffffffffff1916817bffffffffffffffffffffffffffffffffffffffffffffffffffffffff191614915050611981565b600190505b949350505050565b6000808273ffffffffffffffffffffffffffffffffffffffff163b119050919050565b60006119bf6119ba84612300565b6122db565b9050828152602081018484840111156119db576119da6126b2565b5b6119e68482856124a3565b509392505050565b6000813590506119fd81612b04565b92915050565b600081359050611a1281612b1b565b92915050565b600081359050611a2781612b32565b92915050565b600081519050611a3c81612b32565b92915050565b600082601f830112611a5757611a566126ad565b5b8135611a678482602086016119ac565b91505092915050565b600081359050611a7f81612b49565b92915050565b600060208284031215611a9b57611a9a6126bc565b5b6000611aa9848285016119ee565b91505092915050565b60008060408385031215611ac957611ac86126bc565b5b6000611ad7858286016119ee565b9250506020611ae8858286016119ee565b9150509250929050565b600080600060608486031215611b0b57611b0a6126bc565b5b6000611b19868287016119ee565b9350506020611b2a868287016119ee565b9250506040611b3b86828701611a70565b9150509250925092565b60008060008060808587031215611b5f57611b5e6126bc565b5b6000611b6d878288016119ee565b9450506020611b7e878288016119ee565b9350506040611b8f87828801611a70565b925050606085013567ffffffffffffffff811115611bb057611baf6126b7565b5b611bbc87828801611a42565b91505092959194509250565b60008060408385031215611bdf57611bde6126bc565b5b6000611bed858286016119ee565b9250506020611bfe85828601611a03565b9150509250929050565b60008060408385031215611c1f57611c1e6126bc565b5b6000611c2d858286016119ee565b9250506020611c3e85828601611a70565b9150509250929050565b600060208284031215611c5e57611c5d6126bc565b5b6000611c6c84828501611a18565b91505092915050565b600060208284031215611c8b57611c8a6126bc565b5b6000611c9984828501611a2d565b91505092915050565b600060208284031215611cb857611cb76126bc565b5b6000611cc684828501611a70565b91505092915050565b611cd88161242f565b82525050565b611ce781612441565b82525050565b6000611cf882612331565b611d028185612347565b9350611d128185602086016124b2565b611d1b816126c1565b840191505092915050565b6000611d318261233c565b611d3b8185612358565b9350611d4b8185602086016124b2565b611d54816126c1565b840191505092915050565b6000611d6a8261233c565b611d748185612369565b9350611d848185602086016124b2565b80840191505092915050565b6000611d9d600983612358565b9150611da8826126d2565b602082019050919050565b6000611dc0603283612358565b9150611dcb826126fb565b604082019050919050565b6000611de3602583612358565b9150611dee8261274a565b604082019050919050565b6000611e06601c83612358565b9150611e1182612799565b602082019050919050565b6000611e29602483612358565b9150611e34826127c2565b604082019050919050565b6000611e4c601983612358565b9150611e5782612811565b602082019050919050565b6000611e6f602c83612358565b9150611e7a8261283a565b604082019050919050565b6000611e92603883612358565b9150611e9d82612889565b604082019050919050565b6000611eb5602a83612358565b9150611ec0826128d8565b604082019050919050565b6000611ed8602983612358565b9150611ee382612927565b604082019050919050565b6000611efb602083612358565b9150611f0682612976565b602082019050919050565b6000611f1e602c83612358565b9150611f298261299f565b604082019050919050565b6000611f41602f83612358565b9150611f4c826129ee565b604082019050919050565b6000611f64601483612358565b9150611f6f82612a3d565b602082019050919050565b6000611f87602183612358565b9150611f9282612a66565b604082019050919050565b6000611faa603183612358565b9150611fb582612ab5565b604082019050919050565b611fc981612499565b82525050565b6000611fdb8285611d5f565b9150611fe78284611d5f565b91508190509392505050565b60006020820190506120086000830184611ccf565b92915050565b60006080820190506120236000830187611ccf565b6120306020830186611ccf565b61203d6040830185611fc0565b818103606083015261204f8184611ced565b905095945050505050565b600060208201905061206f6000830184611cde565b92915050565b6000602082019050818103600083015261208f8184611d26565b905092915050565b600060208201905081810360008301526120b081611d90565b9050919050565b600060208201905081810360008301526120d081611db3565b9050919050565b600060208201905081810360008301526120f081611dd6565b9050919050565b6000602082019050818103600083015261211081611df9565b9050919050565b6000602082019050818103600083015261213081611e1c565b9050919050565b6000602082019050818103600083015261215081611e3f565b9050919050565b6000602082019050818103600083015261217081611e62565b9050919050565b6000602082019050818103600083015261219081611e85565b9050919050565b600060208201905081810360008301526121b081611ea8565b9050919050565b600060208201905081810360008301526121d081611ecb565b9050919050565b600060208201905081810360008301526121f081611eee565b9050919050565b6000602082019050818103600083015261221081611f11565b9050919050565b6000602082019050818103600083015261223081611f34565b9050919050565b6000602082019050818103600083015261225081611f57565b9050919050565b6000602082019050818103600083015261227081611f7a565b9050919050565b6000602082019050818103600083015261229081611f9d565b9050919050565b60006020820190506122ac6000830184611fc0565b92915050565b60006040820190506122c76000830185611fc0565b6122d46020830184611ccf565b9392505050565b60006122e56122f6565b90506122f18282612517565b919050565b6000604051905090565b600067ffffffffffffffff82111561231b5761231a61267e565b5b612324826126c1565b9050602081019050919050565b600081519050919050565b600081519050919050565b600082825260208201905092915050565b600082825260208201905092915050565b600081905092915050565b600061237f82612499565b915061238a83612499565b9250827fffffffffffffffffffffffffffffffffffffffffffffffffffffffffffffffff038211156123bf576123be6125c2565b5b828201905092915050565b60006123d582612499565b91506123e083612499565b9250826123f0576123ef6125f1565b5b828204905092915050565b600061240682612499565b915061241183612499565b925082821015612424576124236125c2565b5b828203905092915050565b600061243a82612479565b9050919050565b60008115159050919050565b60007fffffffff0000000000000000000000000000000000000000000000000000000082169050919050565b600073ffffffffffffffffffffffffffffffffffffffff82169050919050565b6000819050919050565b82818337600083830152505050565b60005b838110156124d05780820151818401526020810190506124b5565b838111156124df576000848401525b50505050565b600060028204905060018216806124fd57607f821691505b6020821081141561251157612510612620565b5b50919050565b612520826126c1565b810181811067ffffffffffffffff8211171561253f5761253e61267e565b5b80604052505050565b600061255382612499565b91507fffffffffffffffffffffffffffffffffffffffffffffffffffffffffffffffff821415612586576125856125c2565b5b600182019050919050565b600061259c82612499565b91506125a783612499565b9250826125b7576125b66125f1565b5b828206905092915050565b7f4e487b7100000000000000000000000000000000000000000000000000000000600052601160045260246000fd5b7f4e487b7100000000000000000000000000000000000000000000000000000000600052601260045260246000fd5b7f4e487b7100000000000000000000000000000000000000000000000000000000600052602260045260246000fd5b7f4e487b7100000000000000000000000000000000000000000000000000000000600052603260045260246000fd5b7f4e487b7100000000000000000000000000000000000000000000000000000000600052604160045260246000fd5b600080fd5b600080fd5b600080fd5b600080fd5b6000601f19601f8301169050919050565b7f6f6e6c7920506f6f6c0000000000000000000000000000000000000000000000600082015250565b7f4552433732313a207472616e7366657220746f206e6f6e20455243373231526560008201527f63656976657220696d706c656d656e7465720000000000000000000000000000602082015250565b7f4552433732313a207472616e736665722066726f6d20696e636f72726563742060008201527f6f776e6572000000000000000000000000000000000000000000000000000000602082015250565b7f4552433732313a20746f6b656e20616c7265616479206d696e74656400000000600082015250565b7f4552433732313a207472616e7366657220746f20746865207a65726f2061646460008201527f7265737300000000000000000000000000000000000000000000000000000000602082015250565b7f4552433732313a20617070726f766520746f2063616c6c657200000000000000600082015250565b7f4552433732313a206f70657261746f7220717565727920666f72206e6f6e657860008201527f697374656e7420746f6b656e0000000000000000000000000000000000000000602082015250565b7f4552433732313a20617070726f76652063616c6c6572206973206e6f74206f7760008201527f6e6572206e6f7220617070726f76656420666f7220616c6c0000000000000000602082015250565b7f4552433732313a2062616c616e636520717565727920666f7220746865207a6560008201527f726f206164647265737300000000000000000000000000000000000000000000602082015250565b7f4552433732313a206f776e657220717565727920666f72206e6f6e657869737460008201527f656e7420746f6b656e0000000000000000000000000000000000000000000000602082015250565b7f4552433732313a206d696e7420746f20746865207a65726f2061646472657373600082015250565b7f4552433732313a20617070726f76656420717565727920666f72206e6f6e657860008201527f697374656e7420746f6b656e0000000000000000000000000000000000000000602082015250565b7f4552433732314d657461646174613a2055524920717565727920666f72206e6f60008201527f6e6578697374656e7420746f6b656e0000000000000000000000000000000000602082015250565b7f546865204e4654206973206e6f7420796f757273000000000000000000000000600082015250565b7f4552433732313a20617070726f76616c20746f2063757272656e74206f776e6560008201527f7200000000000000000000000000000000000000000000000000000000000000602082015250565b7f4552433732313a207472616e736665722063616c6c6572206973206e6f74206f60008201527f776e6572206e6f7220617070726f766564000000000000000000000000000000602082015250565b612b0d8161242f565b8114612b1857600080fd5b50565b612b2481612441565b8114612b2f57600080fd5b50565b612b3b8161244d565b8114612b4657600080fd5b50565b612b5281612499565b8114612b5d57600080fd5b5056fea2646970667358221220a4d958d8f66a5c32c68854add0d6e477a8a7e5f8febbfeec476f1cdbfdbc90ff64736f6c63430008060033",
  "linkReferences": {},
  "deployedLinkReferences": {}
}