{
  "_format": "hh-sol-artifact-1",
  "contractName": "AMOManager",
  "sourceName": "contracts/AMOs/AMOManager.sol",
  "abi": [
    {
      "inputs": [
        {
          "internalType": "address",
          "name": "_pool_address",
          "type": "address"
        },
        {
          "internalType": "address",
          "name": "_insurance_vault_address",
          "type": "address"
        },
        {
          "internalType": "address",
          "name": "_buyback_vault_address",
          "type": "address"
        },
        {
          "internalType": "address",
          "name": "_asset_manager_address",
          "type": "address"
        },
        {
          "internalType": "address",
          "name": "_oracle_address",
          "type": "address"
        }
      ],
      "stateMutability": "nonpayable",
      "type": "constructor"
    },
    {
      "anonymous": false,
      "inputs": [
        {
          "indexed": true,
          "internalType": "address",
          "name": "previousOwner",
          "type": "address"
        },
        {
          "indexed": true,
          "internalType": "address",
          "name": "newOwner",
          "type": "address"
        }
      ],
      "name": "OwnershipTransferred",
      "type": "event"
    },
    {
      "anonymous": false,
      "inputs": [
        {
          "indexed": false,
          "internalType": "uint256",
          "name": "Amount",
          "type": "uint256"
        },
        {
          "indexed": false,
          "internalType": "address",
          "name": "From",
          "type": "address"
        },
        {
          "indexed": false,
          "internalType": "address",
          "name": "Token",
          "type": "address"
        }
      ],
      "name": "TransferIn",
      "type": "event"
    },
    {
      "anonymous": false,
      "inputs": [
        {
          "indexed": false,
          "internalType": "uint256",
          "name": "Amount",
          "type": "uint256"
        },
        {
          "indexed": false,
          "internalType": "address",
          "name": "To",
          "type": "address"
        },
        {
          "indexed": false,
          "internalType": "address",
          "name": "Token",
          "type": "address"
        }
      ],
      "name": "TransferOut",
      "type": "event"
    },
    {
      "inputs": [
        {
          "internalType": "address",
          "name": "asset_address",
          "type": "address"
        },
        {
          "internalType": "address",
          "name": "amo_address",
          "type": "address"
        }
      ],
      "name": "AMOAssetBalance",
      "outputs": [
        {
          "internalType": "uint256",
          "name": "",
          "type": "uint256"
        }
      ],
      "stateMutability": "view",
      "type": "function"
    },
    {
      "inputs": [
        {
          "internalType": "address",
          "name": "asset_address",
          "type": "address"
        },
        {
          "internalType": "address",
          "name": "amo_address",
          "type": "address"
        }
      ],
      "name": "AMOAssetDollarBalance",
      "outputs": [
        {
          "internalType": "uint256",
          "name": "",
          "type": "uint256"
        }
      ],
      "stateMutability": "view",
      "type": "function"
    },
    {
      "inputs": [
        {
          "internalType": "address",
          "name": "amo_address",
          "type": "address"
        }
      ],
      "name": "AMOAvailableAssets",
      "outputs": [
        {
          "internalType": "address[]",
          "name": "",
          "type": "address[]"
        }
      ],
      "stateMutability": "view",
      "type": "function"
    },
    {
      "inputs": [
        {
          "internalType": "address",
          "name": "amo_address",
          "type": "address"
        }
      ],
      "name": "AMODollarBalance",
      "outputs": [
        {
          "internalType": "uint256",
          "name": "",
          "type": "uint256"
        }
      ],
      "stateMutability": "view",
      "type": "function"
    },
    {
      "inputs": [
        {
          "internalType": "address",
          "name": "amo_address",
          "type": "address"
        }
      ],
      "name": "AddAMO",
      "outputs": [],
      "stateMutability": "nonpayable",
      "type": "function"
    },
    {
      "inputs": [],
      "name": "CollectProfitFromAllAMO",
      "outputs": [],
      "stateMutability": "nonpayable",
      "type": "function"
    },
    {
      "inputs": [
        {
          "internalType": "address",
          "name": "asset_address",
          "type": "address"
        },
        {
          "internalType": "address",
          "name": "amo_address",
          "type": "address"
        },
        {
          "internalType": "uint256",
          "name": "asset_amount",
          "type": "uint256"
        }
      ],
      "name": "GiveAssetToAMO",
      "outputs": [],
      "stateMutability": "nonpayable",
      "type": "function"
    },
    {
      "inputs": [],
      "name": "PRICE_PRECISION",
      "outputs": [
        {
          "internalType": "uint256",
          "name": "",
          "type": "uint256"
        }
      ],
      "stateMutability": "view",
      "type": "function"
    },
    {
      "inputs": [
        {
          "internalType": "address",
          "name": "amo_address",
          "type": "address"
        }
      ],
      "name": "RemoveAMO",
      "outputs": [],
      "stateMutability": "nonpayable",
      "type": "function"
    },
    {
      "inputs": [
        {
          "internalType": "address",
          "name": "asset_address",
          "type": "address"
        },
        {
          "internalType": "uint256",
          "name": "asset_amount",
          "type": "uint256"
        }
      ],
      "name": "WithdrawAssetFromAMO",
      "outputs": [],
      "stateMutability": "nonpayable",
      "type": "function"
    },
    {
      "inputs": [
        {
          "internalType": "uint256",
          "name": "",
          "type": "uint256"
        }
      ],
      "name": "amo_array",
      "outputs": [
        {
          "internalType": "address",
          "name": "",
          "type": "address"
        }
      ],
      "stateMutability": "view",
      "type": "function"
    },
    {
      "inputs": [
        {
          "internalType": "address",
          "name": "",
          "type": "address"
        }
      ],
      "name": "amos",
      "outputs": [
        {
          "internalType": "bool",
          "name": "",
          "type": "bool"
        }
      ],
      "stateMutability": "view",
      "type": "function"
    },
    {
      "inputs": [
        {
          "internalType": "address",
          "name": "",
          "type": "address"
        },
        {
          "internalType": "uint256",
          "name": "",
          "type": "uint256"
        }
      ],
      "name": "asset_available_amo_array",
      "outputs": [
        {
          "internalType": "address",
          "name": "amo_address",
          "type": "address"
        },
        {
          "internalType": "uint256",
          "name": "vote_number",
          "type": "uint256"
        }
      ],
      "stateMutability": "view",
      "type": "function"
    },
    {
      "inputs": [],
      "name": "asset_manager_address",
      "outputs": [
        {
          "internalType": "address",
          "name": "",
          "type": "address"
        }
      ],
      "stateMutability": "view",
      "type": "function"
    },
    {
      "inputs": [],
      "name": "buyback_vault_address",
      "outputs": [
        {
          "internalType": "address",
          "name": "",
          "type": "address"
        }
      ],
      "stateMutability": "view",
      "type": "function"
    },
    {
      "inputs": [],
      "name": "insurance_vault_address",
      "outputs": [
        {
          "internalType": "address",
          "name": "",
          "type": "address"
        }
      ],
      "stateMutability": "view",
      "type": "function"
    },
    {
      "inputs": [],
      "name": "last_mint_timestamp",
      "outputs": [
        {
          "internalType": "uint256",
          "name": "",
          "type": "uint256"
        }
      ],
      "stateMutability": "view",
      "type": "function"
    },
    {
      "inputs": [],
      "name": "mint_interval",
      "outputs": [
        {
          "internalType": "uint256",
          "name": "",
          "type": "uint256"
        }
      ],
      "stateMutability": "view",
      "type": "function"
    },
    {
      "inputs": [],
      "name": "oracle_address",
      "outputs": [
        {
          "internalType": "address",
          "name": "",
          "type": "address"
        }
      ],
      "stateMutability": "view",
      "type": "function"
    },
    {
      "inputs": [],
      "name": "owner",
      "outputs": [
        {
          "internalType": "address",
          "name": "",
          "type": "address"
        }
      ],
      "stateMutability": "view",
      "type": "function"
    },
    {
      "inputs": [],
      "name": "pool_address",
      "outputs": [
        {
          "internalType": "address",
          "name": "",
          "type": "address"
        }
      ],
      "stateMutability": "view",
      "type": "function"
    },
    {
      "inputs": [],
      "name": "ratio_to_buyback",
      "outputs": [
        {
          "internalType": "uint256",
          "name": "",
          "type": "uint256"
        }
      ],
      "stateMutability": "view",
      "type": "function"
    },
    {
      "inputs": [],
      "name": "ratio_to_insurance",
      "outputs": [
        {
          "internalType": "uint256",
          "name": "",
          "type": "uint256"
        }
      ],
      "stateMutability": "view",
      "type": "function"
    },
    {
      "inputs": [],
      "name": "renounceOwnership",
      "outputs": [],
      "stateMutability": "nonpayable",
      "type": "function"
    },
    {
      "inputs": [
        {
          "internalType": "uint256",
          "name": "new_ratio_to_buyback",
          "type": "uint256"
        },
        {
          "internalType": "uint256",
          "name": "new_ratio_to_insurance",
          "type": "uint256"
        }
      ],
      "name": "setAssetDistributionRatio",
      "outputs": [],
      "stateMutability": "nonpayable",
      "type": "function"
    },
    {
      "inputs": [
        {
          "internalType": "address",
          "name": "new_asset_manager",
          "type": "address"
        }
      ],
      "name": "setAssetManagerAddress",
      "outputs": [],
      "stateMutability": "nonpayable",
      "type": "function"
    },
    {
      "inputs": [
        {
          "internalType": "address",
          "name": "new_buyback_vault",
          "type": "address"
        }
      ],
      "name": "setBuybackVaultAddress",
      "outputs": [],
      "stateMutability": "nonpayable",
      "type": "function"
    },
    {
      "inputs": [
        {
          "internalType": "address",
          "name": "new_insurance_vault",
          "type": "address"
        }
      ],
      "name": "setInsuranceVaultAddress",
      "outputs": [],
      "stateMutability": "nonpayable",
      "type": "function"
    },
    {
      "inputs": [
        {
          "internalType": "address",
          "name": "new_oracle",
          "type": "address"
        }
      ],
      "name": "setOracleAddress",
      "outputs": [],
      "stateMutability": "nonpayable",
      "type": "function"
    },
    {
      "inputs": [
        {
          "internalType": "address",
          "name": "new_pool",
          "type": "address"
        }
      ],
      "name": "setPoolAddress",
      "outputs": [],
      "stateMutability": "nonpayable",
      "type": "function"
    },
    {
      "inputs": [
        {
          "internalType": "address",
          "name": "newOwner",
          "type": "address"
        }
      ],
      "name": "transferOwnership",
      "outputs": [],
      "stateMutability": "nonpayable",
      "type": "function"
    }
  ],
  "bytecode": "0x60806040523480156200001157600080fd5b5060405162003dd738038062003dd78339818101604052810190620000379190620003c8565b620000576200004b620002e560201b60201c565b620002ed60201b60201c565b600073ffffffffffffffffffffffffffffffffffffffff168573ffffffffffffffffffffffffffffffffffffffff1614158015620000c25750600073ffffffffffffffffffffffffffffffffffffffff168473ffffffffffffffffffffffffffffffffffffffff1614155b8015620000fc5750600073ffffffffffffffffffffffffffffffffffffffff168373ffffffffffffffffffffffffffffffffffffffff1614155b8015620001705750600073ffffffffffffffffffffffffffffffffffffffff168273ffffffffffffffffffffffffffffffffffffffff16141580156200016f5750600073ffffffffffffffffffffffffffffffffffffffff168173ffffffffffffffffffffffffffffffffffffffff1614155b5b620001b2576040517f08c379a0000000000000000000000000000000000000000000000000000000008152600401620001a99062000477565b60405180910390fd5b84600460006101000a81548173ffffffffffffffffffffffffffffffffffffffff021916908373ffffffffffffffffffffffffffffffffffffffff16021790555083600560006101000a81548173ffffffffffffffffffffffffffffffffffffffff021916908373ffffffffffffffffffffffffffffffffffffffff16021790555082600660006101000a81548173ffffffffffffffffffffffffffffffffffffffff021916908373ffffffffffffffffffffffffffffffffffffffff16021790555081600760006101000a81548173ffffffffffffffffffffffffffffffffffffffff021916908373ffffffffffffffffffffffffffffffffffffffff160217905550600060098190555062013880600a81905550614e20600b81905550617530600c81905550505050505062000526565b600033905090565b60008060009054906101000a900473ffffffffffffffffffffffffffffffffffffffff169050816000806101000a81548173ffffffffffffffffffffffffffffffffffffffff021916908373ffffffffffffffffffffffffffffffffffffffff1602179055508173ffffffffffffffffffffffffffffffffffffffff168173ffffffffffffffffffffffffffffffffffffffff167f8be0079c531659141344cd1fd0a4f28419497f9722a3daafe3b4186f6b6457e060405160405180910390a35050565b600081519050620003c2816200050c565b92915050565b600080600080600060a08688031215620003e757620003e6620004de565b5b6000620003f788828901620003b1565b95505060206200040a88828901620003b1565b94505060406200041d88828901620003b1565b93505060606200043088828901620003b1565b92505060806200044388828901620003b1565b9150509295509295909350565b60006200045f60158362000499565b91506200046c82620004e3565b602082019050919050565b60006020820190508181036000830152620004928162000450565b9050919050565b600082825260208201905092915050565b6000620004b782620004be565b9050919050565b600073ffffffffffffffffffffffffffffffffffffffff82169050919050565b600080fd5b7f5a65726f20616464726573732064657465637465640000000000000000000000600082015250565b6200051781620004aa565b81146200052357600080fd5b50565b6138a180620005366000396000f3fe608060405234801561001057600080fd5b50600436106101e55760003560e01c80637e0c17921161010f578063bda767ab116100a2578063d5989a1711610071578063d5989a1714610549578063e3bf44b914610579578063e9e15b4f14610595578063f2fde38b146105b1576101e5565b8063bda767ab1461049a578063c4d8d22e146104ca578063d2cdaf38146104fb578063d2f8f99414610519576101e5565b8063a79db852116100de578063a79db85214610426578063abc4f3a214610444578063ac54b6af14610460578063b8d498871461047c576101e5565b80637e0c1792146103ae5780638da5cb5b146103cc57806395082d25146103ea5780639fef071014610408576101e5565b80634755abbb116101875780635f8898a9116101565780635f8898a914610350578063655562361461036c578063715018a614610388578063797fc29314610392576101e5565b80634755abbb146102f057806347b9e15d1461030e5780634b118c4c1461032a5780634c69c00f14610334576101e5565b806323f3cb70116101c357806323f3cb701461025657806329234e3d146102745780632d79a6a4146102a4578063317a469b146102c0576101e5565b8063190d7da3146101ea5780631aba56501461020857806321a76b1d14610226575b600080fd5b6101f26105cd565b6040516101ff9190613100565b60405180910390f35b6102106105f3565b60405161021d91906132c1565b60405180910390f35b610240600480360381019061023b9190612e56565b6105f9565b60405161024d9190613100565b60405180910390f35b61025e610638565b60405161026b91906132c1565b60405180910390f35b61028e60048036038101906102899190612d0d565b61063e565b60405161029b91906132c1565b60405180910390f35b6102be60048036038101906102b99190612ce0565b61075f565b005b6102da60048036038101906102d59190612ce0565b61088f565b6040516102e791906132c1565b60405180910390f35b6102f8610bd8565b6040516103059190613100565b60405180910390f35b61032860048036038101906103239190612ce0565b610bfe565b005b610332610e53565b005b61034e60048036038101906103499190612ce0565b610f62565b005b61036a60048036038101906103659190612eb0565b611092565b005b61038660048036038101906103819190612d4d565b611170565b005b610390611479565b005b6103ac60048036038101906103a79190612ce0565b611501565b005b6103b6611740565b6040516103c39190613100565b60405180910390f35b6103d4611766565b6040516103e19190613100565b60405180910390f35b6103f261178f565b6040516103ff91906132c1565b60405180910390f35b610410611796565b60405161041d9190613100565b60405180910390f35b61042e6117bc565b60405161043b91906132c1565b60405180910390f35b61045e60048036038101906104599190612ce0565b6117c2565b005b61047a60048036038101906104759190612da0565b6118f2565b005b610484611ce4565b6040516104919190613100565b60405180910390f35b6104b460048036038101906104af9190612ce0565b611d0a565b6040516104c19190613166565b60405180910390f35b6104e460048036038101906104df9190612da0565b611d2a565b6040516104f292919061311b565b60405180910390f35b610503611d8b565b60405161051091906132c1565b60405180910390f35b610533600480360381019061052e9190612ce0565b611d91565b6040516105409190613144565b60405180910390f35b610563600480360381019061055e9190612d0d565b611eab565b60405161057091906132c1565b60405180910390f35b610593600480360381019061058e9190612ce0565b61218e565b005b6105af60048036038101906105aa9190612ce0565b6122be565b005b6105cb60048036038101906105c69190612ce0565b6123ee565b005b600760009054906101000a900473ffffffffffffffffffffffffffffffffffffffff1681565b600c5481565b6001818154811061060957600080fd5b906000526020600020016000915054906101000a900473ffffffffffffffffffffffffffffffffffffffff1681565b600a5481565b600081600260008273ffffffffffffffffffffffffffffffffffffffff1673ffffffffffffffffffffffffffffffffffffffff16815260200190815260200160002060009054906101000a900460ff166106cd576040517f08c379a00000000000000000000000000000000000000000000000000000000081526004016106c4906131e1565b60405180910390fd5b8273ffffffffffffffffffffffffffffffffffffffff1663da90aeef856040518263ffffffff1660e01b81526004016107069190613100565b60206040518083038186803b15801561071e57600080fd5b505afa158015610732573d6000803e3d6000fd5b505050506040513d601f19601f820116820180604052508101906107569190612e83565b91505092915050565b6107676124e6565b73ffffffffffffffffffffffffffffffffffffffff16610785611766565b73ffffffffffffffffffffffffffffffffffffffff16146107db576040517f08c379a00000000000000000000000000000000000000000000000000000000081526004016107d290613221565b60405180910390fd5b600073ffffffffffffffffffffffffffffffffffffffff168173ffffffffffffffffffffffffffffffffffffffff16141561084b576040517f08c379a0000000000000000000000000000000000000000000000000000000008152600401610842906131a1565b60405180910390fd5b80600560006101000a81548173ffffffffffffffffffffffffffffffffffffffff021916908373ffffffffffffffffffffffffffffffffffffffff16021790555050565b600081600260008273ffffffffffffffffffffffffffffffffffffffff1673ffffffffffffffffffffffffffffffffffffffff16815260200190815260200160002060009054906101000a900460ff1661091e576040517f08c379a0000000000000000000000000000000000000000000000000000000008152600401610915906131e1565b60405180910390fd5b60008390506000805b8273ffffffffffffffffffffffffffffffffffffffff1663a8cddc6f6040518163ffffffff1660e01b815260040160006040518083038186803b15801561096d57600080fd5b505afa158015610981573d6000803e3d6000fd5b505050506040513d6000823e3d601f19601f820116820180604052508101906109aa9190612de0565b51811015610bcc5760008373ffffffffffffffffffffffffffffffffffffffff1663a8cddc6f6040518163ffffffff1660e01b815260040160006040518083038186803b1580156109fa57600080fd5b505afa158015610a0e573d6000803e3d6000fd5b505050506040513d6000823e3d601f19601f82011682018060405250810190610a379190612de0565b8281518110610a4957610a486135e3565b5b6020026020010151905060008773ffffffffffffffffffffffffffffffffffffffff1663da90aeef836040518263ffffffff1660e01b8152600401610a8e9190613100565b60206040518083038186803b158015610aa657600080fd5b505afa158015610aba573d6000803e3d6000fd5b505050506040513d601f19601f82011682018060405250810190610ade9190612e83565b90506000600860009054906101000a900473ffffffffffffffffffffffffffffffffffffffff1673ffffffffffffffffffffffffffffffffffffffff166341976e09846040518263ffffffff1660e01b8152600401610b3d9190613100565b60206040518083038186803b158015610b5557600080fd5b505afa158015610b69573d6000803e3d6000fd5b505050506040513d601f19601f82011682018060405250810190610b8d9190612e83565b9050620f42408183610b9f9190613435565b610ba99190613404565b85610bb491906133ae565b94505050508080610bc49061353c565b915050610927565b50809350505050919050565b600460009054906101000a900473ffffffffffffffffffffffffffffffffffffffff1681565b610c066124e6565b73ffffffffffffffffffffffffffffffffffffffff16610c24611766565b73ffffffffffffffffffffffffffffffffffffffff1614610c7a576040517f08c379a0000000000000000000000000000000000000000000000000000000008152600401610c7190613221565b60405180910390fd5b80600260008273ffffffffffffffffffffffffffffffffffffffff1673ffffffffffffffffffffffffffffffffffffffff16815260200190815260200160002060009054906101000a900460ff16610d07576040517f08c379a0000000000000000000000000000000000000000000000000000000008152600401610cfe906131e1565b60405180910390fd5b60005b600180549050811015610dff578273ffffffffffffffffffffffffffffffffffffffff1660018281548110610d4257610d416135e3565b5b9060005260206000200160009054906101000a900473ffffffffffffffffffffffffffffffffffffffff1673ffffffffffffffffffffffffffffffffffffffff161415610dec57600060018281548110610d9f57610d9e6135e3565b5b9060005260206000200160006101000a81548173ffffffffffffffffffffffffffffffffffffffff021916908373ffffffffffffffffffffffffffffffffffffffff160217905550610dff565b8080610df79061353c565b915050610d0a565b50600260008373ffffffffffffffffffffffffffffffffffffffff1673ffffffffffffffffffffffffffffffffffffffff16815260200190815260200160002060006101000a81549060ff02191690555050565b6009544210158015610e745750600a5460095442610e71919061348f565b10155b610eb3576040517f08c379a0000000000000000000000000000000000000000000000000000000008152600401610eaa90613261565b60405180910390fd5b4260098190555060005b600180549050811015610f5f57600060018281548110610ee057610edf6135e3565b5b9060005260206000200160009054906101000a900473ffffffffffffffffffffffffffffffffffffffff1690508073ffffffffffffffffffffffffffffffffffffffff16600073ffffffffffffffffffffffffffffffffffffffff1614610f4b57610f4a816124ee565b5b508080610f579061353c565b915050610ebd565b50565b610f6a6124e6565b73ffffffffffffffffffffffffffffffffffffffff16610f88611766565b73ffffffffffffffffffffffffffffffffffffffff1614610fde576040517f08c379a0000000000000000000000000000000000000000000000000000000008152600401610fd590613221565b60405180910390fd5b600073ffffffffffffffffffffffffffffffffffffffff168173ffffffffffffffffffffffffffffffffffffffff16141561104e576040517f08c379a0000000000000000000000000000000000000000000000000000000008152600401611045906131a1565b60405180910390fd5b80600860006101000a81548173ffffffffffffffffffffffffffffffffffffffff021916908373ffffffffffffffffffffffffffffffffffffffff16021790555050565b61109a6124e6565b73ffffffffffffffffffffffffffffffffffffffff166110b8611766565b73ffffffffffffffffffffffffffffffffffffffff161461110e576040517f08c379a000000000000000000000000000000000000000000000000000000000815260040161110590613221565b60405180910390fd5b620f4240818361111e91906133ae565b1061115e576040517f08c379a0000000000000000000000000000000000000000000000000000000008152600401611155906132a1565b60405180910390fd5b81600b8190555080600c819055505050565b6111786124e6565b73ffffffffffffffffffffffffffffffffffffffff16611196611766565b73ffffffffffffffffffffffffffffffffffffffff16146111ec576040517f08c379a00000000000000000000000000000000000000000000000000000000081526004016111e390613221565b60405180910390fd5b8260011515600760009054906101000a900473ffffffffffffffffffffffffffffffffffffffff1673ffffffffffffffffffffffffffffffffffffffff1663d44da15f836040518263ffffffff1660e01b815260040161124c9190613100565b60206040518083038186803b15801561126457600080fd5b505afa158015611278573d6000803e3d6000fd5b505050506040513d601f19601f8201168201806040525081019061129c9190612e29565b1515146112de576040517f08c379a00000000000000000000000000000000000000000000000000000000081526004016112d590613281565b60405180910390fd5b82600260008273ffffffffffffffffffffffffffffffffffffffff1673ffffffffffffffffffffffffffffffffffffffff16815260200190815260200160002060009054906101000a900460ff1661136b576040517f08c379a0000000000000000000000000000000000000000000000000000000008152600401611362906131e1565b60405180910390fd5b600460009054906101000a900473ffffffffffffffffffffffffffffffffffffffff1673ffffffffffffffffffffffffffffffffffffffff1663a8a8bbcd86856040518363ffffffff1660e01b81526004016113c892919061311b565b600060405180830381600087803b1580156113e257600080fd5b505af11580156113f6573d6000803e3d6000fd5b5050505061140585858561294f565b8373ffffffffffffffffffffffffffffffffffffffff1663b380adfc86856040518363ffffffff1660e01b815260040161144092919061311b565b600060405180830381600087803b15801561145a57600080fd5b505af115801561146e573d6000803e3d6000fd5b505050505050505050565b6114816124e6565b73ffffffffffffffffffffffffffffffffffffffff1661149f611766565b73ffffffffffffffffffffffffffffffffffffffff16146114f5576040517f08c379a00000000000000000000000000000000000000000000000000000000081526004016114ec90613221565b60405180910390fd5b6114ff6000612a82565b565b6115096124e6565b73ffffffffffffffffffffffffffffffffffffffff16611527611766565b73ffffffffffffffffffffffffffffffffffffffff161461157d576040517f08c379a000000000000000000000000000000000000000000000000000000000815260040161157490613221565b60405180910390fd5b80600073ffffffffffffffffffffffffffffffffffffffff168173ffffffffffffffffffffffffffffffffffffffff1614156115ee576040517f08c379a00000000000000000000000000000000000000000000000000000000081526004016115e5906131a1565b60405180910390fd5b60001515600260008373ffffffffffffffffffffffffffffffffffffffff1673ffffffffffffffffffffffffffffffffffffffff16815260200190815260200160002060009054906101000a900460ff16151514611681576040517f08c379a000000000000000000000000000000000000000000000000000000000815260040161167890613241565b60405180910390fd5b6001829080600181540180825580915050600190039060005260206000200160009091909190916101000a81548173ffffffffffffffffffffffffffffffffffffffff021916908373ffffffffffffffffffffffffffffffffffffffff1602179055506001600260008473ffffffffffffffffffffffffffffffffffffffff1673ffffffffffffffffffffffffffffffffffffffff16815260200190815260200160002060006101000a81548160ff0219169083151502179055505050565b600860009054906101000a900473ffffffffffffffffffffffffffffffffffffffff1681565b60008060009054906101000a900473ffffffffffffffffffffffffffffffffffffffff16905090565b620f424081565b600560009054906101000a900473ffffffffffffffffffffffffffffffffffffffff1681565b600b5481565b6117ca6124e6565b73ffffffffffffffffffffffffffffffffffffffff166117e8611766565b73ffffffffffffffffffffffffffffffffffffffff161461183e576040517f08c379a000000000000000000000000000000000000000000000000000000000815260040161183590613221565b60405180910390fd5b600073ffffffffffffffffffffffffffffffffffffffff168173ffffffffffffffffffffffffffffffffffffffff1614156118ae576040517f08c379a00000000000000000000000000000000000000000000000000000000081526004016118a5906131a1565b60405180910390fd5b80600660006101000a81548173ffffffffffffffffffffffffffffffffffffffff021916908373ffffffffffffffffffffffffffffffffffffffff16021790555050565b600460009054906101000a900473ffffffffffffffffffffffffffffffffffffffff1673ffffffffffffffffffffffffffffffffffffffff163373ffffffffffffffffffffffffffffffffffffffff1614611982576040517f08c379a000000000000000000000000000000000000000000000000000000000815260040161197990613201565b60405180910390fd5b8160011515600760009054906101000a900473ffffffffffffffffffffffffffffffffffffffff1673ffffffffffffffffffffffffffffffffffffffff1663d44da15f836040518263ffffffff1660e01b81526004016119e29190613100565b60206040518083038186803b1580156119fa57600080fd5b505afa158015611a0e573d6000803e3d6000fd5b505050506040513d601f19601f82011682018060405250810190611a329190612e29565b151514611a74576040517f08c379a0000000000000000000000000000000000000000000000000000000008152600401611a6b90613281565b60405180910390fd5b600082905060005b600180549050811015611ca357600060018281548110611a9f57611a9e6135e3565b5b9060005260206000200160009054906101000a900473ffffffffffffffffffffffffffffffffffffffff1690508073ffffffffffffffffffffffffffffffffffffffff16600073ffffffffffffffffffffffffffffffffffffffff1614611c8f5760008173ffffffffffffffffffffffffffffffffffffffff1663da90aeef886040518263ffffffff1660e01b8152600401611b3b9190613100565b60206040518083038186803b158015611b5357600080fd5b505afa158015611b67573d6000803e3d6000fd5b505050506040513d601f19601f82011682018060405250810190611b8b9190612e83565b905083811015611c15578173ffffffffffffffffffffffffffffffffffffffff1663204ca91388836040518363ffffffff1660e01b8152600401611bd092919061311b565b600060405180830381600087803b158015611bea57600080fd5b505af1158015611bfe573d6000803e3d6000fd5b505050508084611c0e919061348f565b9350611c8d565b8173ffffffffffffffffffffffffffffffffffffffff1663204ca91388866040518363ffffffff1660e01b8152600401611c5092919061311b565b600060405180830381600087803b158015611c6a57600080fd5b505af1158015611c7e573d6000803e3d6000fd5b50505050600093505050611ca3565b505b508080611c9b9061353c565b915050611a7c565b5060008114611cb157600080fd5b611cde84600460009054906101000a900473ffffffffffffffffffffffffffffffffffffffff168561294f565b50505050565b600660009054906101000a900473ffffffffffffffffffffffffffffffffffffffff1681565b60026020528060005260406000206000915054906101000a900460ff1681565b600d6020528160005260406000208181548110611d4657600080fd5b9060005260206000209060020201600091509150508060000160009054906101000a900473ffffffffffffffffffffffffffffffffffffffff16908060010154905082565b60095481565b606081600260008273ffffffffffffffffffffffffffffffffffffffff1673ffffffffffffffffffffffffffffffffffffffff16815260200190815260200160002060009054906101000a900460ff16611e20576040517f08c379a0000000000000000000000000000000000000000000000000000000008152600401611e17906131e1565b60405180910390fd5b8273ffffffffffffffffffffffffffffffffffffffff1663a8cddc6f6040518163ffffffff1660e01b815260040160006040518083038186803b158015611e6657600080fd5b505afa158015611e7a573d6000803e3d6000fd5b505050506040513d6000823e3d601f19601f82011682018060405250810190611ea39190612de0565b915050919050565b60008260011515600760009054906101000a900473ffffffffffffffffffffffffffffffffffffffff1673ffffffffffffffffffffffffffffffffffffffff1663d44da15f836040518263ffffffff1660e01b8152600401611f0d9190613100565b60206040518083038186803b158015611f2557600080fd5b505afa158015611f39573d6000803e3d6000fd5b505050506040513d601f19601f82011682018060405250810190611f5d9190612e29565b151514611f9f576040517f08c379a0000000000000000000000000000000000000000000000000000000008152600401611f9690613281565b60405180910390fd5b82600260008273ffffffffffffffffffffffffffffffffffffffff1673ffffffffffffffffffffffffffffffffffffffff16815260200190815260200160002060009054906101000a900460ff1661202c576040517f08c379a0000000000000000000000000000000000000000000000000000000008152600401612023906131e1565b60405180910390fd5b60008473ffffffffffffffffffffffffffffffffffffffff1663da90aeef876040518263ffffffff1660e01b81526004016120679190613100565b60206040518083038186803b15801561207f57600080fd5b505afa158015612093573d6000803e3d6000fd5b505050506040513d601f19601f820116820180604052508101906120b79190612e83565b90506000600860009054906101000a900473ffffffffffffffffffffffffffffffffffffffff1673ffffffffffffffffffffffffffffffffffffffff166341976e09886040518263ffffffff1660e01b81526004016121169190613100565b60206040518083038186803b15801561212e57600080fd5b505afa158015612142573d6000803e3d6000fd5b505050506040513d601f19601f820116820180604052508101906121669190612e83565b9050620f424081836121789190613435565b6121829190613404565b94505050505092915050565b6121966124e6565b73ffffffffffffffffffffffffffffffffffffffff166121b4611766565b73ffffffffffffffffffffffffffffffffffffffff161461220a576040517f08c379a000000000000000000000000000000000000000000000000000000000815260040161220190613221565b60405180910390fd5b600073ffffffffffffffffffffffffffffffffffffffff168173ffffffffffffffffffffffffffffffffffffffff16141561227a576040517f08c379a0000000000000000000000000000000000000000000000000000000008152600401612271906131a1565b60405180910390fd5b80600760006101000a81548173ffffffffffffffffffffffffffffffffffffffff021916908373ffffffffffffffffffffffffffffffffffffffff16021790555050565b6122c66124e6565b73ffffffffffffffffffffffffffffffffffffffff166122e4611766565b73ffffffffffffffffffffffffffffffffffffffff161461233a576040517f08c379a000000000000000000000000000000000000000000000000000000000815260040161233190613221565b60405180910390fd5b600073ffffffffffffffffffffffffffffffffffffffff168173ffffffffffffffffffffffffffffffffffffffff1614156123aa576040517f08c379a00000000000000000000000000000000000000000000000000000000081526004016123a1906131a1565b60405180910390fd5b80600460006101000a81548173ffffffffffffffffffffffffffffffffffffffff021916908373ffffffffffffffffffffffffffffffffffffffff16021790555050565b6123f66124e6565b73ffffffffffffffffffffffffffffffffffffffff16612414611766565b73ffffffffffffffffffffffffffffffffffffffff161461246a576040517f08c379a000000000000000000000000000000000000000000000000000000000815260040161246190613221565b60405180910390fd5b600073ffffffffffffffffffffffffffffffffffffffff168173ffffffffffffffffffffffffffffffffffffffff1614156124da576040517f08c379a00000000000000000000000000000000000000000000000000000000081526004016124d190613181565b60405180910390fd5b6124e381612a82565b50565b600033905090565b80600260008273ffffffffffffffffffffffffffffffffffffffff1673ffffffffffffffffffffffffffffffffffffffff16815260200190815260200160002060009054906101000a900460ff1661257b576040517f08c379a0000000000000000000000000000000000000000000000000000000008152600401612572906131e1565b60405180910390fd5b600082905060005b8173ffffffffffffffffffffffffffffffffffffffff1663a8cddc6f6040518163ffffffff1660e01b815260040160006040518083038186803b1580156125c957600080fd5b505afa1580156125dd573d6000803e3d6000fd5b505050506040513d6000823e3d601f19601f820116820180604052508101906126069190612de0565b518110156128c75760008273ffffffffffffffffffffffffffffffffffffffff1663a8cddc6f6040518163ffffffff1660e01b815260040160006040518083038186803b15801561265657600080fd5b505afa15801561266a573d6000803e3d6000fd5b505050506040513d6000823e3d601f19601f820116820180604052508101906126939190612de0565b82815181106126a5576126a46135e3565b5b6020026020010151905060008373ffffffffffffffffffffffffffffffffffffffff16630ee43df1836040518263ffffffff1660e01b81526004016126ea9190613100565b602060405180830381600087803b15801561270457600080fd5b505af1158015612718573d6000803e3d6000fd5b505050506040513d601f19601f8201168201806040525081019061273c9190612e83565b90506000620f4240600b54836127529190613435565b61275c9190613404565b90506000620f4240600c54846127729190613435565b61277c9190613404565b90506127ab84600660009054906101000a900473ffffffffffffffffffffffffffffffffffffffff168461294f565b6127d884600560009054906101000a900473ffffffffffffffffffffffffffffffffffffffff168361294f565b60008183856127e7919061348f565b6127f1919061348f565b905061282085600460009054906101000a900473ffffffffffffffffffffffffffffffffffffffff168361294f565b600460009054906101000a900473ffffffffffffffffffffffffffffffffffffffff1673ffffffffffffffffffffffffffffffffffffffff166362ced98b86836040518363ffffffff1660e01b815260040161287d92919061311b565b600060405180830381600087803b15801561289757600080fd5b505af11580156128ab573d6000803e3d6000fd5b50505050505050505080806128bf9061353c565b915050612583565b50600560009054906101000a900473ffffffffffffffffffffffffffffffffffffffff1673ffffffffffffffffffffffffffffffffffffffff1663d62288de6040518163ffffffff1660e01b8152600401600060405180830381600087803b15801561293257600080fd5b505af1158015612946573d6000803e3d6000fd5b50505050505050565b600061295b8430612b46565b90507fe4d818e6f992efbd60db553f3edce819a199baec79a784b95c89bc8ee86f2584828486604051612990939291906132dc565b60405180910390a18373ffffffffffffffffffffffffffffffffffffffff1663a9059cbb84846040518363ffffffff1660e01b81526004016129d392919061311b565b602060405180830381600087803b1580156129ed57600080fd5b505af1158015612a01573d6000803e3d6000fd5b505050506040513d601f19601f82011682018060405250810190612a259190612e29565b508082612a328630612b46565b612a3c91906133ae565b14612a7c576040517f08c379a0000000000000000000000000000000000000000000000000000000008152600401612a73906131c1565b60405180910390fd5b50505050565b60008060009054906101000a900473ffffffffffffffffffffffffffffffffffffffff169050816000806101000a81548173ffffffffffffffffffffffffffffffffffffffff021916908373ffffffffffffffffffffffffffffffffffffffff1602179055508173ffffffffffffffffffffffffffffffffffffffff168173ffffffffffffffffffffffffffffffffffffffff167f8be0079c531659141344cd1fd0a4f28419497f9722a3daafe3b4186f6b6457e060405160405180910390a35050565b60008273ffffffffffffffffffffffffffffffffffffffff166370a08231836040518263ffffffff1660e01b8152600401612b819190613100565b60206040518083038186803b158015612b9957600080fd5b505afa158015612bad573d6000803e3d6000fd5b505050506040513d601f19601f82011682018060405250810190612bd19190612e83565b905092915050565b6000612bec612be784613338565b613313565b90508083825260208201905082856020860282011115612c0f57612c0e613646565b5b60005b85811015612c3f5781612c258882612c5e565b845260208401935060208301925050600181019050612c12565b5050509392505050565b600081359050612c5881613826565b92915050565b600081519050612c6d81613826565b92915050565b600082601f830112612c8857612c87613641565b5b8151612c98848260208601612bd9565b91505092915050565b600081519050612cb08161383d565b92915050565b600081359050612cc581613854565b92915050565b600081519050612cda81613854565b92915050565b600060208284031215612cf657612cf5613650565b5b6000612d0484828501612c49565b91505092915050565b60008060408385031215612d2457612d23613650565b5b6000612d3285828601612c49565b9250506020612d4385828601612c49565b9150509250929050565b600080600060608486031215612d6657612d65613650565b5b6000612d7486828701612c49565b9350506020612d8586828701612c49565b9250506040612d9686828701612cb6565b9150509250925092565b60008060408385031215612db757612db6613650565b5b6000612dc585828601612c49565b9250506020612dd685828601612cb6565b9150509250929050565b600060208284031215612df657612df5613650565b5b600082015167ffffffffffffffff811115612e1457612e1361364b565b5b612e2084828501612c73565b91505092915050565b600060208284031215612e3f57612e3e613650565b5b6000612e4d84828501612ca1565b91505092915050565b600060208284031215612e6c57612e6b613650565b5b6000612e7a84828501612cb6565b91505092915050565b600060208284031215612e9957612e98613650565b5b6000612ea784828501612ccb565b91505092915050565b60008060408385031215612ec757612ec6613650565b5b6000612ed585828601612cb6565b9250506020612ee685828601612cb6565b9150509250929050565b6000612efc8383612f08565b60208301905092915050565b612f11816134c3565b82525050565b612f20816134c3565b82525050565b6000612f3182613374565b612f3b818561338c565b9350612f4683613364565b8060005b83811015612f77578151612f5e8882612ef0565b9750612f698361337f565b925050600181019050612f4a565b5085935050505092915050565b612f8d816134d5565b82525050565b6000612fa060268361339d565b9150612fab82613666565b604082019050919050565b6000612fc360158361339d565b9150612fce826136b5565b602082019050919050565b6000612fe6601d8361339d565b9150612ff1826136de565b602082019050919050565b600061300960108361339d565b915061301482613707565b602082019050919050565b600061302c60148361339d565b915061303782613730565b602082019050919050565b600061304f60208361339d565b915061305a82613759565b602082019050919050565b600061307260168361339d565b915061307d82613782565b602082019050919050565b600061309560198361339d565b91506130a0826137ab565b602082019050919050565b60006130b860138361339d565b91506130c3826137d4565b602082019050919050565b60006130db60128361339d565b91506130e6826137fd565b602082019050919050565b6130fa81613501565b82525050565b60006020820190506131156000830184612f17565b92915050565b60006040820190506131306000830185612f17565b61313d60208301846130f1565b9392505050565b6000602082019050818103600083015261315e8184612f26565b905092915050565b600060208201905061317b6000830184612f84565b92915050565b6000602082019050818103600083015261319a81612f93565b9050919050565b600060208201905081810360008301526131ba81612fb6565b9050919050565b600060208201905081810360008301526131da81612fd9565b9050919050565b600060208201905081810360008301526131fa81612ffc565b9050919050565b6000602082019050818103600083015261321a8161301f565b9050919050565b6000602082019050818103600083015261323a81613042565b9050919050565b6000602082019050818103600083015261325a81613065565b9050919050565b6000602082019050818103600083015261327a81613088565b9050919050565b6000602082019050818103600083015261329a816130ab565b9050919050565b600060208201905081810360008301526132ba816130ce565b9050919050565b60006020820190506132d660008301846130f1565b92915050565b60006060820190506132f160008301866130f1565b6132fe6020830185612f17565b61330b6040830184612f17565b949350505050565b600061331d61332e565b9050613329828261350b565b919050565b6000604051905090565b600067ffffffffffffffff82111561335357613352613612565b5b602082029050602081019050919050565b6000819050602082019050919050565b600081519050919050565b6000602082019050919050565b600082825260208201905092915050565b600082825260208201905092915050565b60006133b982613501565b91506133c483613501565b9250827fffffffffffffffffffffffffffffffffffffffffffffffffffffffffffffffff038211156133f9576133f8613585565b5b828201905092915050565b600061340f82613501565b915061341a83613501565b92508261342a576134296135b4565b5b828204905092915050565b600061344082613501565b915061344b83613501565b9250817fffffffffffffffffffffffffffffffffffffffffffffffffffffffffffffffff048311821515161561348457613483613585565b5b828202905092915050565b600061349a82613501565b91506134a583613501565b9250828210156134b8576134b7613585565b5b828203905092915050565b60006134ce826134e1565b9050919050565b60008115159050919050565b600073ffffffffffffffffffffffffffffffffffffffff82169050919050565b6000819050919050565b61351482613655565b810181811067ffffffffffffffff8211171561353357613532613612565b5b80604052505050565b600061354782613501565b91507fffffffffffffffffffffffffffffffffffffffffffffffffffffffffffffffff82141561357a57613579613585565b5b600182019050919050565b7f4e487b7100000000000000000000000000000000000000000000000000000000600052601160045260246000fd5b7f4e487b7100000000000000000000000000000000000000000000000000000000600052601260045260246000fd5b7f4e487b7100000000000000000000000000000000000000000000000000000000600052603260045260246000fd5b7f4e487b7100000000000000000000000000000000000000000000000000000000600052604160045260246000fd5b600080fd5b600080fd5b600080fd5b600080fd5b6000601f19601f8301169050919050565b7f4f776e61626c653a206e6577206f776e657220697320746865207a65726f206160008201527f6464726573730000000000000000000000000000000000000000000000000000602082015250565b7f5a65726f20616464726573732064657465637465640000000000000000000000600082015250565b7f7265636976652077726f6e6720616d6f756e74206f6620746f6b656e73000000600082015250565b7f414d4f206e6f6e2d6578697374616e7400000000000000000000000000000000600082015250565b7f596f7520617265206e6f742074686520706f6f6c000000000000000000000000600082015250565b7f4f776e61626c653a2063616c6c6572206973206e6f7420746865206f776e6572600082015250565b7f4164647265737320616c72656164792065786973747300000000000000000000600082015250565b7f4d696e7420696e74657276616c206e6f74207265616368656400000000000000600082015250565b7f4173736574206e6f7420617661696c61626c6500000000000000000000000000600082015250565b7f496e76616c6964206e657720726174696f730000000000000000000000000000600082015250565b61382f816134c3565b811461383a57600080fd5b50565b613846816134d5565b811461385157600080fd5b50565b61385d81613501565b811461386857600080fd5b5056fea26469706673582212202ccbc2e8b671ce1b2d0fe5bd0baf089b67a2353a58eea6f648e8a529f8a09d5564736f6c63430008060033",
  "linkReferences": {},
  "deployedLinkReferences": {}
}