{
  "_format": "hh-sol-artifact-1",
  "contractName": "ERC20",
  "sourceName": "contracts/Mock/MockERC20.sol",
  "abi": [
    {
      "inputs": [
        {
          "internalType": "string",
          "name": "name_",
          "type": "string"
        },
        {
          "internalType": "string",
          "name": "symbol_",
          "type": "string"
        },
        {
          "internalType": "uint8",
          "name": "decimals_",
          "type": "uint8"
        },
        {
          "internalType": "address",
          "name": "_amo_address",
          "type": "address"
        },
        {
          "internalType": "address",
          "name": "_mock_swap_address",
          "type": "address"
        }
      ],
      "stateMutability": "nonpayable",
      "type": "constructor"
    },
    {
      "anonymous": false,
      "inputs": [
        {
          "indexed": true,
          "internalType": "address",
          "name": "owner",
          "type": "address"
        },
        {
          "indexed": true,
          "internalType": "address",
          "name": "spender",
          "type": "address"
        },
        {
          "indexed": false,
          "internalType": "uint256",
          "name": "value",
          "type": "uint256"
        }
      ],
      "name": "Approval",
      "type": "event"
    },
    {
      "anonymous": false,
      "inputs": [
        {
          "indexed": true,
          "internalType": "address",
          "name": "from",
          "type": "address"
        },
        {
          "indexed": true,
          "internalType": "address",
          "name": "to",
          "type": "address"
        },
        {
          "indexed": false,
          "internalType": "uint256",
          "name": "value",
          "type": "uint256"
        }
      ],
      "name": "Transfer",
      "type": "event"
    },
    {
      "inputs": [
        {
          "internalType": "address",
          "name": "owner",
          "type": "address"
        },
        {
          "internalType": "address",
          "name": "spender",
          "type": "address"
        }
      ],
      "name": "allowance",
      "outputs": [
        {
          "internalType": "uint256",
          "name": "",
          "type": "uint256"
        }
      ],
      "stateMutability": "view",
      "type": "function"
    },
    {
      "inputs": [
        {
          "internalType": "address",
          "name": "spender",
          "type": "address"
        },
        {
          "internalType": "uint256",
          "name": "amount",
          "type": "uint256"
        }
      ],
      "name": "approve",
      "outputs": [
        {
          "internalType": "bool",
          "name": "",
          "type": "bool"
        }
      ],
      "stateMutability": "nonpayable",
      "type": "function"
    },
    {
      "inputs": [
        {
          "internalType": "address",
          "name": "account",
          "type": "address"
        }
      ],
      "name": "balanceOf",
      "outputs": [
        {
          "internalType": "uint256",
          "name": "",
          "type": "uint256"
        }
      ],
      "stateMutability": "view",
      "type": "function"
    },
    {
      "inputs": [],
      "name": "decimals",
      "outputs": [
        {
          "internalType": "uint8",
          "name": "",
          "type": "uint8"
        }
      ],
      "stateMutability": "view",
      "type": "function"
    },
    {
      "inputs": [
        {
          "internalType": "address",
          "name": "spender",
          "type": "address"
        },
        {
          "internalType": "uint256",
          "name": "subtractedValue",
          "type": "uint256"
        }
      ],
      "name": "decreaseAllowance",
      "outputs": [
        {
          "internalType": "bool",
          "name": "",
          "type": "bool"
        }
      ],
      "stateMutability": "nonpayable",
      "type": "function"
    },
    {
      "inputs": [
        {
          "internalType": "address",
          "name": "spender",
          "type": "address"
        },
        {
          "internalType": "uint256",
          "name": "addedValue",
          "type": "uint256"
        }
      ],
      "name": "increaseAllowance",
      "outputs": [
        {
          "internalType": "bool",
          "name": "",
          "type": "bool"
        }
      ],
      "stateMutability": "nonpayable",
      "type": "function"
    },
    {
      "inputs": [
        {
          "internalType": "uint256",
          "name": "amount",
          "type": "uint256"
        }
      ],
      "name": "mint_to_example_amo",
      "outputs": [],
      "stateMutability": "nonpayable",
      "type": "function"
    },
    {
      "inputs": [
        {
          "internalType": "uint256",
          "name": "amount",
          "type": "uint256"
        }
      ],
      "name": "mint_to_mock_swap",
      "outputs": [],
      "stateMutability": "nonpayable",
      "type": "function"
    },
    {
      "inputs": [],
      "name": "name",
      "outputs": [
        {
          "internalType": "string",
          "name": "",
          "type": "string"
        }
      ],
      "stateMutability": "view",
      "type": "function"
    },
    {
      "inputs": [],
      "name": "symbol",
      "outputs": [
        {
          "internalType": "string",
          "name": "",
          "type": "string"
        }
      ],
      "stateMutability": "view",
      "type": "function"
    },
    {
      "inputs": [],
      "name": "totalSupply",
      "outputs": [
        {
          "internalType": "uint256",
          "name": "",
          "type": "uint256"
        }
      ],
      "stateMutability": "view",
      "type": "function"
    },
    {
      "inputs": [
        {
          "internalType": "address",
          "name": "recipient",
          "type": "address"
        },
        {
          "internalType": "uint256",
          "name": "amount",
          "type": "uint256"
        }
      ],
      "name": "transfer",
      "outputs": [
        {
          "internalType": "bool",
          "name": "",
          "type": "bool"
        }
      ],
      "stateMutability": "nonpayable",
      "type": "function"
    },
    {
      "inputs": [
        {
          "internalType": "address",
          "name": "sender",
          "type": "address"
        },
        {
          "internalType": "address",
          "name": "recipient",
          "type": "address"
        },
        {
          "internalType": "uint256",
          "name": "amount",
          "type": "uint256"
        }
      ],
      "name": "transferFrom",
      "outputs": [
        {
          "internalType": "bool",
          "name": "",
          "type": "bool"
        }
      ],
      "stateMutability": "nonpayable",
      "type": "function"
    }
  ],
  "bytecode": "0x60806040523480156200001157600080fd5b5060405162001a6938038062001a6983398181016040528101906200003791906200026d565b84600390805190602001906200004f92919062000111565b5083600490805190602001906200006892919062000111565b5082600560006101000a81548160ff021916908360ff16021790555081600560016101000a81548173ffffffffffffffffffffffffffffffffffffffff021916908373ffffffffffffffffffffffffffffffffffffffff16021790555080600660006101000a81548173ffffffffffffffffffffffffffffffffffffffff021916908373ffffffffffffffffffffffffffffffffffffffff16021790555050505050506200052c565b8280546200011f9062000409565b90600052602060002090601f0160209004810192826200014357600085556200018f565b82601f106200015e57805160ff19168380011785556200018f565b828001600101855582156200018f579182015b828111156200018e57825182559160200191906001019062000171565b5b5090506200019e9190620001a2565b5090565b5b80821115620001bd576000816000905550600101620001a3565b5090565b6000620001d8620001d2846200035c565b62000333565b905082815260208101848484011115620001f757620001f6620004d8565b5b62000204848285620003d3565b509392505050565b6000815190506200021d81620004f8565b92915050565b600082601f8301126200023b576200023a620004d3565b5b81516200024d848260208601620001c1565b91505092915050565b600081519050620002678162000512565b92915050565b600080600080600060a086880312156200028c576200028b620004e2565b5b600086015167ffffffffffffffff811115620002ad57620002ac620004dd565b5b620002bb8882890162000223565b955050602086015167ffffffffffffffff811115620002df57620002de620004dd565b5b620002ed8882890162000223565b9450506040620003008882890162000256565b935050606062000313888289016200020c565b925050608062000326888289016200020c565b9150509295509295909350565b60006200033f62000352565b90506200034d82826200043f565b919050565b6000604051905090565b600067ffffffffffffffff8211156200037a5762000379620004a4565b5b6200038582620004e7565b9050602081019050919050565b60006200039f82620003a6565b9050919050565b600073ffffffffffffffffffffffffffffffffffffffff82169050919050565b600060ff82169050919050565b60005b83811015620003f3578082015181840152602081019050620003d6565b8381111562000403576000848401525b50505050565b600060028204905060018216806200042257607f821691505b6020821081141562000439576200043862000475565b5b50919050565b6200044a82620004e7565b810181811067ffffffffffffffff821117156200046c576200046b620004a4565b5b80604052505050565b7f4e487b7100000000000000000000000000000000000000000000000000000000600052602260045260246000fd5b7f4e487b7100000000000000000000000000000000000000000000000000000000600052604160045260246000fd5b600080fd5b600080fd5b600080fd5b600080fd5b6000601f19601f8301169050919050565b620005038162000392565b81146200050f57600080fd5b50565b6200051d81620003c6565b81146200052957600080fd5b50565b61152d806200053c6000396000f3fe608060405234801561001057600080fd5b50600436106100cf5760003560e01c806370a082311161008c578063a457c2d711610066578063a457c2d714610228578063a9059cbb14610258578063dd62ed3e14610288578063e0f9ae9f146102b8576100cf565b806370a08231146101be578063759a961f146101ee57806395d89b411461020a576100cf565b806306fdde03146100d4578063095ea7b3146100f257806318160ddd1461012257806323b872dd14610140578063313ce56714610170578063395093511461018e575b600080fd5b6100dc6102d4565b6040516100e99190611098565b60405180910390f35b61010c60048036038101906101079190610efb565b610366565b604051610119919061107d565b60405180910390f35b61012a610384565b604051610137919061115a565b60405180910390f35b61015a60048036038101906101559190610ea8565b61038e565b604051610167919061107d565b60405180910390f35b610178610446565b6040516101859190611175565b60405180910390f35b6101a860048036038101906101a39190610efb565b61045d565b6040516101b5919061107d565b60405180910390f35b6101d860048036038101906101d39190610e3b565b610509565b6040516101e5919061115a565b60405180910390f35b61020860048036038101906102039190610f3b565b610551565b005b6102126105da565b60405161021f9190611098565b60405180910390f35b610242600480360381019061023d9190610efb565b61066c565b60405161024f919061107d565b60405180910390f35b610272600480360381019061026d9190610efb565b610718565b60405161027f919061107d565b60405180910390f35b6102a2600480360381019061029d9190610e68565b610736565b6040516102af919061115a565b60405180910390f35b6102d260048036038101906102cd9190610f3b565b6107bd565b005b6060600380546102e3906112be565b80601f016020809104026020016040519081016040528092919081815260200182805461030f906112be565b801561035c5780601f106103315761010080835404028352916020019161035c565b820191906000526020600020905b81548152906001019060200180831161033f57829003601f168201915b5050505050905090565b600061037a610373610846565b848461084e565b6001905092915050565b6000600254905090565b600061039b848484610a19565b61043b846103a7610846565b84600160008973ffffffffffffffffffffffffffffffffffffffff1673ffffffffffffffffffffffffffffffffffffffff16815260200190815260200160002060006103f1610846565b73ffffffffffffffffffffffffffffffffffffffff1673ffffffffffffffffffffffffffffffffffffffff168152602001908152602001600020546104369190611202565b61084e565b600190509392505050565b6000600560009054906101000a900460ff16905090565b60006104ff61046a610846565b848460016000610478610846565b73ffffffffffffffffffffffffffffffffffffffff1673ffffffffffffffffffffffffffffffffffffffff16815260200190815260200160002060008873ffffffffffffffffffffffffffffffffffffffff1673ffffffffffffffffffffffffffffffffffffffff168152602001908152602001600020546104fa91906111ac565b61084e565b6001905092915050565b60008060008373ffffffffffffffffffffffffffffffffffffffff1673ffffffffffffffffffffffffffffffffffffffff168152602001908152602001600020549050919050565b600660009054906101000a900473ffffffffffffffffffffffffffffffffffffffff1673ffffffffffffffffffffffffffffffffffffffff163373ffffffffffffffffffffffffffffffffffffffff16146105ab57600080fd5b6105d7600660009054906101000a900473ffffffffffffffffffffffffffffffffffffffff1682610c86565b50565b6060600480546105e9906112be565b80601f0160208091040260200160405190810160405280929190818152602001828054610615906112be565b80156106625780601f1061063757610100808354040283529160200191610662565b820191906000526020600020905b81548152906001019060200180831161064557829003601f168201915b5050505050905090565b600061070e610679610846565b848460016000610687610846565b73ffffffffffffffffffffffffffffffffffffffff1673ffffffffffffffffffffffffffffffffffffffff16815260200190815260200160002060008873ffffffffffffffffffffffffffffffffffffffff1673ffffffffffffffffffffffffffffffffffffffff168152602001908152602001600020546107099190611202565b61084e565b6001905092915050565b600061072c610725610846565b8484610a19565b6001905092915050565b6000600160008473ffffffffffffffffffffffffffffffffffffffff1673ffffffffffffffffffffffffffffffffffffffff16815260200190815260200160002060008373ffffffffffffffffffffffffffffffffffffffff1673ffffffffffffffffffffffffffffffffffffffff16815260200190815260200160002054905092915050565b600560019054906101000a900473ffffffffffffffffffffffffffffffffffffffff1673ffffffffffffffffffffffffffffffffffffffff163373ffffffffffffffffffffffffffffffffffffffff161461081757600080fd5b610843600560019054906101000a900473ffffffffffffffffffffffffffffffffffffffff1682610c86565b50565b600033905090565b600073ffffffffffffffffffffffffffffffffffffffff168373ffffffffffffffffffffffffffffffffffffffff1614156108be576040517f08c379a00000000000000000000000000000000000000000000000000000000081526004016108b59061111a565b60405180910390fd5b600073ffffffffffffffffffffffffffffffffffffffff168273ffffffffffffffffffffffffffffffffffffffff16141561092e576040517f08c379a0000000000000000000000000000000000000000000000000000000008152600401610925906110da565b60405180910390fd5b80600160008573ffffffffffffffffffffffffffffffffffffffff1673ffffffffffffffffffffffffffffffffffffffff16815260200190815260200160002060008473ffffffffffffffffffffffffffffffffffffffff1673ffffffffffffffffffffffffffffffffffffffff168152602001908152602001600020819055508173ffffffffffffffffffffffffffffffffffffffff168373ffffffffffffffffffffffffffffffffffffffff167f8c5be1e5ebec7d5bd14f71427d1e84f3dd0314c0f7b2291e5b200ac8c7c3b92583604051610a0c919061115a565b60405180910390a3505050565b600073ffffffffffffffffffffffffffffffffffffffff168373ffffffffffffffffffffffffffffffffffffffff161415610a89576040517f08c379a0000000000000000000000000000000000000000000000000000000008152600401610a80906110fa565b60405180910390fd5b600073ffffffffffffffffffffffffffffffffffffffff168273ffffffffffffffffffffffffffffffffffffffff161415610af9576040517f08c379a0000000000000000000000000000000000000000000000000000000008152600401610af0906110ba565b60405180910390fd5b610b04838383610e0c565b806000808573ffffffffffffffffffffffffffffffffffffffff1673ffffffffffffffffffffffffffffffffffffffff16815260200190815260200160002054610b4e9190611202565b6000808573ffffffffffffffffffffffffffffffffffffffff1673ffffffffffffffffffffffffffffffffffffffff16815260200190815260200160002081905550806000808473ffffffffffffffffffffffffffffffffffffffff1673ffffffffffffffffffffffffffffffffffffffff16815260200190815260200160002054610bda91906111ac565b6000808473ffffffffffffffffffffffffffffffffffffffff1673ffffffffffffffffffffffffffffffffffffffff168152602001908152602001600020819055508173ffffffffffffffffffffffffffffffffffffffff168373ffffffffffffffffffffffffffffffffffffffff167fddf252ad1be2c89b69c2b068fc378daa952ba7f163c4a11628f55a4df523b3ef83604051610c79919061115a565b60405180910390a3505050565b600073ffffffffffffffffffffffffffffffffffffffff168273ffffffffffffffffffffffffffffffffffffffff161415610cf6576040517f08c379a0000000000000000000000000000000000000000000000000000000008152600401610ced9061113a565b60405180910390fd5b610d0260008383610e0c565b80600254610d1091906111ac565b600281905550806000808473ffffffffffffffffffffffffffffffffffffffff1673ffffffffffffffffffffffffffffffffffffffff16815260200190815260200160002054610d6091906111ac565b6000808473ffffffffffffffffffffffffffffffffffffffff1673ffffffffffffffffffffffffffffffffffffffff168152602001908152602001600020819055508173ffffffffffffffffffffffffffffffffffffffff16600073ffffffffffffffffffffffffffffffffffffffff167fddf252ad1be2c89b69c2b068fc378daa952ba7f163c4a11628f55a4df523b3ef83604051610e00919061115a565b60405180910390a35050565b505050565b600081359050610e20816114c9565b92915050565b600081359050610e35816114e0565b92915050565b600060208284031215610e5157610e5061134e565b5b6000610e5f84828501610e11565b91505092915050565b60008060408385031215610e7f57610e7e61134e565b5b6000610e8d85828601610e11565b9250506020610e9e85828601610e11565b9150509250929050565b600080600060608486031215610ec157610ec061134e565b5b6000610ecf86828701610e11565b9350506020610ee086828701610e11565b9250506040610ef186828701610e26565b9150509250925092565b60008060408385031215610f1257610f1161134e565b5b6000610f2085828601610e11565b9250506020610f3185828601610e26565b9150509250929050565b600060208284031215610f5157610f5061134e565b5b6000610f5f84828501610e26565b91505092915050565b610f7181611248565b82525050565b6000610f8282611190565b610f8c818561119b565b9350610f9c81856020860161128b565b610fa581611353565b840191505092915050565b6000610fbd60238361119b565b9150610fc882611364565b604082019050919050565b6000610fe060228361119b565b9150610feb826113b3565b604082019050919050565b600061100360258361119b565b915061100e82611402565b604082019050919050565b600061102660248361119b565b915061103182611451565b604082019050919050565b6000611049601f8361119b565b9150611054826114a0565b602082019050919050565b61106881611274565b82525050565b6110778161127e565b82525050565b60006020820190506110926000830184610f68565b92915050565b600060208201905081810360008301526110b28184610f77565b905092915050565b600060208201905081810360008301526110d381610fb0565b9050919050565b600060208201905081810360008301526110f381610fd3565b9050919050565b6000602082019050818103600083015261111381610ff6565b9050919050565b6000602082019050818103600083015261113381611019565b9050919050565b600060208201905081810360008301526111538161103c565b9050919050565b600060208201905061116f600083018461105f565b92915050565b600060208201905061118a600083018461106e565b92915050565b600081519050919050565b600082825260208201905092915050565b60006111b782611274565b91506111c283611274565b9250827fffffffffffffffffffffffffffffffffffffffffffffffffffffffffffffffff038211156111f7576111f66112f0565b5b828201905092915050565b600061120d82611274565b915061121883611274565b92508282101561122b5761122a6112f0565b5b828203905092915050565b600061124182611254565b9050919050565b60008115159050919050565b600073ffffffffffffffffffffffffffffffffffffffff82169050919050565b6000819050919050565b600060ff82169050919050565b60005b838110156112a957808201518184015260208101905061128e565b838111156112b8576000848401525b50505050565b600060028204905060018216806112d657607f821691505b602082108114156112ea576112e961131f565b5b50919050565b7f4e487b7100000000000000000000000000000000000000000000000000000000600052601160045260246000fd5b7f4e487b7100000000000000000000000000000000000000000000000000000000600052602260045260246000fd5b600080fd5b6000601f19601f8301169050919050565b7f45524332303a207472616e7366657220746f20746865207a65726f206164647260008201527f6573730000000000000000000000000000000000000000000000000000000000602082015250565b7f45524332303a20617070726f766520746f20746865207a65726f20616464726560008201527f7373000000000000000000000000000000000000000000000000000000000000602082015250565b7f45524332303a207472616e736665722066726f6d20746865207a65726f20616460008201527f6472657373000000000000000000000000000000000000000000000000000000602082015250565b7f45524332303a20617070726f76652066726f6d20746865207a65726f2061646460008201527f7265737300000000000000000000000000000000000000000000000000000000602082015250565b7f45524332303a206d696e7420746f20746865207a65726f206164647265737300600082015250565b6114d281611236565b81146114dd57600080fd5b50565b6114e981611274565b81146114f457600080fd5b5056fea26469706673582212207b2324551e3afa8be9a8e54e3e20431777928df7e04df553ed3ba16be69a4dba64736f6c63430008060033",
  "linkReferences": {},
  "deployedLinkReferences": {}
}